:020000040800F2
:1000000098B200209D01000829170008B10E0008D1
:10001000ED16000889030008293A000800000000D6
:10002000000000000000000000000000092F000890
:10003000E109000800000000B91700080D330008AE
:10004000B7010008B7010008B7010008B7010008B0
:10005000B7010008B7010008B7010008B7010008A0
:10006000B7010008B7010008B7010008B701000890
:10007000B7010008B7010008590600088506000806
:10008000B7010008B7010008B7010008B701000870
:10009000B7010008B7010008B7010008B701000860
:1000A000B7010008B7010008B7010008B701000850
:1000B000B7010008B7010008B7010008B701000840
:1000C000B7010008B7010008B7010008B701000830
:1000D000B7010008B7010008B7010008B701000820
:1000E000B7010008B7010008B7010008B701000810
:1000F000B7010008B7010008B7010008B701000800
:10010000B7010008691F0008B7010008B70100081F
:10011000B7010008B7010008B7010008B7010008DF
:10012000B7010008B7010008B7010008B1060008D0
:10013000B7010008B7010008B7010008B7010008BF
:10014000B7010008B7010008B7010008B7010008AF
:10015000B7010008B7010008B7010008B70100089F
:10016000B7010008B7010008B7010008B70100088F
:10017000B7010008B7010008B7010008B70100087F
:10018000B7010008B7010008DFF80CD000F09EF8B6
:1001900000480047915C000898B20020064880475C
:1001A00006480047FEE7FEE7FEE7FEE7FEE7FEE75C
:1001B000FEE7FEE7FEE7FEE77D3300088901000861
:1001C0002DE9F05F0546002092469B46884606468C
:1001D000814640241BE0284641464746224600F01F
:1001E00065F853465A46C01A914110D31146184635
:1001F000224600F04CF82D1A67EB01084F462246C4
:100200000120002100F043F817EB00094E41201EA9
:10021000A4F10104DFDC484631462A464346BDE8E6
:10022000F09F10B5431A934209D28318881803E04F
:1002300010F8011D03F8011D521EF9D210BD40EA4D
:1002400001039B0703D009E008C9121F08C0042A54
:10025000FAD203E011F8013B00F8013B521EF9D23B
:1002600010BD30B50B46014600202022012409E0D4
:1002700021FA02F59D4205D303FA02F5491B04FA5F
:1002800002F52844151EA2F10102F1DC30BD202A3E
:1002900004DB203A00FA02F1002070479140C2F1DD
:1002A000200320FA03F3194390407047202A04DB0F
:1002B000203A21FA02F00021704721FA02F3D040DF
:1002C000C2F120029140084319467047064C074D81
:1002D00006E0E06840F0010394E807009847103416
:1002E000AC42F6D3FFF754FF80160308A0160308AC
:1002F00070B58C1810F8015B15F0070301D110F8E8
:10030000013B2A1106D110F8012B03E010F8016B14
:1003100001F8016B5B1EF9D12B0705D40023521E97
:100320000DD401F8013BFAE710F8013BCB1A921CFF
:1003300003E013F8015B01F8015B521EF9D5A142FD
:10034000D8D3002070BD00001CB50121402001F071
:1003500035FA4FF40070009001208DF80400002061
:100360008DF8060002208DF8070000208DF80500AA
:100370006946044800F026FD4FF40071014800F082
:1003800095FD1CBD0018024000BFFEE770B50025BA
:100390004FF4803400E0641E24B1802001F0B8FDE9
:1003A0000028F8D014B90325284670BD40F2FF504C
:1003B00001F06AFD2846F8E72DE9F04106460027DE
:1003C0004848056801E04748056805F045000028F1
:1003D000F9D005F0040030B10327042001F054FDEA
:1003E0003846BDE8F08105F0010028B10127012061
:1003F00001F04AFD3846F4E701F084FDB04202D036
:1004000010273846EDE740F2FF5001F03DFD002097
:1004100001F09EFD04463448204008B93846E0E724
:1004200004F0004008B11C20DBE704F0804008B174
:100430000920D6E704F0005008B10A20D1E704F003
:10044000805008B10B20CCE704F0006008B10C200C
:10045000C7E704F0806008B10D20C2E704F08070A7
:1004600008B10E20BDE704F4000008B10F20B8E782
:1004700004F4800008B11020B3E704F4001008B1C0
:100480001120AEE704F4801008B11220A9E704F4AB
:10049000002008B11320A4E704F4802008B1142040
:1004A0009FE704F4003008B115209AE704F4803087
:1004B00008B1162095E704F4004008B1172090E732
:1004C00004F4804008B118208BE704F4005008B110
:1004D000192086E704F0080008B11A2081E73846A1
:1004E0007FE70000342C014008E0FFFD70B50025D7
:1004F0001048046801E00F48046804F04500002833
:10050000F9D004F0040028B10325042001F0BCFC5C
:10051000284670BD04F0010028B10125012001F03A
:10052000B3FC2846F5E740F2FF5001F0ADFC284649
:10053000EFE70000342C014070B500250B4804683B
:1005400001E00A48046804F045000028F9D004F0EE
:10055000040028B10325042001F096FC284670BD54
:1005600040F2FF5001F090FC2846F8E7342C01409F
:100570002DE9F04106460F464FF000082248056875
:1005800001E02148056805F045000028F9D005F094
:10059000040038B14FF00308042001F075FC404618
:1005A000BDE8F08105F0010030B14FF001080120F5
:1005B00001F06AFC4046F3E701F0A4FCB04203D02E
:1005C0004FF010084046EBE740F2FF5001F05CFCB2
:1005D000002001F0BDFC044604F4604018B9200C72
:1005E00038804046DCE704F4005008B11320D7E718
:1005F00004F4804008B11020D2E704F4004008B1B0
:100600000F20CDE74046CBE7342C014070B50026E3
:100610004FF480350F48046802E06D1E0D480468F1
:1006200004F0450008B9002DF7D115B104F004001D
:1006300028B10326042001F027FC304670BD04F0E9
:10064000400028B10026402001F01EFC3046F5E7AE
:100650003046F3E7342C014010B50749074800F055
:1006600043F9012806D10449044800F03FF8044842
:100670000068804710BD00000080001858600240EC
:100680003001002010B50749074800F02DF9012876
:1006900006D10449044800F029F80448006880475E
:1006A00010BD000020800020706002402C0100205E
:1006B00010B502F055F910BD0246094B9A4201D21D
:1006C000084801E00648103801F000531BB1064B02
:1006D0000B40C36002E0044B0B4083607047000096
:1006E00010640240006002407D0F7D0F0246094BFE
:1006F0009A4201D2084801E00648103801F0005340
:100700001BB1064B0B40C36002E0044B0B408360FF
:100710007047000010640240006002407D0F7D0FB2
:1007200021B1026842F00102026003E0026822F097
:100730000102026070470000016821F001010160C0
:100740000021016041608160C1600161212141613E
:100750004A49884204D13D21484A103A91608CE0D0
:1007600046491831884205D14FF47461434A103A22
:10077000916082E041493031884205D14FF47411D3
:100780003E4A103A916078E03C494831884205D1B0
:100790004FF07461394A103A91606EE03749603128
:1007A000884204D13649354A103AD16065E0334970
:1007B0007831884204D13349304A103AD1605CE044
:1007C0002E499031884204D12F492C4A103AD160E9
:1007D00053E02A49A831884205D14FF03D51274ABC
:1007E000103AD16049E02949884204D13D21274A85
:1007F000083A116041E025491831884205D14FF48B
:100800007461224A083A116037E020493031884249
:1008100005D14FF474111D4A083A11602DE01B49AF
:100820004831884205D14FF07461184A083A116086
:1008300023E016496031884204D11149134A121F3E
:1008400011601AE011497831884204D10D490F4AEC
:10085000121F116011E00D499031884204D10A49FC
:100860000A4A121F116008E00849A831884204D1E1
:100870004FF03D51054A121F116070471060024051
:100880003D000020400F002000003D201064024089
:1008900021B1026842F48022026003E0026822F47F
:1008A00080220260704722B1036843F40023036092
:1008B00003E0036823F4002303600161704721B162
:1008C000026842F02002026003E0026822F0200287
:1008D00002607047014600200A6802F001020AB176
:1008E000012000E00020704770B50246002000247F
:1008F0000025124EB24201D2114B01E00F4B103BCA
:10090000104E0E4036B11E2606EAD124166806EABD
:10091000040502E0566906F0800501F000560EB1AC
:100920005C6800E01C68084E344004EA010616B119
:100930000DB1012000E0002070BD000010640240F5
:10094000006002403C0F3C0F7D0F7D0F10B501F0A1
:1009500080034BB122B1436943F08003436103E05C
:10096000436923F08003436180290BD02AB10368D7
:1009700001F01E042343036004E0036801F01E0439
:10098000A343036010BD000010B500220268134BA2
:100990001A40CC680B6823434C6923438C6923437A
:1009A000CC6923430C6A23434C6A23438C6A234358
:1009B0004C6B23438C6B23431A430260426922F041
:1009C0000702D1E90B3423431A4342610B694360A8
:1009D0004B6883608B68C36010BD00003F801CF0D3
:1009E0007047000000B587B00121084600F0E6FE20
:1009F0000121102000F012FF07220A211D4800F0FB
:100A000029FA072209211B4800F024FA00208DF85A
:100A10001A0001208DF81B0002208DF8180000023A
:100A2000059002208DF8190005A9124800F0CAF9B6
:100A300002208DF818004002059005A90D4800F02D
:100A4000C1F94FF4E13001900020ADF80800ADF895
:100A50000A00ADF80C00ADF810000C20ADF80E0047
:100A600001A9054802F072FF0121034802F054FF7A
:100A700007B000BD000002400010014001B504496C
:100A80000098086000BF024800680028FBD108BD3C
:100A9000B000002030B599B02DA003F051F834A07B
:100AA00003F04EF83AA003F04BF84048407800EBD2
:100AB00040003F4901EB800080684FF47A71B0FB41
:100AC000F1F201FB12006421B0FBF1F437484078E9
:100AD00000EB4000364901EB800080684FF47A71EA
:100AE000B0FBF1F523462A4632A1684603F038F8F8
:100AF00069463AA003F024F82C48007918B938A0C8
:100B000003F01EF80EE029480079012803D138A02F
:100B100003F016F806E025480079022802D138A033
:100B200003F00EF82148C27839A1684603F018F89E
:100B300069462AA003F004F81C48827838A1684668
:100B400003F00EF8694625A002F0FAFF19B030BD97
:100B50000A20202020B0B4CFC24B455932BCFCBF84
:100B6000AACABCC2BCD2F4202020200A0000000087
:100B7000202020B0B4CFC2B5E7C8DDB0B4BCFCBF04
:100B8000AACABCBBD8B7C5202020200A000000009C
:100B9000202020202020B0B4CFC24B455931BCFCCE
:100BA000BDE1CAF8202020200A0D00003D000020F1
:100BB00050000020D2F4C6B5B8F1CABD3A20506842
:100BC000696C6970732C31364269742C25642E254A
:100BD000646B487A202020202000000025730A0042
:100BE000D7B4CCAC203D20BFD5CFD02020202000D2
:100BF000D7B4CCAC203D20D5FDD4DAC2BCD2F400B1
:100C0000D7B4CCAC203D20D5FDD4DABBD8B7C500D5
:100C10002020D4F6D2E6203D2025642000000000EC
:100C2000B6FABBFAD2F4C1BF203D202564200D00E6
:100C30002DE9FC4107460D460026002400200090C7
:100C4000019008205B4908601020486040208860BF
:100C50000020C8604FF480600861084601F0B6F9D2
:100C60001020FFF7A9FB044614B12046BDE8FC8123
:100C70005148008800044F490860372048604020F0
:100C800088600020C8604FF480600861084601F069
:100C90009DF93720FFF790FB04460CB12046E5E7AD
:100CA0004FF0FF30454908600820486030208860D8
:100CB0000220C8600020086101204861084601F058
:100CC000FBF800203B4908603320486040208860E2
:100CD0000020C8604FF480600861084601F076F992
:100CE0003320FFF769FB04460CB12046BEE709E05C
:100CF0004FF4001001F00CF920B101F061F94DF84A
:100D00002600761C2E48006840F22A610840002820
:100D1000EED0082001F0FCF828B1082001F0B4F86A
:100D200004242046A2E7022001F0F2F828B10220B4
:100D300001F0AAF80224204698E7202001F0E8F804
:100D400028B1202001F0A0F8062420468EE74FF4B9
:100D5000007001F0DDF830B14FF4007001F094F84C
:100D60000724204682E740F2FF5001F08DF80098FA
:100D70000006009901F47F4140EA0120009901F446
:100D80007F0140EA1120009940EA116068600198F3
:100D90000006019901F47F4140EA0120019901F424
:100DA0007F0140EA1120019940EA11602860204645
:100DB0005CE7000068A200209C0000207CA20020CC
:100DC000342C0140F0B50A4600210023002400BF66
:100DD0003DE0012505FA01F3156805EA03049C428C
:100DE00034D105684F000326BE40B5430560157930
:100DF0004E00B5400668354305601579012D02D0D7
:100E00001579022D16D185684F000326BE40B543E3
:100E1000856055794E00B5408668354385604568E4
:100E200001268E40B5434560456896798E40B6B23E
:100E300035434560C5684F000326BE40B543C560D5
:100E4000D5794E00B540C6683543C560491C1029A8
:100E5000BFD3F0BDF0B5002300244D07ED0E02FA1C
:100E600005F3CE1000F1200555F826504E07F70E79
:100E70000F26BE40B543CF1000F1200646F827509C
:100E8000CE1000F1200555F8265045EA0304CE1097
:100E900000F1200545F82640F0BD02460020136908
:100EA0000B400BB1012000E00020704741837047E8
:100EB00002A002F045FE00BFFEE700006861726418
:100EC0006661756C742121210A00000021B102883D
:100ED00042F48062028004E002884FF6FF331A4039
:100EE0000280704770B502460024002500230020D0
:100EF000958A138B1B0445EA030626F07F4404EA17
:100F000001068E4201D1012000E0002070BD21B118
:100F1000028842F00102028004E002884FF6FE736C
:100F20001A400280704700001CB50121480500F0FE
:100F300055FC0121022000F041FC0121880300F052
:100F40006DFC042208211148FFF784FF04220921C7
:100F50000E48FFF77FFF4FF48070009002208DF85D
:100F600004008DF8050001208DF8060000208DF8A2
:100F7000070069460548FFF725FF4FF40070009011
:100F800069460248FFF71EFF1CBD00000004024036
:100F900021B1028842F48072028004E002884FF698
:100FA000FF631A400280704721B1028842F4007248
:100FB000028004E002884FF6FF531A400280704717
:100FC0000CB50246002000230193009300920B0F02
:100FD000019321F07F41019B1BB1009B14330093CF
:100FE00003E0090C009B18330093009B1B680B4027
:100FF0000BB1012000E000200CBD00002DE9FF47EF
:1010000004460D460026B1460427DFF8CC80A688AA
:101010004FF6C0700640684600F020FCDDF80880FE
:101020002E48B8FBF0F01FFA80F946EA0906A680C0
:1010300020884FF6FE710840208000262849286845
:1010400088420CD828684000B8FBF0F087B2042F23
:1010500000DA04273E4309F10100208427E0E888F4
:101060004BF6FF71884206D1286800EB4000B8FBC0
:10107000F0F087B209E0286800EBC00101EB001036
:10108000B8FBF0F087B247F48047C7F30B0008B90C
:1010900047F0010747F4004006434FF4967009FB00
:1010A00000F04FF47A7190FBF1F0401C2084A6838D
:1010B000208840F00100208026884FF6F530064059
:1010C000A8886989084306432680A8892989084396
:1010D0002081BDE8FF87000000127A0040420F0027
:1010E000A08601001FB50020ADF804004BF6FF708C
:1010F000ADF806000A20ADF808004FF48060ADF8A6
:101100000A000001ADF80C00074800906946074846
:10111000FFF774FF01210548FFF7F9FE012103489D
:10112000FFF7D4FE1FBD0000801A060000540040E7
:1011300012B141F0010101E001F0FE0101827047AE
:101140000182704721B1828B42F48062828304E085
:10115000828B4FF6FF331A408283704730B50022EE
:101160000023848B4FF240052C40848302240484A6
:10117000828B0C88B4F5007F01D00C8814B94FF431
:10118000807308E00C88B4F5407F03D00C88B4F578
:10119000807F00D100238C888D892C434D882C437F
:1011A0001C4344F400642243828330BD1CB50121FA
:1011B000062000F003FB02208DF804008DF80500E6
:1011C00000208DF806008DF807004FF48050009045
:1011D00069461C48FFF7F6FD4FF400500090694641
:1011E0001848FFF7EFFD4FF480400090694615481E
:1011F000FFF7E8FD4FF40040009069461148FFF703
:10120000E1FD4020009069460F48FFF7DBFD052215
:101210000C210C48FFF71EFE05220D210948FFF79F
:1012200019FE06220E210748FFF714FE05220F21A2
:101230000448FFF70FFE052206210348FFF70AFEC8
:101240001CBD000000040240000802402DE9F04FE0
:101250000025022300244FF0010900220026002768
:1012600094469046B0F81CA04FF2400B0AEA0B0AD5
:10127000A0F81CA04FF0020AA0F820A0858BD1F89E
:1012800008A0BAF1020F01D100BF82E0B1F804A0BA
:10129000BAF1000F02D14FF0010901E04FF002094D
:1012A000DFF834A1DAF800A00AF4000ABAF1000F5E
:1012B00009D0DFF824A1DAF800A02AF4000ADFF848
:1012C00018B1CBF800A0DFF810A10AF17C0ADAF817
:1012D00000A0CAF3881CDFF800A10AF17C0ADAF842
:1012E00000A0CAF30278DFF8F0A0AAF1040ADAF845
:1012F00000A00AF03F07DFF8E0A0AAF1040ADAF83C
:1013000000A00AF4800ABAF5800F08D1DFF8CCA05B
:10131000BAFBF7FA0AFB0CFABAFBF8F607E0DFF8BB
:10132000C0A0BAFBF7FA0AFB0CFABAFBF8F6B1F860
:1013300006A0BAF5007F0ED14FEA162A0AEB8A0AF8
:101340004FEA4A0AD1F808B0BAFBFBFA0AF1050ADB
:101350001FFA8AF20FE04FEA491AB6FBFAFA0AEBD3
:101360008A0A4FEA4A0AD1F808B0BAFBFBFA0AF136
:10137000050A1FFA8AF24FF00A0AB2FBFAF202F0EB
:101380000104A2EB040ACAF34F034FF6FF7A0AEAFC
:101390000424022B01DBFF2B01DD02230024B1F822
:1013A00006A04AEA040A4AEA030AA0F820A0B1F813
:1013B00004A0B1F80CB04AEA0B0AB1F802B04AEA4C
:1013C0000B0AB1F800B04AEA0B0A4AF4006A4AEA8A
:1013D00005058583BDE8F08F0838024040787D011F
:1013E0000024F40010B501210148FFF799F910BD60
:1013F0007060024010B500210148FFF791F910BD5F
:101400007060024010B500210448FFF789F90021FF
:1014100002481838FFF784F910BD000070600240E0
:101420002DE9FF4104460D4616460027B846002028
:1014300000F0A8FA012000F0ABFA00BF08E03B2062
:1014400000F080FA8046B8F1010F00D103E07F1C64
:10145000B7F5FA7FF3D300BF0121880300F0BEF98E
:101460000D4801F0F9FC4FF40070ADF80000ADF844
:101470000240ADF80450ADF8060002960020ADF829
:101480000C0069460448FFF7E1FE01210248FFF71E
:1014900059FEBDE8FF8100000038004070B590B0F3
:1014A00004460E4615460121480500F087F92A48F2
:1014B000FFF742F900BF2848FFF70CFA0028FAD1DD
:1014C00026492548FFF712F9002000902448019092
:1014D0000294402003900495002005904FF4806012
:1014E000069040000790800008904011099040024B
:1014F0000A9000200B900C900D900E9069461648B3
:10150000FFF742FA002221461348FFF7CCF94FF4C7
:10151000002231461048FFF7C6F901210E48FFF7B7
:10152000B7F9012210210C48FFF710FA012202211D
:101530000B480C3801F086FC0F208DF83C00002091
:101540008DF83D0001208DF83E008DF83F000FA87A
:1015500000F0ECF810B070BD706002403DF000A0EB
:101560000C3800407FB506460C4615464FF4007017
:10157000ADF80000ADF80260ADF80440ADF806002B
:1015800002950020ADF80C0069460448FFF7E6FD1F
:1015900001210248FFF7D6FD7FBD00000034004066
:1015A00070B590B004460E4615460121480500F07E
:1015B00005F92B48FFF7C0F800BF2948FFF78AF963
:1015C0000028FAD127492648FFF790F84FF0C0606D
:1015D0000090254801900294002003900495059006
:1015E0004FF4806006904000079080000890401102
:1015F000099000020A9000200B900C900D900E9024
:1016000069461748FFF7C0F9002221461448FFF742
:101610004AF94FF4002231461148FFF744F90121FD
:101620000F48FFF735F9012210210D48FFF78EF919
:10163000012211460C480C3801F004FC0E208DF8F4
:101640003C0000208DF83D0002208DF83E00012076
:101650008DF83F000FA800F069F810B070BD0000D1
:101660005860024000F0409F0C34004010B501214A
:101670000148FFF755F810BD5860024010B5002131
:101680000148FFF74DF810BD586002401CB501211C
:10169000052000F093F80120009000208DF8040050
:1016A0008DF8070069460548FFF78CFB4FF40050A2
:1016B000009069460248FFF785FB1CBD0000024010
:1016C0000008024070B504460D4629462046FFF743
:1016D000E4FB012808D100BF29462046FFF7DDFBC7
:1016E0000128F9D0012070BD0020FCE700BFFEE713
:1016F0000948007902280ED10848006F00F4002044
:1017000018B100200649087002E001200449087061
:1017100001200449087070473D000020006002402D
:1017200043000020420000207047000070B50021F7
:1017300000230F22C4781CB3174C246804F4E0641F
:10174000C4F5E064C4F30721C1F10404E3B20A4123
:1017500044789C40E1B28478144021430C07210E68
:101760000E4C05786155047804F01F050124AC4047
:1017700005786D11AD0005F1E025C5F8004109E0DF
:10178000047804F01F050124AC40054D067876115D
:1017900045F8264070BD00000CED00E000E400E0DC
:1017A00080E100E002490143024A116070470000F5
:1017B0000000FA050CED00E07047000029B1064A70
:1017C00012680243044B1A6004E0034A1268824321
:1017D000014B1A60704700003038024029B1064AB8
:1017E00012680243044B1A6004E0034A1268824301
:1017F000014B1A60704700004038024029B1064A88
:1018000012680243044B1A6004E0034A12688243E0
:10181000014B1A60704700002038024029B1064A87
:1018200012680243044B1A6004E0034A12688243C0
:10183000014B1A60704700004438024029B1064A43
:1018400012680243044B1A6004E0034A12688243A0
:10185000014B1A607047000024380240F0B50021A7
:1018600000220024022500260223324F3F6807F0A1
:101870000C0121B1042905D0082937D105E02E4FEC
:10188000076036E02D4F076033E02A4F3F1F3F6867
:10189000C7F38056274F3F1F3F6807F03F036EB1E5
:1018A000264FB7FBF3F7DFF88CC0ACF1040CDCF883
:1018B00000C0CCF3881C07FB0CF40CE01E4FB7FBF8
:1018C000F3F7DFF870C0ACF1040CDCF800C0CCF327
:1018D000881C07FB0CF4174F3F1F3F68C7F30147F5
:1018E0007F1C7D00B4FBF5F7076002E0124F076034
:1018F00000BF00BF0F4F3F6807F0F0010909104F0C
:101900007A5C0768D74047600A4F3F6807F4E051A8
:10191000890A0B4F7A5C4768D7408760054F3F685C
:1019200007F46041490B064F7A5C4768D740C760AF
:10193000F0BD0000083802400024F40040787D012A
:101940001400002010B501460022002300204A1197
:10195000012A02D10A4C236808E0022A03D1084C6C
:101960007034236802E0064C7434236801F01F02CF
:10197000012494401C400CB1012000E0002010BD67
:101980000038024001490860704700005C0147428E
:101990000149886670470000000047428AB0002075
:1019A000BB490871087003204870232088700846DE
:1019B000007828B93220C8700120B649C88205E0F5
:1019C0000620B349C8700220B249C882B248B14962
:1019D000086000204860B1488860B148C8601020A5
:1019E00008610120888210204884A948407800EBD3
:1019F0004000AC4901EB80008068A6498861084638
:101A0000C08A89694843A349498C4843C008A14911
:101A1000C861C98A9F4A528C01FB02F0C11700EBD2
:101A20005171C1F3CF019B4A11849F48114648620E
:101A3000002088629DA101A803F077FA9E490870F2
:101A400008E09AA003F0D0F898A101A803F06DFA7D
:101A500099490870984800780028F2D1FFF7D2FC25
:101A6000FFF7A4FB8A4B5B7803EB43038D4E06EB39
:101A700083039A68864B5B7803EB430306EB83038F
:101A80009B8899B2824B5B7803EB430336F8233093
:101A900098B2FFF7C5FC7E4B5B7803EB430306EB84
:101AA00083039A687A4B5B7803EB430306EB83036B
:101AB0009B8899B2764B5B7803EB430336F823306F
:101AC00098B2FFF74FFD7D487D490860FFF792FC13
:101AD0007C487D490860FFF7D1FD012500207B4946
:101AE00008707B490870D1E0012D02D1FEF7D2FFCA
:101AF000002567480079002835D14FF4005175481A
:101B0000FFF7E0FD012824D1012412E0224672A152
:101B1000774802F025F801227549764803F046F926
:101B20006549087008460078042800D103E0601C6D
:101B3000C4B2FF2CEADB00BF6E4802F078FFFF2C36
:101B400003D1032052490871A0E0694801F016FB57
:101B50000125002001F0A4FE002838D0644801F0DF
:101B60004BFA012533E001216348FFF7ABFD012863
:101B70002DD147480079012821D1FFF77FFDFFF7DC
:101B800039FC5E4800682430424948605B48006880
:101B900088620021574802F05AFF47490870584BA5
:101BA0002C223C49534803F03BFB43490870514801
:101BB00002F03DFF4049087052A001F0C1FF01252D
:101BC000002033490871FFF71DFC04F031FC404848
:101BD0000078012859D100203D4908702C4800792F
:101BE000012802D002284FD11CE03848007848B9BB
:101BF000434B4FF4804246493E4803F011FB2E49C7
:101C0000087008E03E4B4FF480424249394803F0E7
:101C100007FB294908703948006800F580403749BA
:101C2000086031E02948007848B9354B4FF48042CC
:101C30003749304803F0B4F91F49087008E0304BC9
:101C40004FF4804233492B4803F0AAF91A4908702F
:101C50001948007828B9274880682649C968884209
:101C600011D12DA001F06CFFFFF7C4FB002021492A
:101C70008860084602F0DBFE002005490871FFF786
:101C8000C1FB04F0D5FB00BF00BF00BF2CE7000084
:101C90003D000020781100205249464657415645E4
:101CA000666D74205000002064617461303A2F72B8
:101CB00065636F726465720048000020F1160008C9
:101CC0002C010020351D00083001002043000020B9
:101CD0004200002000080240303A2F7265636F72A4
:101CE0006465722F726563253033642E77617600E8
:101CF00024000020A49100200000024044000020A5
:101D00004C000020C2BCD2F4BDE1CAF80D0A0000AC
:101D1000A4110020A4510020B2A5B7C5CDEABBF2A2
:101D2000D5DFB6C1C8A1B3F6B4EDCDCBB3F62E2E38
:101D30002E0D0A000948007901280ED10848806D4F
:101D400000F4002018B100200649087002E00120CC
:101D50000449087001200449087070473D000020C4
:101D60000060024043000020420000207CB5054690
:101D7000002400200090019000F0EAF800F00070CC
:101D800010B10E2420467CBD3D49098888B26946C1
:101D9000FEF74EFF04460CB12046F4E7012D36D184
:101DA000019800F4802000282ED0354800880004D7
:101DB0003449086037204860402088600020C860AF
:101DC000A8020861084600F001F93720FEF7F4FA8E
:101DD00004460CB12046D6E702202A4908600620B6
:101DE0004860402088600020C8604FF4806008612F
:101DF000084600F0EBF80620FEF7DEFA04460CB1C8
:101E00002046C0E72046BEE725242046BBE70198D0
:101E100000F4803078B31A4800880004194908603B
:101E200037204860402088600020C8604FF4806000
:101E30000861084600F0CAF83720FEF7BDFA0446EC
:101E40000CB120469FE700200E490860062048603C
:101E5000402088600020C8604FF480600861084618
:101E600000F0B4F80620FEF7A7FA04460CB12046AD
:101E700089E7204687E7FFE72524204683E700001F
:101E80009C00002068A20020014908607047000003
:101E9000382C01400149086070470000382C01408F
:101EA0000149086070470000A08025420149086090
:101EB000704700008C85254200210B4B02681A6098
:101EC0001B1D42681A601A1D116821F0F701D0E944
:101ED00002231A4303691A4343691A431143024A0E
:101EE0000832116070470000242C014010B5012118
:101EF000C802FFF7A3FC00214FF40060FFF79EFC2F
:101F000010BD000001480068C0B27047102C0140AD
:101F100001460020034A12680A400AB1012000E08D
:101F200000207047342C014001460020034A12680B
:101F30000A400AB1012000E000207047342C014023
:101F40000248006800F0030070470000002C0140C8
:101F500008B501460020009002480844009000980F
:101F6000006808BD142C014010B500F00DFD10BD37
:101F700029B1064A12680243044B1A6004E0034A7E
:101F800012688243014B1A60704700003C2C0140EC
:101F900000210A4A116847F6FF629143027D836877
:101FA0001A4343681A43C3681A4303681A43036910
:101FB0001A431143014A116070470000042C01408C
:101FC0000148006870470000802C01400021094B47
:101FD00002681A601A1D11686FF30A01D0E9012323
:101FE0001A43C3681A4303691A431143014A121D75
:101FF00011607047082C01400149086070470000DB
:10200000002C014008B5012000909DF8000008BD9B
:1020100070B50446002520480068032802D1272512
:10202000284670BD1C48006838B11B48006801286C
:1020300003D01948006802282CD1B4F5805F02D182
:1020400027252846EDE7B4F5006F13D10120FFF7EF
:102050008DFE0546F5B900201049087508604860F6
:1020600088604FF40060C860002008610846FFF7F0
:102070008FFF0FE00020FFF779FE054655B90020DD
:1020800006490875086048608860C86008610846AD
:10209000FFF77EFF2846C4E79800002050A20020EA
:1020A000F0B5014600200022C04B1B7881F8563065
:1020B000BF4B1B88A1F85430BE4B1B681A0E930906
:1020C0000B70C2F383034B7002F003038B70B94BA8
:1020D0001B68C3F30742CA70B64B1B88C3F30722C1
:1020E0000A71B44B1A784A715B681A0E1301CB80DF
:1020F000B04B5B68C3F30742CB8843EA1213CB8033
:1021000002F00F030B72AB4B9B88C3F30722D3097A
:102110004B72C2F380138B72C2F34013CB72C2F3C3
:1021200000130B7300234B73A04B1B681BB19F4B19
:102130001B68012B4FD193071B0D0B619D4B1A7927
:102140000B6943EA82030B619A4B9B681A0E0B6979
:1021500043EA92130B61C2F3C2030B7502F007034B
:102160004B75944B9B68C3F3074253098B75C2F3BD
:102170008203CB7593075B0F0B768E4B1B89C3F3E2
:1021800007220B7E43EAD2130B760B695B1C0024FB
:10219000C1E912340B7ED1E912469B1C012505FAD8
:1021A00003F3DF17A4FB035C06FB03C304FB073345
:1021B000C1E912530C7A0123A3400B650027D1E932
:1021C00012560B6DA5FB034C06FB03C305FB07333F
:1021D000C1E9124336E0754B1B68022B32D1754BB7
:1021E0001A7993069B0A0B61724B9B681A0E0B6956
:1021F00043EA02230B616F4B9B68C3F307420B69F1
:1022000013430B616B4B1B89C3F307220B6900243B
:102210005B1C44EB04074FF400760025A3FB064C3F
:1022200007FB06C603FB05664FF480650027A4FB89
:10223000053C06FB05C504FB0754C1E912344FF405
:1022400000730B65C2F3801301F8193F93065B0E10
:102250004B70584B1A7A4B7843EAD2134B7002F00A
:102260007F038B70534BDB681A0ED309CB70C2F31C
:1022700041130B71C2F382034B7193071B0F8B71D8
:102280004C4BDB68C3F307428B7943EA92138B71A3
:10229000C2F34013CB7100230B7202F001034B72A7
:1022A000444B9B89C3F30722D3098B72C2F380137B
:1022B000CB72C2F340130B73C2F300134B73C2F320
:1022C00081038B7302F00303CB733A4B1A7B5308E1
:1022D0000B7401234B74384B1B681A0ECA741939DE
:1022E000354B1B68C3F307421402CC85324B1B8865
:1022F000C3F30722CB8D1343CB852F4B1A781406DB
:102300000C635B681A0E0B6B43EA02440C632A4BA6
:102310005B68C3F307420B6B43EA02240C63264B52
:102320009B88C3F307220B6B13430B63224B1A7971
:1023300034235A54204B9B681A0E35235A541E4B93
:102340009B68C3F3074214068C631B4B1B89C3F3C2
:1023500007228B6B43EA02448C63174B1A7A8B6B10
:1023600043EA02248C63144BDB681A0E8B6B134315
:102370008B63114BDB68C3F307423C235B5C43EA8E
:1023800012143C235C5413071C0DCC870A4B9B8909
:10239000C3F30722CB8F1343CB87074B1A7B540819
:1023A00040235C54012441235C54F0BD980000207C
:1023B0009C000020C8A10020D8A1002008B5002062
:1023C0000090FFF71FFE012809D1684600F0CAFB04
:1023D00008B1FF2008BD0098C0F34320FAE7FF20B2
:1023E000F8E710B50424FFF7E9FF0446042C01D1F7
:1023F000002010BDFF2C01D10220FAE70120F8E7F0
:102400001CB5002001904FF4C060FFF7CBF93120DC
:102410008DF8000001208DF8010000208DF80200E9
:1024200001208DF803006846FFF780F93B208DF806
:10243000000001208DF801006846FFF777F900F0F1
:102440006DF9FFF753FD00F0BBF901909DF8040012
:1024500010B19DF804001CBD00F032F801909DF809
:10246000040010B19DF80400F5E70020124908753A
:10247000086048608860C86008610846FFF788FD0A
:102480000E48FFF70DFE01909DF8040040B90B487F
:10249000B0F8540002041046002100F047FB019000
:1024A0009DF8040020B94FF40060FFF7B1FD0190E2
:1024B0009DF80400CFE7000050A20020F8A1002002
:1024C00038B5002401200090FFF73AFD10B925240B
:1024D000204638BD44480068042828D000204349DD
:1024E000086002204860C02088600020C8604FF467
:1024F000806008610846FFF769FDFDF7F7FF0446B5
:102500000CB12046E5E70020FFF722FD38490860BE
:102510000420FFF71DFD364948600820FFF718FD2D
:10252000334988600C20FFF713FD3149C8602E48FD
:10253000006858B12C480068012807D02A48006874
:10254000062803D028480068022816D10020274911
:10255000086003204860402088600020C8604FF475
:10256000806008610846FFF731FD69460320FDF7EA
:10257000FFFF04460CB12046ABE71B480068042867
:102580002ED0BDF800001B490860BDF80000000413
:102590001649086009204860C02088600020C86093
:1025A0004FF4806008610846FFF710FDFDF79EFFBD
:1025B00004460CB120468CE70020FFF7C9FC0E4909
:1025C00008600420FFF7C4FC0B4948600820FFF7AF
:1025D000BFFC094988600C20FFF7BAFC0649C860B7
:1025E0000024204675E700009800002068A2002023
:1025F000D8A100209C000020C8A1002030B58FB0D9
:1026000004460D464FF0FA511E48FEF755F80021DA
:102610001C48FEF785F81B48FEF78EF84FF0006067
:10262000009019480190029400200390012004902A
:10263000002005904FF48060069080000790800095
:102640000890002009904FF440300A9004200B902D
:1026500003200C904FF400000D9080100E906946FE
:102660000848FEF791F9012210210648FEF76EF99D
:1026700020210448FEF723F901210248FEF750F813
:102680000FB030BD58640240802C014030B58FB08F
:1026900004460D464FF0FA511E48FEF70DF8002192
:1026A0001C48FEF73DF81B48FEF746F84FF0006067
:1026B000009019480190029440200390012004905A
:1026C000002005904FF48060069080000790800005
:1026D0000890002009904FF440300A9004200B909D
:1026E00003200C904FF400000D9080100E9069466E
:1026F0000848FEF749F9012210210648FEF726F99D
:1027000020210448FEF7DBF801210248FEF708F813
:102710000FB030BD58640240802C01401CB501212F
:102720000C20FFF74BF80C2208212348FEF792FB00
:102730000C2209212048FEF78DFB0C220A211E489D
:10274000FEF788FB0C220B211B48FEF783FB0C22B3
:1027500011461948FEF77EFB0C2202211748FEF7AE
:1027600079FB4FF47060009002208DF805008DF821
:10277000040000208DF8060001208DF8070069464E
:102780000D48FEF71FFB0420009069460B48FEF73A
:1027900019FB4FF48050009000208DF80700694627
:1027A0000548FEF70FFB0121C802FFF737F80121AA
:1027B0008805FFF703F81CBD00080240000C02402A
:1027C000F8B5002000900025002400260027762080
:1027D0005F4908750020086048608860C86008612B
:1027E0000846FFF7D5FB0320FFF706FC0120FFF7A3
:1027F00057FB00205749086048608860C8604FF464
:10280000806008610846FFF7E1FBFDF7BFFD00901F
:102810009DF8000010B19DF80000F8BD4FF4D57090
:102820004C49086008204860402088600020C8604B
:102830004FF4806008610846FFF7C8FBFDF7E6FE2D
:1028400000909DF8000020B90120434908608707E7
:1028500012E000203F49086037204860402088602F
:102860000020C8604FF4806008610846FFF7AEFBA7
:102870003720FDF7A1FD0090002036490860372081
:102880004860402088600020C8604FF48060086184
:102890000846FFF79BFB3720FDF78EFD00909DF863
:1028A0000000002851D13BE000202A490860372071
:1028B0004860402088600020C8604FF48060086154
:1028C0000846FFF783FB3720FDF776FD00909DF863
:1028D000000010B19DF800009FE7204838431D49D3
:1028E000086029204860402088600020C8604FF4BC
:1028F000806008610846FFF769FBFDF71DFE009048
:102900009DF8000010B19DF8000086E70020FFF759
:102910001FFB0546012080EAD57080F00106641C8B
:102920001EB94FF6FF708442BED34FF6FF7084424B
:1029300004D31B2000909DF800006EE705F0804056
:10294000050002D00220044908609DF8000064E7F9
:1029500050A2002068A200209800002000001080F3
:1029600010B50748006800F0C05040B1012005498B
:1029700008604FF0C25102485830FDF79DFE10BD6F
:1029800000640240AC00002010B54FF48070FFF7E7
:10299000CBFA50B10020254908704FF48070FFF742
:1029A00079FA01202249086037E00220FFF7BCFADB
:1029B00030B10220FFF76EFA02201C4908702CE0AB
:1029C0000820FFF7B1FA30B10820FFF763FA0420BE
:1029D0001649087021E02020FFF7A6FA30B1202028
:1029E000FFF758FA06201149087016E01020FFF78B
:1029F0009BFA30B11020FFF74DFA05200B49087003
:102A00000BE04FF40070FFF78FFA30B14FF4007015
:102A1000FFF740FA07200549087000214CF23A30D0
:102A2000FFF7A6FA0148007810BD0000A4000020BE
:102A3000A80000202DE9F047814614461D46DDE937
:102A400008680027002032490870324908600120D8
:102A500031490860002031490860012140F22A30E4
:102A6000FFF786FA08FB06F14846FFF7C7FD01208D
:102A7000FFF71CFA2A480068022808D10602020261
:102A8000002320462946FDF79BFB04460D462548BA
:102A90000660102023494860402088600020C860FC
:102AA0004FF4806008610846FFF790FA1020FDF7A8
:102AB00083FC074617B13846BDE8F0874FF0FF307A
:102AC0001949086008FB06F04860902088600220E1
:102AD000C86000200861012048610846FFF7ECF952
:102AE0001048046012200F49486040208860002090
:102AF000C8604FF4806008610846FFF767FA12204B
:102B0000FDF75AFC07460FB13846D5E73846D3E7FC
:102B1000A4000020A8000020A00000202C2C0140D0
:102B20009800002068A200207CA2002070B5044616
:102B30000D4600260A4804600720094948604020E5
:102B400088600020C8604FF4806008610846FFF785
:102B50003DFA0720FDF730FC0646304670BD000008
:102B600068A2002070B50446002514B92625284621
:102B700070BD0F48008800040E4908600D204860B1
:102B8000402088600020C8604FF4806008610846DB
:102B9000FFF71CFA0D20FDF70FFC05460DB1284686
:102BA000E6E70020FFF7D4F920602846E0E70000C0
:102BB0009C00002068A2002010B5002400200A49D3
:102BC00008600C204860402088600020C8604FF4F6
:102BD000806008610846FFF7F9F90C20FDF7ECFB6F
:102BE0000446204610BD000068A2002070B50025F4
:102BF0006C1E00E0641E1848006838B91748006869
:102C000020B91748007808B9002CF3D100201249E8
:102C10000860441E00E0641E1248006800F4005082
:102C200008B1002CF7D110480068012805D1FFF742
:102C3000C3FF054600200C4908600CB905B90425FE
:102C400040F2FF50FFF720F90548007810B1044822
:102C5000007870BD2846FCE7AC000020A8000020EA
:102C6000A4000020342C0140A000002070B50025F5
:102C70006C1E00E0641E1848006838B917480068E8
:102C800020B91748007808B9002CF3D10020124968
:102C90000860441E00E0641E1248006800F4805082
:102CA00008B1002CF7D110480068012805D1FFF7C2
:102CB00083FF054600200C4908600CB905B90425BE
:102CC00040F2FF50FFF7E0F80548007810B10448E3
:102CD000007870BD2846FCE7AC000020A80000206A
:102CE000A4000020342C0140A00000202DE9F04772
:102CF000814615461E46DDE9087800240020494932
:102D00000870494908600120484908600020484986
:102D10000860012140F21A30FFF72AF908FB07F199
:102D20004846FFF7B3FC0120FFF7C0F841480068B0
:102D3000022808D107020202002328463146FDF787
:102D40003FFA05460E463C48076010203A49486065
:102D5000402088600020C8604FF480600861084609
:102D6000FFF734F91020FDF727FB044614B1204685
:102D7000BDE8F0873148008800042F4908603720FB
:102D80004860402088600020C8604FF4806008617F
:102D90000846FFF71BF93720FDF70EFB04460CB180
:102DA0002046E5E72448C0F8008017202249486003
:102DB000402088600020C8604FF4806008610846A9
:102DC000FFF704F91720FDF7F7FA04460CB1204687
:102DD000CEE71948056019201749486040208860EF
:102DE0000020C8604FF4806008610846FFF7EEF8E5
:102DF0001920FDF7E1FA04460CB12046B8E74FF080
:102E0000FF300F49086008FB07F048609020886099
:102E10000020C8600861012048610846FFF74CF8AF
:102E20002046A5E7A4000020A8000020A000002064
:102E30002C2C01409800002068A200209C0000205B
:102E40007CA200201AB183880B43838002E0838830
:102E50008B4383807047000010B5044624488442A9
:102E600008D101218014FEF7E9FC0021A014FEF72F
:102E7000E5FC3CE01F48844208D101210014FEF724
:102E8000BDFC00212014FEF7B9FC30E01A48844252
:102E900008D10121C013FEF7B1FC0021E013FEF7B9
:102EA000ADFC24E01548844208D101214014FEF70E
:102EB000C5FC00216014FEF7C1FC18E010488442F4
:102EC00009D101210805FEF7B9FC00214FF480105B
:102ED000FEF7B4FC0BE00B48844208D10121480501
:102EE000FEF7ACFC00214FF40010FEF7A7FC10BD6C
:102EF0000030014000380040003C004000340140F8
:102F00000050014000540140704700000CB5002003
:102F1000019000903448006840F4803032490860E5
:102F200000BF3148006800F4003000900198401C58
:102F30000190009818B90198B0F5A04FF1D12A4836
:102F4000006800F4003010B10120009001E0002082
:102F500000900098012846D123484030006840F096
:102F600080502149403108602048006840F44040CA
:102F70001E4908601C48083000681B490831086079
:102F80000846006840F4004008600846006840F4C5
:102F9000A05008601648091F0860081F006840F02C
:102FA0008070091F086000BF0F48006800F00070C3
:102FB0000028F9D040F205700E4908600A48083030
:102FC000006820F0030008490831086008460068DE
:102FD00040F00200086000BF03480830006800F0BD
:102FE0000C000828F8D10CBD0038024000700040E9
:102FF00019544007003C024070B50446214649A0E0
:1030000000F09EFD012221464B4801F0CFFE4B49C6
:1030100008700846007868B10846017848A000F0BA
:103020008FFD454801F003FD4449087003204B49DA
:10303000087170BD4A4B2C224A493F4801F0B0FF4D
:103040003E490870464B4FF4804247493A4801F0E8
:10305000A7FF3A490870424B4FF480424349364833
:1030600001F09EFF354908704FF47A70FDF706FDB8
:10307000FEF7C8F903F0DCF9022038490871032192
:10308000102003F087F83549887803F01CFA1021E6
:10309000002003F059F8314B5B7803EB4303344DC8
:1030A00005EB83039A682D4B5B7803EB430305EB39
:1030B00083039B8899B2294B5B7803EB430335F874
:1030C000233098B2FEF7ACF9244B5B7803EB430353
:1030D00005EB83039A68214B5B7803EB430305EB15
:1030E00083039B8899B21D4B5B7803EB430335F850
:1030F000233098B2FEF736FA01221E49881EFEF7E9
:103100004FFA002210211C48FDF720FCFEF7B6FA0A
:103110004FF4005215491448FEF7C0F9FEF762F962
:1031200000BF86E7B5B1C7B0B2A5B7C5CEC4BCFE77
:10313000202D3E2025730A00A49100204800002085
:10314000B4F2BFAAD2F4C6B5CEC4BCFECAA7B0DCE6
:103150002121212D3E25640D0A0000003D000020A4
:103160004C00002078110020A4110020A451002060
:10317000500000200A6500085860024070B50446FF
:1031800021464AA000F0DCFC0A2221464C4801F00E
:103190000DFE4C4908700846007868B10846017871
:1031A00049A000F0CDFC464801F041FC45490870BB
:1031B00003204C49087170BD4B4B2C224B494048B1
:1031C00002F02EF83F4908704FF47A70FDF756FC74
:1031D000FEF718F903F02CF90120424908718878AC
:1031E00003F071F93F480078012808D10321242019
:1031F00002F0D0FF3B49C87803F038F907E003211B
:10320000222002F0C7FF3749C87803F04DF910219A
:10321000002002F099FF334B5B7803EB4303344DFE
:1032200005EB83039A682F4B5B7803EB430305EBB5
:1032300083039B8899B22B4B5B7803EB430335F8F0
:10324000233098B2FEF7ECF8264B5B7803EB430390
:1032500005EB83039A68234B5B7803EB430305EB91
:1032600083039B8899B21F4B5B7803EB430335F8CC
:10327000233098B2FEF776F901221E49881EFEF728
:103280000DF9002210211C48FDF760FB1B481C496A
:1032900008604FF400521B491B48FEF781F9FEF706
:1032A000A1F8FEF7E3F900BF85E70000B5B1C7B0AC
:1032B000C2BCD2F4CEC4BCFE202D3E2025730A0031
:1032C000A4910020480000204F70656E2077617641
:1032D00066696C65206661696C2121212D3E25643B
:1032E0000D0A00003D0000204C0000207811002055
:1032F000500000200A65000870600240351D00087B
:1033000030010020A4510020A411002010B500F0CD
:10331000F7FA10BD30B515480068154AB0FBF2F158
:10332000481EB0F1807F01D301201BE0481E4FF002
:10333000E022506150170F22002807DA13071D0EF4
:103340000C4B00F00F04241F1D5503E013071C0E47
:10335000094B1C5400BF00204FF0E0229061072071
:103360001061002008B100BFFEE730BD0000002062
:10337000A086010018ED00E000E400E010B515485B
:10338000006840F47000134908601348006840F07A
:1033900001001149086000200F49083108600E48FB
:1033A00000680E4908400C4908600D48091D086076
:1033B000081F006820F48020091F086000200649CB
:1033C0000C310860FFF7A2FD4FF000600149803921
:1033D000086010BD88ED00E000380240FFFFF6FEF7
:1033E00010300024F0B50C46154600210022068C52
:1033F0004FF6FE773E400684018B028C4FF60C762A
:1034000031407E1C06EA03162E4331434FF6F57613
:10341000324044F00106324301830284F0BDF0B52E
:103420000C461546002100220026078C4FF6EF7C43
:1034300007EA0C070784018B028C4FF6FF7707EA37
:10344000041640F6FF4739404FF6FF7707EA033787
:1034500039434FF6FF7707EA052739434FF65F7781
:103460003A4046F010073A4301830284F0BDF0B5BC
:103470000C461546002100220026078C4FF6FF6CF3
:1034800007EA0C070784818B028C4FF6FF7707EA67
:1034900004264FF60C7739404FF6FF7707EA0317FB
:1034A0002F4339434FF2FF573A4046F480773A436F
:1034B00081830284F0BDF0B50C4615460021002240
:1034C0000026078C4EF6FF7C07EA0C070784818BE9
:1034D000028C4FF6FF7707EA043640F6FF47394083
:1034E0004FF6FF7707EA052739434FF6FF7707EADC
:1034F0000337394345F6FF773A4046F480573A435D
:1035000081830284F0BDCA430282704721B10288E0
:1035100042F00102028004E002884FF6FE731A4076
:10352000028070470146486B70470146486A704701
:1035300002460020138A0B400BB1012000E000205E
:10354000704770B505460C46208850B92389A2887B
:1035500061882846FFF746FFE188284600F02AF8F0
:1035600025E0208804280AD12389A288618828467A
:10357000FFF755FFE188284600F025F817E020887E
:1035800008280AD12389A28861882846FFF76FFF9F
:10359000E188284600F024F809E02389A2886188A0
:1035A0002846FFF788FFE188284600F022F870BD22
:1035B00041627047028B4FF6F3731A400283028B0D
:1035C0000A4302837047028B4FF2FF331A40028393
:1035D000028B4FF6FF7303EA01231A4302837047FD
:1035E000828B4FF6F3731A408283828B0A43828365
:1035F0007047828B4FF2FF331A408283828B4FF6E3
:10360000FF7303EA01231A43828370470022028872
:10361000184B98420ED0184B98420BD0B0F1804F07
:1036200008D0164B984205D0154B984202D0154B46
:10363000984204D14FF68F731A404B881A43124BAD
:10364000984207D0114B984204D04FF6FF431A40DE
:103650000B891A4302804B68C3620B880385054BB4
:10366000984202D0044B984201D18B7A0386012301
:1036700083827047000001400004014000040040C4
:1036800000080040000C0040001000400014004002
:1036900030B589B005460C4601210846FEF79EF874
:1036A00001210846FEF78AF8012205211C48FDF792
:1036B000D1FB2020079002208DF8200003208DF8F8
:1036C000210000208DF822008DF8230007A914485E
:1036D000FDF778FB0595ADF810400020ADF8180017
:1036E000ADF8120004A94FF08040FFF78FFF0020D3
:1036F000ADF80400ADF806000120ADF80800002088
:10370000ADF80A00ADF80C0001A94FF08040FFF7BA
:1037100018FF01218807FFF7F9FE09B030BD00004E
:103720000000024070B506460024002505E000F0C8
:103730000BF80446AC4200DD25463000A6F101013D
:10374000CEB2F4D1284670BD10B500F06FF80DE090
:103750004FF08040FFF7E9FE4FF60B61884205D934
:103760004FF08040FFF7E1FE80B210BD0221480714
:10377000FFF7DEFE0028EBD04FF08040FFF7D2FECF
:1037800080B2F2E770B586B0002614214FF6FF70C4
:10379000FFF77EFF00240AE0FFF7D6FF01A921F81A
:1037A00014004FF47A70FDF769F9601CC4B20A2C5A
:1037B000F2DB00241BE0601CC5B214E001A830F865
:1037C000140001A931F8151088420ADD01A830F86B
:1037D000146030F8150001A921F8140001A820F8A0
:1037E0001560681CC5B20A2DE8DB601CC4B2092C48
:1037F000E1DB0026022405E001A830F814000644AD
:10380000601CC4B2082CF7DB0620B6FBF0F00649BA
:10381000088008460088B0F5004F02DB012006B0A2
:1038200070BD0020FBE70000340100201CB5202003
:10383000009001208DF8040003208DF80500002081
:103840008DF8060002208DF8070069461348FDF741
:10385000B9FA20211148FDF729FB4FF4FA70FDF762
:103860000DF903214FF08040FFF74DFE00214FF08E
:103870008040FFF79DFE2020009002208DF804007C
:1038800003208DF8050000208DF806008DF8070054
:1038900069460248FDF796FA1CBD00000000024090
:1038A0002DE9F0410546002603271DB1062700201B
:1038B000114908703846FFF735FF04460F48008865
:1038C000643084420DDD0D48008800EB800040002C
:1038D000A04206DD0848007800B901260320064909
:1038E00008700548007820B103480078401E02495E
:1038F00008703046BDE8F081360100203401002018
:103900000448006820B103480068401E014908606F
:1039100070470000B000002021B1828942F40052BB
:10392000828104E082894DF6FF731A4082817047DC
:1039300002460020B1F5007F00D100BF13880B4084
:103940000BB1012000E00020704700002DE9FF4787
:1039500005460E460024A14600BFA046B08900B12E
:1039600000BF2C8A24F44054F08804432C82AC8994
:1039700041F20C608443B08831890843718908435F
:103980000443AC81AC8A24F44074B0890443AC8213
:103990006846FDF763FF2048854202D01F488542F4
:1039A00002D1DDF80C9001E0DDF80890A88900F460
:1039B000004040B109EBC90000EB09103168490033
:1039C000B0FBF1F707E009EBC90000EB0910316823
:1039D0008900B0FBF1F76420B7FBF0F00401200987
:1039E000642101FB1078A88900F4004040B1322026
:1039F00000EBC800B0FBF1F000F00700044308E062
:103A0000322000EB08106421B0FBF1F000F00F0051
:103A100004432C81BDE8FF870010014000140140E1
:103A2000C1F308028280704700BFFEE710B502A014
:103A300000F086F8002010BD4932432054696D65BE
:103A40006F7574206572726F7221000070B5054643
:103A50000C4601213548FDF79BFA4FF4804034496C
:103A6000086008E032490868411E314A116010B907
:103A7000FFF7DCFF70BD2F492C48FDF733FA002813
:103A8000F0D0002234212948FDF752FB4FF480404A
:103A90002749086008E026490868411E244A116049
:103AA00010B9FFF7C3FFE5E723492048FDF71AFAED
:103AB0000028F0D0FE2000EA4500C4F3002240EACE
:103AC00002011A48FDF73CFB4FF48040184908609A
:103AD00008E017490868411E154A116010B9FFF740
:103AE000A5FFC7E71449891E1048FDF7FBF9002818
:103AF000EFD0E1B20D48FDF723FB4FF420300C4925
:103B0000086007E00A490868411E094A116008B9BF
:103B1000FFF78CFF09490548FDF752FA0028F1D05C
:103B200001210248FDF740FA0120A3E700540040BC
:103B3000B400002001000300820007000400001010
:103B40000FB4054B10B503A9044A029800F02CF8F5
:103B500010BC5DF814FB0000ED5900084401002082
:103B60000FB4084B10B504A902AA039800F01CF882
:103B7000044602A9002000F0B8F9204610BC5DF808
:103B800014FB0000EB3E000802E008C8121F08C149
:103B9000002AFAD170477047002001E001C1121FCE
:103BA000002AFBD1704700002DE9FF4F8BB08846FB
:103BB0000546002606E025280BD0DDE90D129047CA
:103BC0006D1C761C28780028F5D10FB03046BDE872
:103BD000F08F0024A146A2460122AE4900E0044332
:103BE00015F8013F203B02FA03F00842F7D128788C
:103BF0002A2810D06FF02F022878A0F1300109296F
:103C000015D809EB890102EB410144F0020400EBF5
:103C100001096D1CF0E758F8041B5FEA010903D5A0
:103C200044F40054C9F1000944F002046D1C2878E2
:103C30002E2817D115F8010F44F004042A280ED0BD
:103C40006FF02F022878A0F1300109290AD80AEB79
:103C50008A0102EB410100EB010A6D1CF2E758F802
:103C600004AB6D1C28786C280FD006DC4C2817D0CC
:103C700068280DD06A2814D104E0742810D07A285E
:103C80000FD10DE044F400140AE044F4801401E084
:103C900044F440146978814202D104F580146D1C0B
:103CA0006D1C2878692865D006DC00288DD0632833
:103CB00027D0642806D15DE06E2808D073282AD06A
:103CC000752877D0DDE90D129047761CE0E0C4F34B
:103CD0000250022809D003280DD0D8F8001004287B
:103CE0000DD00E6008F10408D2E0D8F80010F217E9
:103CF000C1E90062F6E7D8F800100E80F2E70E7016
:103D0000F0E718F8041B8DF8001000208DF8010072
:103D1000EB46012003E058F804BB4FF0FF30610789
:103D20004FF0000701D40AE07F1C57450DDA8742A7
:103D3000FADB1BF807100029F6D106E07F1C87424A
:103D4000FCDB1BF807100029F8D1DDE90D23A9EBF6
:103D500007008146214600F0B1F83044C61904E05E
:103D6000DDE90D121BF8010B90477F1EF8D22146AA
:103D7000484688E058F8040BC4F302514FF00A0B90
:103D8000032900D100B2042900D140B2002802DA90
:103D900040422D2102E0210505D52B218DF824106C
:103DA000012104E006E0E10710D02021F6E708AF8A
:103DB000089113E058F8040BC4F302514FF00A0BBA
:103DC000032900D180B2042900D1C0B20021EEE75E
:103DD0005946FCF746FA303107F8011D0028F7D1A3
:103DE000ADEB070000F1200B600702D524F480340E
:103DF00001E04FF0010ADA4502DDAAEB0B0000E01A
:103E00000020824600EB0B0108980144A9EB010059
:103E10000A90E00306D4DDE90D2321460A9800F05C
:103E20004DF806444FF0000908E009A911F809000F
:103E3000DDE90D12904709F10109761C08998945C1
:103E4000F3DBE0030CD5DDE90D2321460A9800F0F1
:103E500035F8064404E0DDE90D1230209047761C69
:103E6000BAF10001AAF1010AF5DC05E0DDE90D1265
:103E700017F8010B9047761CBBF10001ABF1010B69
:103E8000F4DC0A982146DDE90D2300F005F806442C
:103E90006D1C97E6092801002DE9F0410446002534
:103EA0001E461746880404D405E039462020B04752
:103EB0006D1C641EF9D52846BDE8F0812DE9F0415E
:103EC000044600251E469046C80301D5302700E071
:103ED0002027880404D505E041463846B0476D1CCC
:103EE000641EF9D52846BDE8F0810A68531C0B60B2
:103EF0001070704770B504460D4600202071401EBA
:103F0000E0622946204601F04DFF08B1032070BD54
:103F100094F82E1294F82F0241EA00204AF6552117
:103F2000884201D00220F2E794F86900010694F873
:103F3000680041EA004194F8670041EA002094F8E3
:103F40006610084320F07F400D49884201D10020CF
:103F5000DDE794F88500010694F8840041EA004109
:103F600094F8830041EA002094F88210084320F07E
:103F70007F400349884201D10020C8E70120C6E7FD
:103F800046415400024600E0521C107810B11078EF
:103F90008842F9D1107870470246891E5069801E08
:103FA000884201D8002070479378906A01FB030093
:103FB000F9E700002DE9F04780460C46A17EE07E3F
:103FC00041EA002010B10020BDE8F087207800F021
:103FD0003F00401E00EB800101EBC0064FF00109DD
:103FE000002524E01A48405D205C1949495D2144C0
:103FF000497840EA0127B9F1000F11D0FF2E0BD20A
:10400000384601F051FA82463146761C38F81100E4
:1040100001F04AFA824501D00020D5E7B94605E013
:104020004FF6FF70874201D00020CDE76D1C0D2DAB
:10403000D8D3207800F0400038B1B9F1000F04D097
:1040400038F8160008B10020BEE70120BCE70000E8
:10405000846500082DE9F04704468946B9F1000F50
:1040600006D1E76817B16069B84215D8012713E097
:104070004946204601F032FD0646022E02D20120BA
:10408000BDE8F087701C08B93046F9E76069B042B6
:1040900001D93046F4E74F463D4600BF6D1C6069CC
:1040A000A84204D80225BD4201D90020E8E72946EC
:1040B000204601F013FD064606B909E0701C08B160
:1040C000012E01D13046DBE7BD42E7D10020D7E722
:1040D00000BF6FF070422946204601F07DFE804609
:1040E000B8F1000F08D1B9F1000F05D02A464946B2
:1040F000204601F071FE8046B8F1000F0BD1E5605B
:104100002069401C78B12069401E2061607940F030
:104110000100607107E0B8F1010F02D14FF0FF30EC
:1041200000E0012005462846AAE700002DE9F34FEC
:1041300083B0814604980068019002E00198401C19
:104140000190019800782F28F8D0019800785C2819
:10415000F4D0D9F81CA000252F4600BF38467F1C9C
:1041600001990C5C202C03DB2F2C01D05C2C00D19E
:1041700032E0FF2D03D3062005B0BDE8F08FE4B296
:10418000812C13DBE0B2FE2810DC38467F1C01993D
:104190000E5C06EB042084B2402E01DB7E2E05DD92
:1041A000802E01DBFE2E01DD0620E5E70121204601
:1041B00001F03CF904460CB90620DDE7802C06DA54
:1041C000214671A0FFF7DEFE08B10620D4E728469D
:1041D0006D1C2AF81040C1E700BF0198C11904986E
:1041E0000160202C01DA042000E00020804608E075
:1041F000681E3AF81040202C02D02E2C00D002E08D
:104200006D1E002DF4D100BF0DB90620B4E70020CB
:104210002AF815000B222021D9F8180001F0B8FD6A
:10422000002700E07F1C3AF817002028FAD03AF85F
:1042300017002E28F6D00FB148F0030800E06D1EDD
:1042400025B1681E3AF810002E28F8D10020064645
:1042500002904FF0080B00BF38467F1C3AF8104020
:1042600004B963E0202C03D02E2C04D1AF4202D03D
:1042700048F00308F0E70298584501D2AF4214D144
:10428000BBF10B0F02D148F003084FE0AF4201D061
:1042900048F00308AF4200D948E02F4608200290BA
:1042A0004FF00B0BB006060ED6E7802C09DB20463C
:1042B00001F0FAF80021009001F0B8F8044648F047
:1042C0000208FF2C11DDABF101000299884204D8ED
:1042D00048F00308CDF808B0BEE72212D9F818302C
:1042E0000298411C02911A5419E024B1214629A0D8
:1042F000FFF748FE18B15F2448F003080FE0412C97
:1043000004DB5A2C02DC46F0020608E0612C06DBD6
:104310007A2C04DC46F00106A4F1200084B2D9F81E
:1043200018300298411C02911C5495E700BFD9F83F
:1043300018000078E52803D10520D9F81810087076
:10434000BBF1080F01D1B006060E06F00C000C28D8
:1043500003D006F00300032801D148F0020808F05A
:10436000020058B906F00300012801D148F01008F6
:1043700006F00C00042801D148F00808D9F818000C
:1043800080F80B800020F7E6222A3A3C3E3F7C7FF3
:10439000000000002B2C3B3D5B5D00002DE9F0414F
:1043A00004460E460021204600F0CDF90546EDB941
:1043B000002700BF2169206801F0F4FC054605B123
:1043C00013E060690078E52802D06069007820B9C0
:1043D000781C0746B04201D107E0002701212046A2
:1043E00000F07FF80546002DE4D000BF042D00D179
:1043F00007252846BDE8F0812DE9F0470446002155
:10440000204600F0A0F9074617B13846BDE8F0870E
:104410004FF0FF09CA464FF6FF70208400BF2169A4
:10442000206801F0BFFC074607B157E065692E78A8
:104430000EB9042752E0E87A00F03F08E52E05D0D7
:1044400008F0080040B1B8F10F0F05D04FF0FF0998
:104450004FF6FF7020843AE0B8F10F0F1CD1E069ED
:1044600078B306F0400030B195F80DA026F0400674
:10447000B146E08820844E450AD1687B504507D17B
:104480002946E069FFF796FD10B1A9F1010000E0AF
:10449000FF2000F0FF091AE0B9F1000F05D128460E
:1044A00001F09CFD504500D118E0A069C07A00F0F1
:1044B000010038B90B222846A16901F049FC08B96E
:1044C0000CE004E04FF0FF094FF6FF70208400215C
:1044D000204600F006F80746002FA0D000BF38465F
:1044E00094E72DE9F04104468846E088461CB0B2C6
:1044F00008B1206910B90420BDE8F081216848891D
:10450000C11700EBD1614911B6FBF1F201FB126159
:10451000002971D12069401C2061E06828B9206819
:104520000089B04268D80420E6E721684889C117AD
:1045300000EBD1614911B6FBF1F122689278521E6D
:104540001140002958D1E168206801F0C7FA0546FA
:10455000012D01D80220CFE7681C08B90120CBE764
:1045600020684069A84241D8B8F1000F01D1042069
:10457000C2E7E1682068FFF76DFD05460DB9072029
:10458000BAE7012D01D10220B6E7681C08B9012065
:10459000B2E7206801F096FD08B10120ACE7216880
:1045A0004A8901F13000002101F0F2FB2946206820
:1045B000FFF7F2FC2168C86200270EE001202168A5
:1045C0000871206801F07EFD08B1012094E72068A1
:1045D000C06A401C2168C8627F1C20688078B8428D
:1045E000ECD82068C06AC01B2168C862E560294613
:1045F0002068FFF7D1FC2061E68021684889C11757
:1046000000EBD1614911B6FBF1F201FB12612268A6
:10461000303202EB4111616100206DE72DE9FE4F60
:104620000446D4F81880D4F81C900C224146684601
:1046300001F0A1FB00BF9DF80B0000F0010020B3CA
:10464000002088F80B00E06101260CE033464A4662
:104650006946404601F0DCF92046FFF7CDFE0546ED
:1046600005B102E0761C642EF0D300BF642E02D1A7
:104670000720BDE8FE8F042D01D02846F9E79DF8FC
:104680000B0088F80B00C4F81C909DF80B0000F09C
:10469000020060B1002600E0761C39F81600002800
:1046A000FAD106F119000D21B0FBF1F700E0012766
:1046B00039462046FFF772FE054645BB781E0700C7
:1046C00025D0E088C11B204600F03DF80546F5B92D
:1046D000A06901F083FC824600BF2169206801F0D7
:1046E00061FB054605B111E0FAB253466169E06924
:1046F00001F0F4F801202168087100212046FFF73D
:10470000F0FE054615B9781E0700E6D100BFC5B911
:104710002169206801F046FB054695B92022002159
:10472000606901F035FB0B22D4E9050101F023FBA0
:10473000A069C07A00F0180061690873012021683F
:104740000871284695E72DE9F04104460E46E680BB
:10475000A568012D03D020684069A84202D8022034
:10476000BDE8F0812DB920680078032801D12068C8
:10477000456A45B920680089B04201D80220EFE7B8
:104780002068476A24E021684889C11700EBD1619D
:1047900049112268927811FB02F812E0294620683C
:1047A00001F09CF90546681C08B90120D8E7022DE4
:1047B00003D320684069A84201D80220D0E7A6EBC5
:1047C00008064645EAD229462068FFF7E5FB07467A
:1047D000E5600FB90220C3E721684889C11700EBE3
:1047E000D1614911B6FBF1F1394421612168488951
:1047F000C11700EBD1614911B6FBF1F201FB126167
:104800002268303202EB411161610020A8E770B5E7
:104810000446012514B1012C09D107E0FDF7F0FD94
:1048200010B925F0010500E0012502E001E00125B5
:1048300000BF00BF284670BD2DE9F04705460E4673
:1048400014464FF0040915B1012D21D11FE0CEB15E
:10485000012E0BD0022E02D0032E14D103E04FF410
:10486000007020800FE0012020600CE00C48D0F8A0
:1048700050C062460023D0E912713846FBF7A0FC15
:10488000206000E000BF00BF4FF0000903E002E03D
:104890004FF0040900BF00BF4846BDE8F0870000A4
:1048A000F8A100202DE9F047ADF5007D07460C4644
:1048B00015461E464FF0040A4FF0000817B1012FAD
:1048C00044D142E004F0030000B34FF0000913E0CC
:1048D0002A466D1C012369460020FFF7E3FF81464D
:1048E000B9F1000F00D00BE04FF40072694620468A
:1048F000FBF797FC04F500743000A6F10106E7D140
:1049000000BF48460DF5007DBDE8F0874FF400700C
:1049100069020A460023CDE900062046FEF78AF820
:104920008046B8F1000F07D1FEF760F9804600BF5E
:10493000FDF757FD0028FBD1B8F1000F02D04FF072
:10494000040A01E04FF0000A03E002E04FF0040A1D
:1049500000BF00BF5046D5E70146012011B1012933
:1049600004D102E020F0010002E001E0012000BFDC
:1049700000BF70472DE9F047ADF5007D07460C46B6
:1049800016461D464FF0040A4FF0000825B90420D2
:104990000DF5007DBDE8F08717B1012F41D13FE053
:1049A00004F00300E8B14FF0000913E04FF4007287
:1049B00021466846FBF735FC3246761C01236946E2
:1049C0000020FFF7D7FF8146B9F1000F00D005E0C6
:1049D00004F500742800A5F10105E7D100BF4846A1
:1049E000D6E74FF4007071020A460023CDE90005B6
:1049F0002046FEF77BF98046B8F1000F07D1FEF79D
:104A000035F9804600BFFDF7ECFC0028FBD1B8F17A
:104A1000000F02D04FF0040A01E04FF0000A03E05B
:104A200002E04FF0040A00BF00BF5046B0E770B587
:104A30000546284600F09CFB044634B9284601F0A0
:104A40006AFB04460CB900202860204670BD2DE9A1
:104A5000F04704460E46204601F05DFB8246BAF15F
:104A6000000F02D05046BDE8F087E07908B1E07948
:104A7000F9E7E068B04204D2A07900F0020000B982
:104A8000E668D4F808904FF00008C4F80880002EBB
:104A900071D0206880782168498900FB01F7B9F15D
:104AA000000F11D0701EB0FBF7F1A9F10100B0FBAF
:104AB000F7F0814208D3A9F10100791E8843A06074
:104AC000A068361A656912E025697DB90021206861
:104AD000FFF7C0FA0546012D02D10220E071C2E7BE
:104AE000681C10B90120E071BDE725616561002DEA
:104AF00041D023E0A07900F0020038B129462068B7
:104B0000FFF7A8FA054635B93E4619E02946206860
:104B100000F0E4FF0546681C10B90120E071A2E72F
:104B2000012D03D920684069A84202D80220E07113
:104B300099E76561A0683844A060F61BBE42D9D8E9
:104B400000BFA0683044A06020684089B6FBF0F147
:104B500000FB116078B129462068FFF71DFA8046F6
:104B6000B8F1000F02D10220E0717CE72068408993
:104B7000B6FBF0F0804421684989A068B0FBF1F2EF
:104B800001FB120020B3A069404521D0A07900F0BC
:104B9000400078B121684878012304F12401A2691A
:104BA000FFF7E8FE10B10120E0715CE7A07920F08A
:104BB0004000A071216848780123424604F1240195
:104BC000FFF770FE10B10120E0714CE7C4F81880C7
:104BD000D4E90201884205D9A068E060A07940F0DC
:104BE0002000A07150463EE72DE9F147ADF50D7D5F
:104BF00001F014F8064601228DA984A800F082FC79
:104C00000546002D6FD181A88A9001A88B9084A8B9
:104C10008D9900F0A3FE054605B9082500BF042DB7
:104C2000F0D100218498FFF715FA0746002507B94F
:104C30000725012F00D10225781C00B901251DB9D7
:104C4000849801F03FFA0546002D5BD139468498DF
:104C5000FFF7A2F98146849800F1300484984289D4
:104C60000021204601F094F80B222021204601F07B
:104C70008FF82E2020701020E072A675310AE175A1
:104C8000310C2176310E61763946204601F09EF9CD
:104C90002022214604F1200001F06DF82E2084F836
:104CA0002100DDF818A284980078032804D18498A4
:104CB000406A504500D1AA46514604F1200001F057
:104CC00085F9849890F8028018E08498C0F82C90B8
:104CD00009F10109012084990871849801F0F2F921
:104CE00005460DB10DE02DE0849842890021204653
:104CF00001F04EF8A8F1010000F0FF08B8F1000F34
:104D0000E3D100BF1DB984A8FFF788FC054625B193
:104D10003946849801F024F914E0899C1020E0724F
:104D2000A675310AE175310C2176310E617639466E
:104D3000204601F04BF9012084990871849801F014
:104D40005DF9054628460DF50E7DBDE8F0870000AB
:104D5000F7B582B016460398019001A800F062FFF3
:104D60000546002D02DA0B2005B0F0BD0E4850F8C4
:104D700025400CB100202070029810B1002002994B
:104D800008700949029841F82500029808B1012EDF
:104D900001D00020E8E7002203A902A800F0B2FB3E
:104DA00007463846E0E70000380100202DE9F743C8
:104DB000ADF50C7D0546164625B909200DF50F7D8C
:104DC000BDE8F0830020286006F01F0626F00102EF
:104DD0008DA983A800F096FB0746002F74D180A808
:104DE0008990CDF828D283A88D9900F0B7FD0746A9
:104DF000889C0FB904B9062706F01C0000285CD077
:104E00004FB1042F03D183A8FFF708FC074646F0F3
:104E10000806889C09E0E07A00F0110008B1072735
:104E200003E006F0040000B10827002F55D106F07A
:104E30000800002851D000F0F1FE804684F80E8072
:104E40004FEA1821E1734FEA184121744FEA1861C3
:104E5000617484F816804FEA1821E1754FEA184111
:104E600021764FEA186161760020E07220770021F8
:104E70006177A177E1772146839800F0F8FE8146BB
:104E80000021204601F0A2F8012083990871B9F1B0
:104E9000000F22D08398D0F82C804946839801F0E7
:104EA0005FF80746CFB9A9F101008399C860414670
:104EB000839800F077FF07460FE077B9E07A00F0BB
:104EC000100010B1042708E02DE006F0020020B128
:104ED000E07A00F0010000B1072747B906F00800AA
:104EE00008B146F020068398C06AE8612C62D7B901
:104EF000AE710020E8712146839800F0B8FE286169
:104F0000E07F0106A07F41EA0041607F41EA002086
:104F1000217F0843E8600020A860A861839828608A
:104F20002868C088A880384648E733B5ADF5057DC8
:104F300004461CB909200DF5077D30BD002286A965
:104F400084A800F0DFFA05462DBB8498206081A874
:104F5000A06101A8E0612046869900F0FFFC0546AB
:104F6000B5B9606958B16069C07A00F0100028B125
:104F70006169849800F07BFEA06000E005253DB9E2
:104F80008498C088A08000212046FFF7DCFB0546FE
:104F9000042D00D105250DB1002020602846CAE768
:104FA0002DE9FF4F85B0044615469A46DDF818B046
:104FB0000020CAF80000204601F0ADF804900498E3
:104FC00018B1049809B0BDE8F08FE07908B1E07934
:104FD000F8E7A07900F0010008B90720F2E7D4E96A
:104FE0000210401A02900298854200D9029DBAE050
:104FF00021684989A068B0FBF1F201FB120000288A
:1050000077D121684989A068B0FBF1F021688978DF
:10501000491E084000F0FF09B9F1000F17D1A06840
:1050200010B92069039004E06169206800F056FD22
:1050300003900398022802D20220E071C2E703988D
:10504000401C10B90120E071BCE703986061616900
:105050002068FEF7A1FF064616B90220E071B1E70D
:105060004E4420684089B5FBF0F8B8F1000F2DD010
:1050700009EB080021688978884203D92068807884
:10508000A0EB090821684878434632465946FFF7A5
:1050900009FC10B10120E07194E7A07900F0400014
:1050A00078B1A069801B40450BD2A169891B236898
:1050B0005B8901FB03B021684A8904F1240100F0F7
:1050C0005AFE2068408900FB08F742E0A069B04220
:1050D00020D0A07900F0400080B1216848780123F9
:1050E00004F12401A269FFF745FC18B10120E07129
:1050F00068E710E0A07920F04000A07121684878AE
:105100000123324604F12401FFF7CCFB10B101204A
:10511000E07157E7A66121684989A068B0FBF1F208
:1051200001FB1200216849890F1AAF4200D92F46AE
:1051300021684989A068B0FBF1F201FB120104F17A
:10514000240008443A4601460190584600F013FEF8
:1051500000BFBB44A0683844A060DAF800003844BF
:10516000CAF80000ED1B002D7FF442AF002029E7B4
:105170002DE9F0410446204600F0CDFF0746002F00
:105180004CD1A07900F02000002847D0A07900F091
:10519000400078B121684878012304F12401A26914
:1051A000FFF7E8FB10B10120BDE8F081A07920F005
:1051B0004000A071E169206800F0F4FD0746002F6F
:1051C0002CD1256AE87A40F02000E872207B28770D
:1051D000A089010A6977E068010CA977E068010EEF
:1051E000E9772846216900F0F1FE00F017FD064638
:1051F000AE75310AE975310C2976310E69760020D9
:10520000A8740021E974A07920F02000A071012089
:1052100021680871206800F0F1FE07463846C3E7B0
:105220002DE9FF4F83B0044615469B460498019034
:105230000020CBF80000204600F06DFF029002989D
:1052400018B1029807B0BDE8F08FE07908B1E079B5
:10525000F8E7A07900F0020008B90720F2E7A0689B
:105260002844A168884200D20025CFE021684989FE
:10527000A068B0FBF1F201FB120000287ED121688A
:105280004989A068B0FBF1F021688978491E08407F
:1052900000F0FF0ABAF1000F1ED1A06838B92769E3
:1052A00057B900212068FEF7D5FE074604E0616982
:1052B0002068FEF7CFFE074607B9AAE0012F02D10A
:1052C0000220E071BEE7781C10B90120E071B9E757
:1052D0006761206900B92761A07900F0400078B1CA
:1052E00021684878012304F12401A269FFF742FBF9
:1052F00010B10120E071A5E7A07920F04000A07175
:1053000061692068FEF748FE064616B90220E07182
:1053100098E7564420684089B5FBF0F9B9F1000FD1
:1053200031D00AEB090021688978884203D92068C6
:105330008078A0EB0A09216848784B4632460199EB
:10534000FFF718FB10B10120E0717BE7A069801B1B
:10535000484511D2A069831B2068B0F80AC00198A3
:1053600003FB0C012068428904F1240000F003FDD6
:10537000A07920F04000A071206800E017E040898B
:1053800000FB09F835E0A069B0420FD0D4E9020172
:1053900088420BD2216848780123324604F1240167
:1053A000FFF780FA10B10120E0714BE7A661216898
:1053B0004989A068B0FBF1F201FB1200216849891C
:1053C000A1EB0008A84500D9A84621684989A06832
:1053D000B0FBF1F201FB120104F124000844424643
:1053E0000090019900F0C7FCA07940F04000A07146
:1053F00000BF019840440190A0684044A060DBF8E1
:1054000000004044CBF80000A5EB0805002D7FF418
:105410002DAF00BFD4E90201884201D9A068E06045
:10542000A07940F02000A07100200BE72DE9F041A9
:1054300002460F46802A01DA10462FE01FB1184BB2
:1054400045F2205602E0174B45F220560025102465
:1054500016E0A6EB050C0CEBDC7805EB68014FEAD7
:10546000410C33F81CC0944500D10BE04FEA410CCD
:1054700033F81CC0944501DA0D4600E00E46641E68
:10548000002CE6D100BF34B14FF0010C0CEB410C05
:1054900033F81CC001E04FF0000C6046BDE8F0811D
:1054A00042BA0108BE65000830B5802807DA6128D5
:1054B00023DB7A2821DCA0F12005A8B21DE00C2214
:1054C00000234FF4F77400BFE51A03EB55010B4DB1
:1054D00035F81150854200D10AE0084D35F81150D9
:1054E000854201DA0B4600E00C46551E2A00EBD13E
:1054F00000BF12B1024D35F8110030BDC60E0308D1
:10550000A21203082DE9F74F8AB000210A98016022
:105510000B9800F087FB09900998002803DA0B200C
:105520000DB0BDE8F08FE949099851F820400CB959
:105530000C20F5E70A980460207878B16078FFF7CE
:105540000BFA814609F0010040B90C9820B109F02E
:10555000040008B10A20E3E70020E1E70020207002
:10556000099860706078FFF752F9814609F00100F0
:1055700008B10320D4E70C9820B109F0040008B169
:105580000A20CDE7607804F10A020221FFF754F9FE
:1055900038B96089B0F5007F03DB6089B0F5805FC2
:1055A00001DD0120BCE7002739462046FEF7A2FCBA
:1055B0000546012D01D09DBB32E000261AE004F51E
:1055C000F77000EB061898F8040070B198F80B001B
:1055D000010698F80A0041EA004198F8090041EAFA
:1055E000002098F80810084300E0002002A941F8C4
:1055F0002600761C042EE2D3002606B1761E00BFDC
:1056000002A850F8267027B139462046FEF772FCF2
:1056100000E0022005461DB1701C06460428EFD3A9
:10562000032D01D101207BE70DB10D2078E73B2050
:10563000015D94F83C0041EA00206189884201D074
:105640000D206DE74620015D94F8470041EA002AED
:10565000BAF1000F0ED194F85700010694F85600E5
:1056600041EA004194F8550041EA002094F85410B2
:1056700040EA010AC4F818A04020005DE070E0781C
:10568000012804D0E078022801D00D2048E7E07816
:105690000AFB00FA3D20005DA070A07818B1A07848
:1056A000411E084008B10D203AE74120015D94F801
:1056B000420041EA002020816089C11700EBD161DE
:1056C0004911228992FBF1F301FB132109B10D204D
:1056D00026E74320015D94F8440041EA0020089049
:1056E000089870B994F85300010694F8520041EA02
:1056F000004194F8510041EA002094F8501008430A
:1057000008903E20015D94F83F0041EA002001909E
:10571000019808B90D2003E76089C11700EBD1613A
:105720004911228992FBF1F20199514411440791E8
:10573000DDE90710884201D20D20F1E6DDE907100E
:10574000401AA178B0FBF1FBBBF1000F01D10D2095
:10575000E6E6012540F6F670834500D302254FF6B4
:10576000F670834500D303250BF102006061E76109
:1057700001983844206207983844A062032D16D15E
:10578000208908B10D20CBE694F85F00010694F85B
:105790005E0041EA004194F85D0041EA002094F87F
:1057A0005C100843606260698000069014E0208904
:1057B00008B90D20B4E6206A50446062022D02D17F
:1057C0006069400007E0207D00F00100616901EBA5
:1057D000410100EB510006906089401E0699084483
:1057E0006189B0FBF1F0A169884201D90D2097E6EB
:1057F0004FF0FF302061E06080206071032D5AD1AE
:1058000094F8601094F8610041EA0020012852D118
:10581000791C204600F0C6FAE8BB0020607194F8BD
:105820002E1294F82F0241EA00204AF655218842B0
:1058300041D13320005D01063220005D41EA004184
:105840003120005D41EA002094F8301008432049DF
:10585000884230D194F81702010694F8160241EA02
:10586000004194F8150241EA002094F8141208430C
:10587000184988421FD194F81B02010694F81A02B5
:1058800041EA004194F8190241EA002094F8181204
:105890000843206100E00EE094F81F02010694F82E
:1058A0001E0241EA004194F81D0241EA002094F8EA
:1058B0001C120843E060257007480088401C80B235
:1058C00005490880E08000202AE600003801002019
:1058D000525261417272416140010020F0B50446AC
:1058E0001D464D730F27CF7200270F738F76BC466E
:1058F00081F81BC0571E07EB870C0CEBC70600276F
:1059000038463B4600BF4FF6FF77B84203D03746D4
:10591000761C34F81700DFF840C01CF803C001F80B
:105920000C000712DFF830C01CF803C08C448CF860
:10593000017008B94FF6FF705F1C3B460D2FE2D394
:105940004FF6FF77B84202D034F816700FB942F024
:1059500040020A70F0BD0000846500082DE9F341A3
:105960000446019800782F2803D0019800785C281D
:1059700002D10198401C01900020A060019800789D
:10598000202807D200212046FEF7DDFE0546002034
:10599000606128E000BF01A92046FEF7C7FB05466D
:1059A00005B11FE02046FEF727FD0546A069C67A2F
:1059B0003DB1042D04D100BF06F0040000B9052557
:1059C00010E006F0040000B10CE06769F87A00F01E
:1059D000100008B9052505E03946206800F047F9B0
:1059E000A060D8E700BF2846BDE8FC8170B504463A
:1059F0000D46E1B20548FEF713F800BF80210348C9
:105A0000FDF796FF0028F9D0204670BD0010014038
:105A10002DE9FF4F83B0074691461E460B223846BC
:105A2000049900F0A8F9052E19D9B04612E039F80A
:105A300002BB00250CE0584668F35F0080464FEA41
:105A40006B0B08F4803010B1234888EA00086D1C05
:105A5000102DF0D3B9F800000028E8D146460725FC
:105A600000BF06F00F0000F1300ABAF1390F03DD74
:105A70000AF1070000F0FF0A28466D1E01A901F88F
:105A800000A03609002EECD17E20485500240BE002
:105A9000385D812807DB385DFE2804DC681EA042E3
:105AA00000D106E0641C641CAC4202D2385D2028A0
:105AB000EED100BF00BF082D04D228466D1C01A9FD
:105AC000095C00E020212046641C3954082CF2D3E4
:105AD00007B0BDE8F08F0000211001002DE9F05F54
