:020000040800F2
:1000000000B200209D010008792B0008BD1A0008ED
:10001000752B0008CD0C0008353D000800000000DD
:10002000000000000000000000000000B9350008DA
:100030005910000800000000092C0008A93600082B
:10004000B7010008B7010008B7010008B7010008B0
:10005000B7010008B7010008B7010008B7010008A0
:10006000B7010008B7010008B7010008B701000890
:10007000B7010008B7010008210D00084D0D000868
:10008000B7010008B7010008B7010008B701000870
:10009000B7010008B7010008B7010008B701000860
:1000A000B7010008B7010008B7010008B701000850
:1000B000B7010008B7010008B7010008B701000840
:1000C000B7010008B7010008B7010008B701000830
:1000D000B7010008B7010008B7010008B701000820
:1000E000B7010008B7010008B7010008B701000810
:1000F000B7010008B7010008B7010008B701000800
:10010000B7010008B7010008B7010008B7010008EF
:10011000B7010008B7010008B7010008B7010008DF
:10012000B7010008B7010008B7010008B7010008CF
:10013000B7010008B7010008B7010008B7010008BF
:10014000B7010008B7010008B7010008B7010008AF
:10015000B7010008B7010008B7010008B70100089F
:10016000B7010008B7010008B7010008B70100088F
:10017000B7010008B7010008B7010008B70100087F
:10018000B7010008B7010008DFF80CD000F062FCEE
:1001900000480047815B000800B200200648804705
:1001A00006480047FEE7FEE7FEE7FEE7FEE7FEE75C
:1001B000FEE7FEE7FEE7FEE71937000889010008C1
:1001C00081FB0020704701464FF0000081EAE1709A
:1001D000A0EBE170704700002DE9F04F82B0019074
:1001E0004FF000744FF000784FF000054FF0000919
:1001F00052F804CB52F804EB0868CB6DC0FB0C45F9
:10020000D1F88000CEF1000EC3FB0E45D1F8DC30F2
:10021000C0FB0C89C3FB0E8952F804CB52F804EBE7
:1002200048688B6DC0FB0C45D1F88400CEF1000E00
:10023000C3FB0E45D1F8D830C0FB0C89C3FB0E8937
:1002400052F804CB52F804EB88684B6DC0FB0C45A8
:10025000D1F88800CEF1000EC3FB0E45D1F8D430A2
:10026000C0FB0C89C3FB0E8952F804CB52F804EB97
:10027000C8680B6DC0FB0C45D1F88C00CEF1000EA8
:10028000C3FB0E45D1F8D030C0FB0C89C3FB0E89EF
:1002900052F804CB52F804EB0869CB6CC0FB0C4558
:1002A000D1F89000CEF1000EC3FB0E45D1F8CC3052
:1002B000C0FB0C89C3FB0E8952F804CB52F804EB47
:1002C00048698B6CC0FB0C45D1F89400CEF1000E50
:1002D000C3FB0E45D1F8C830C0FB0C89C3FB0E89A7
:1002E00052F804CB52F804EB88694B6CC0FB0C4508
:1002F000D1F89800CEF1000EC3FB0E45D1F8C43002
:10030000C0FB0C89C3FB0E8952F804CB52F804EBF6
:10031000C8690B6CC0FB0C45D1F89C00CEF1000EF7
:10032000C3FB0E45D1F8C030C0FB0C89C3FB0E895E
:1003300001984FF4FE4E4EF0FF0E4FEA946444EAEB
:1003400085144FEAE47CBCEBE43F18BF8CEA0E0452
:100350004FEA986848EA89184FEAE87CBCEBE83F26
:1003600018BF8CEA0E080480A0F8028002F57072B3
:1003700001F580514FF000744FF000784FF0000508
:100380004FF0000952F804CB0868D1F88030C0FB68
:100390000C45C3FB0C8952F804CB4868D1F8843073
:1003A000C0FB0C45C3FB0C8952F804CB8868D1F81C
:1003B0008830C0FB0C45C3FB0C8952F804CBC868DD
:1003C000D1F88C30C0FB0C45C3FB0C8952F804CB30
:1003D0000869D1F89030C0FB0C45C3FB0C8952F87A
:1003E00004CB4869D1F89430C0FB0C45C3FB0C89A1
:1003F00052F804CB8869D1F89830C0FB0C45C3FB98
:100400000C8952F804CBC869D1F89C30C0FB0C456C
:10041000C3FB0C8901984FF4FE4E4EF0FF0E4FEADD
:10042000946444EA85144FEAE47CBCEBE43F18BFD3
:100430008CEA0E044FEA986848EA89184FEAE87C8B
:10044000BCEBE83F18BF8CEA0E08A0F84040A0F8CB
:100450004280A2F57872A1F570614FF00F0C00F1A7
:100460000400CDF800C001904FF000744FF0007808
:100470004FF000764FF0007A4FF000054FF0000982
:100480004FF000074FF0000B52F804CB52F804EB8A
:100490000868CB6DC0FB0C45C0FB0E67CEF1000EAB
:1004A000C3FB0C67C3FB0E45D1F8DC30D1F88000EC
:1004B000C3FB0E89C3FB0CABCEF1000EC0FB0C8955
:1004C000C0FB0EAB52F804CB52F804EB48688B6DBE
:1004D000C0FB0C45C0FB0E67CEF1000EC3FB0C67E2
:1004E000C3FB0E45D1F8D830D1F88400C3FB0E8988
:1004F000C3FB0CABCEF1000EC0FB0C89C0FB0EABF6
:1005000052F804CB52F804EB88684B6DC0FB0C45E5
:10051000C0FB0E67CEF1000EC3FB0C67C3FB0E459C
:10052000D1F8D430D1F88800C3FB0E89C3FB0CABE3
:10053000CEF1000EC0FB0C89C0FB0EAB52F804CB11
:1005400052F804EBC8680B6DC0FB0C45C0FB0E678E
:10055000CEF1000EC3FB0C67C3FB0E45D1F8D030C3
:10056000D1F88C00C3FB0E89C3FB0CABCEF1000E9F
:10057000C0FB0C89C0FB0EAB52F804CB52F804EB65
:100580000869CB6CC0FB0C45C0FB0E67CEF1000EBA
:10059000C3FB0C67C3FB0E45D1F8CC30D1F89000FB
:1005A000C3FB0E89C3FB0CABCEF1000EC0FB0C8964
:1005B000C0FB0EAB52F804CB52F804EB48698B6CCD
:1005C000C0FB0C45C0FB0E67CEF1000EC3FB0C67F1
:1005D000C3FB0E45D1F8C830D1F89400C3FB0E8997
:1005E000C3FB0CABCEF1000EC0FB0C89C0FB0EAB05
:1005F00052F804CB52F804EB88694B6CC0FB0C45F5
:10060000C0FB0E67CEF1000EC3FB0C67C3FB0E45AB
:10061000D1F8C430D1F89800C3FB0E89C3FB0CABF2
:10062000CEF1000EC0FB0C89C0FB0EAB52F804CB20
:1006300052F804EBC8690B6CC0FB0C45C0FB0E679D
:10064000CEF1000EC3FB0C67C3FB0E45D1F8C030E2
:10065000D1F89C00C3FB0E89C3FB0CABCEF1000E9E
:10066000C0FB0C89C0FB0EAB01F5807101984FF403
:10067000FE4E4EF0FF0E4FEA946444EA85144FEAB2
:10068000E47CBCEBE43F18BF8CEA0E044FEA9868A8
:1006900048EA89184FEAE87CBCEBE83F18BF8CEACF
:1006A0000E084FEA966646EA87164FEAE67CBCEBF0
:1006B000E63F18BF8CEA0E064FEA9A6A4AEA8B1A9E
:1006C0004FEAEA7CBCEBEA3F18BF8CEA0E0ADDF881
:1006D00000C000EBCC0E2EF8026B2EF802AB20F817
:1006E000024B20F8028BBCF1010C7FF4BAAE02B0D1
:1006F000BDE8F08F2DE9F04F82B001904FF000740B
:100700004FF0000552F804CB52F804EB0868CB6DAB
:10071000CEF1000EC0FB0C45C3FB0E4552F804CBD6
:1007200052F804EB48688B6DCEF1000EC0FB0C450F
:10073000C3FB0E4552F804CB52F804EB88684B6DAE
:10074000CEF1000EC0FB0C45C3FB0E4552F804CBA6
:1007500052F804EBC8680B6DCEF1000EC0FB0C45DF
:10076000C3FB0E4552F804CB52F804EB0869CB6C7E
:10077000CEF1000EC0FB0C45C3FB0E4552F804CB76
:1007800052F804EB48698B6CCEF1000EC0FB0C45AF
:10079000C3FB0E4552F804CB52F804EB88694B6C4E
:1007A000CEF1000EC0FB0C45C3FB0E4552F804CB46
:1007B00052F804EBC8690B6CCEF1000EC0FB0C457F
:1007C000C3FB0E4501984FF4FE4E4EF0FF0E4FEA6C
:1007D000946444EA85144FEAE47CBCEBE43F18BF20
:1007E0008CEA0E04048002F5707201F580514FF01E
:1007F00000744FF0000552F804CB0868C0FB0C45AC
:1008000052F804CB4868C0FB0C4552F804CB88680A
:10081000C0FB0C4552F804CBC868C0FB0C4552F82D
:1008200004CB0869C0FB0C4552F804CB4869C0FBF7
:100830000C4552F804CB8869C0FB0C4552F804CB38
:10084000C869C0FB0C4501984FF4FE4E4EF0FF0EF8
:100850004FEA946444EA85144FEAE47CBCEBE43F3D
:1008600018BF8CEA0E040484A2F57872A1F57061B9
:100870004FF00F0C00F10200CDF800C001904FF0D6
:1008800000744FF000764FF000054FF0000752F86B
:1008900004CB52F804EB0868CB6DC0FB0C45C0FBE1
:1008A0000E67CEF1000EC3FB0E45C3FB0C6752F87A
:1008B00004CB52F804EB48688B6DC0FB0C45C0FBC1
:1008C0000E67CEF1000EC3FB0E45C3FB0C6752F85A
:1008D00004CB52F804EB88684B6DC0FB0C45C0FBA1
:1008E0000E67CEF1000EC3FB0E45C3FB0C6752F83A
:1008F00004CB52F804EBC8680B6DC0FB0C45C0FB81
:100900000E67CEF1000EC3FB0E45C3FB0C6752F819
:1009100004CB52F804EB0869CB6CC0FB0C45C0FB60
:100920000E67CEF1000EC3FB0E45C3FB0C6752F8F9
:1009300004CB52F804EB48698B6CC0FB0C45C0FB40
:100940000E67CEF1000EC3FB0E45C3FB0C6752F8D9
:1009500004CB52F804EB88694B6CC0FB0C45C0FB20
:100960000E67CEF1000EC3FB0E45C3FB0C6752F8B9
:1009700004CB52F804EBC8690B6CC0FB0C45C0FB00
:100980000E67CEF1000EC3FB0E45C3FB0C6701F5ED
:10099000807101984FF4FE4E4EF0FF0E4FEA9464C2
:1009A00044EA85144FEAE47CBCEBE43F18BF8CEAD0
:1009B0000E044FEA966646EA87164FEAE67CBCEBE1
:1009C000E63F18BF8CEA0E06DDF800C000EB8C0E87
:1009D0002EF8026B20F8024BBCF1010C7FF44CAFF7
:1009E00002B0BDE8F08F10B5431A934209D28318C4
:1009F000881803E010F8011D03F8011D521EF9D2FA
:100A000010BD40EA01039B0703D009E008C9121F8B
:100A100008C0042AFAD203E011F8013B00F8013BB8
:100A2000521EF9D210BD30B50B46014600202022DF
:100A3000012409E021FA02F59D4205D303FA02F5EB
:100A4000491B04FA02F52844151EA2F10102F1DC4B
:100A500030BD0000064C074D06E0E06840F00103A1
:100A600094E8070098471034AC42F6D3FFF790FBA8
:100A700000730308207303082DE9F84F04460E465F
:100A800037461CE1904D4834203CD4F81C80D5F802
:100A900000A02D1DD4F82090286800902D1D4146FF
:100AA0005046FFF78DFB834649460098FFF788FBC9
:100AB000ABEB00004000E06149465046FFF780FB89
:100AC000834641460098FFF77BFB58444000206274
:100AD000D4F81880D5F800A02D1DD4F824902868EB
:100AE00000902D1D41465046FFF76AFB834649465C
:100AF0000098FFF765FBABEB00004000A0614946A2
:100B00005046FFF75DFB834641460098FFF758FBD0
:100B1000584440006062D4F81480D5F800A02D1D20
:100B2000D4F82890286800902D1D41465046FFF7C4
:100B300047FB834649460098FFF742FBABEB0000BA
:100B40004000606149465046FFF73AFB8346414604
:100B50000098FFF735FB58444000A062D4F810809D
:100B6000D5F800A02D1DD4F82C90286800902D1DDC
:100B700041465046FFF724FB834649460098FFF75D
:100B80001FFBABEB00004000206149465046FFF7D9
:100B900017FB834641460098FFF712FB584440007C
:100BA000E062D4F80C80D5F800A02D1DD4F8309068
:100BB000286800902D1D41465046FFF701FB8346F3
:100BC00049460098FFF7FCFAABEB00004000E060FC
:100BD00049465046FFF7F4FA834641460098FFF72E
:100BE000EFFA584440002063D4F80880D5F800A0FC
:100BF0002D1DD4F83490286800902D1D4146504694
:100C0000FFF7DEFA834649460098FFF7D9FAABEBC7
:100C100000004000A06049465046FFF7D1FA8346E5
:100C200041460098FFF7CCFA584440006063D4F87E
:100C30000480D5F800A02D1DD4F8389028680090C5
:100C40002D1D41465046FFF7BBFA834649460098A2
:100C5000FFF7B6FAABEB0000400060604946504633
:100C6000FFF7AEFA834641460098FFF7A9FA5844C9
:100C70004000A063D4F80080D5F800A02D1DD4F862
:100C80003C90286800902D1D41465046FFF798FA89
:100C9000834649460098FFF793FAABEB000040000B
:100CA000206049465046FFF78BFA8346414600983C
:100CB000FFF786FA58444000E06320347F1E002F7F
:100CC0003FF7E0AEBDE8F88F246E030800BFFEE7F3
:100CD000014609B920207047002201E0521C49005A
:100CE00001F000400028F9D01046F4E7014609B9A8
:100CF00020207047002201E0521C490001F0004012
:100D00000028F9D01046F4E710B50246134600203B
:100D100002E000241C54401C8842FADB10BD000095
:100D200010B50749074800F01BF9012806D104490E
:100D3000044800F021F804480068804710BD000016
:100D40000080001858600240B800002010B5074924
:100D5000074800F005F9012806D10449044800F0CD
:100D60000BF804480068804710BD00002080002078
:100D700070600240B40000200246094B9A4201D242
:100D8000084801E00648103801F000531BB1064B3B
:100D90000B40C36002E0044B0B40836070470000CF
:100DA00010640240006002407D0F7D0F21B1026897
:100DB00042F00102026003E0026822F001020260D8
:100DC00070470000016821F001010160002101600D
:100DD00041608160C1600161212141614A498842CD
:100DE00004D13D21484A103A91608CE046491831BF
:100DF000884205D14FF47461434A103A916082E011
:100E000041493031884205D14FF474113E4A103ABD
:100E1000916078E03C494831884205D14FF07461D7
:100E2000394A103A91606EE037496031884204D106
:100E30003649354A103AD16065E033497831884205
:100E400004D13349304A103AD1605CE02E499031E8
:100E5000884204D12F492C4A103AD16053E02A49E4
:100E6000A831884205D14FF03D51274A103AD16050
:100E700049E02949884204D13D21274A083A1160B6
:100E800041E025491831884205D14FF47461224A66
:100E9000083A116037E020493031884205D14FF4DB
:100EA00074111D4A083A11602DE01B4948318842EF
:100EB00005D14FF07461184A083A116023E01649D1
:100EC0006031884204D11149134A121F11601AE09F
:100ED00011497831884204D10D490F4A121F11601F
:100EE00011E00D499031884204D10A490A4A121F83
:100EF000116008E00849A831884204D14FF03D5103
:100F0000054A121F11607047106002403D0000202A
:100F1000400F002000003D201064024021B1026813
:100F200042F48022026003E0026822F48022026020
:100F3000704722B1036843F40023036003E00368B1
:100F400023F40023036001617047014600200A6812
:100F500002F001020AB1012000E000207047000009
:100F600070B50246002000240025124EB24201D284
:100F7000114B01E00F4B103B104E0E4036B11E26B8
:100F800006EAD124166806EA040502E0566906F06E
:100F9000800501F000560EB15C6800E01C68084E48
:100FA000344004EA010616B10DB1012000E0002032
:100FB00070BD000010640240006002403C0F3C0F16
:100FC0007D0F7D0F10B501F080034BB122B1436955
:100FD00043F08003436103E0436923F080034361EE
:100FE00080290BD02AB1036801F01E04234303605B
:100FF00004E0036801F01E04A343036010BD000079
:1010000010B500220268134B1A40CC680B682343CA
:101010004C6923438C692343CC6923430C6A2343E3
:101020004C6A23438C6A23434C6B23438C6B2343CE
:101030001A430260426922F00702D1E90B342343CC
:101040001A4342610B6943604B6883608B68C360DD
:1010500010BD00003F801CF07047000000B587B055
:101060000121084601F0D2FD0121102001F0FEFD12
:1010700007220A211D4800F0F1FC072209211B4824
:1010800000F0ECFC00208DF81A0001208DF81B0008
:1010900002208DF818000002059002208DF819003A
:1010A00005A9124800F092FC02208DF818004002B9
:1010B000059005A90D4800F089FC4FF4E13001903E
:1010C0000020ADF80800ADF80A00ADF80C00ADF84E
:1010D00010000C20ADF80E0001A9054802F076FBC7
:1010E0000121034802F058FB07B000BD0000024098
:1010F000001001402DE9FF4F87B005460E46149CB5
:10110000002E03DC00200BB0BDE8F08F002B02DACC
:101110004FF0FF30F7E70593DFF858B309985BF815
:101120002000DFF854B30BEB40000190DFF84CB324
:1011300009985BF830C009980BEBC0000079029069
:1011400000221598404200F0070129B114F8010B64
:10115000C1F1200B00FA0BF25B1A029898B900203B
:1011600006900BE04FF0000B069845F820B006986B
:10117000401C45F820B00698801C06900698B042A6
:10118000F0DB0020BFE70298012879D101980078B0
:1011900000F00F0004900198801C01904FF0000AAD
:1011A00065E0102B10DB14F8010BC1F1180B00FAED
:1011B0000BF0024314F8010BC1F1100B00FA0BF015
:1011C00002431031103B22E0C818002802DC4FF027
:1011D000FF3098E7002B06DD14F8010BC1F1180B66
:1011E00000FA0BF00243082B06DD14F8010BC1F1E5
:1011F000100B00FA0BF0024319440023481E4FF075
:10120000004B4BFA00F002404FF00B0A51442AE029
:101210000498C0F1200022FA00F0DDF804B03BF899
:1012200010804FEA183EA1EB0E0102FA0EF2C8F34D
:101230000319B9F1000F05D002F0004040EA090996
:101240005200491EC8F3032727B102F000400743AC
:101250005200491E514502DA4FF0FF3053E745F87E
:10126000049B80C5B61E002E01DD0B29D0DA002EAE
:1012700097DCA1EB0A0003440598C01A43E7FFE797
:101280000298032802D00298022876D10198009093
:101290004FF0000AE2E0102B10DB14F8010BC1F153
:1012A000180B00FA0BF0024314F8010BC1F1100BFC
:1012B00000FA0BF002431031103B22E0C81800285E
:1012C00002DC4FF0FF301EE7002B06DD14F8010BA7
:1012D000C1F1180B00FA0BF00243082B06DD14F8DD
:1012E000010BC1F1100B00FA0BF00243194400236B
:1012F000481E4FF0004B4BFA00F002404FF00B0A33
:101300005144A6E00098007800F00F000490049883
:10131000C0F1200B22FA0BF0401CDDF800B03BF8C6
:1013200010804FEA183EBEF1000F08D10498091A48
:1013300004988240009800EB4800009089E0A1EBFF
:101340000E0102FA0EF2C8F30319C8F30327B9F12C
:101350000F0F33D10298032830D10FB1012000E0E4
:1013600000200CF1010B5844039001EB030B039890
:10137000834503DA4FF0FF30C5E678E008E014F863
:10138000010BC1F1180B00FA0BF002430831083BC6
:1013900003988142F3DB002B07DA19440023481E2F
:1013A0004FF0004B4BFA00F00240CCF1200022FA43
:1013B00000F08144A1EB0C0102FA0CF2B9F1000F2C
:1013C00005D002F0004040EA09095200491E0F2FE3
:1013D0002DD1029803282AD10CF10100039001EBD2
:1013E000030B0398834502DA4FF0FF308BE608E0E9
:1013F00014F8010BC1F1180B00FA0BF0024308318D
:10140000083B03988142F3DB002B07DA19440023E1
:10141000481E4FF0004B4BFA00F00240CCF1200088
:1014200022FA00F00744A1EB0C0102FA0CF227B1FA
:1014300002F0004007435200491E514502DA4FF0C6
:10144000FF3060E645F8049B80C5B61E0198009009
:1014500000BF002E02DD0B29BFF654AF002E3FF770
:101460001AAFA1EB0A0003440598C01A4BE64FF0EF
:10147000FF3048E6D4670308B04603085468030801
:101480002DE9FF4F83B00546109C002B03DC0020A4
:1014900007B0BDE8F08FDFF858E105985EF820004E
:1014A000DFF850E170440090DFF84CE105985EF8F9
:1014B0002000029000221198404200F0070129B15B
:1014C00014F8010BC1F1200E00FA0EF25B1A00278E
:1014D000019785E0102B10DB14F8010BC1F1180EF9
:1014E00000FA0EF0024314F8010BC1F1100E00FADD
:1014F0000EF002431031103B22E0C818002801DC36
:101500003846C5E7002B06DD14F8010BC1F1180EB3
:1015100000FA0EF00243082B06DD14F8010BC1F1AE
:10152000100E00FA0EF0024319440023481E4FF03B
:10153000004E4EFA00F002400A200190019801444A
:1015400048E00298C0F1200022FA00F0DDF800E047
:101550001EF800604FEA161BA1EB0B0102FA0BF21A
:10156000C6F3C00CBCF1000F05D002F0004040EA09
:101570000C0C5200491EC6F38008B8F1000F05D0CC
:1015800002F0004040EA08085200491EC6F3400934
:10159000B9F1000F05D002F0004040EA09095200FD
:1015A000491E06F0010ABAF1000F05D002F0004012
:1015B00040EA0A0A5200491E0198814201DA38467F
:1015C00066E745F804CB45F8048B45F8049B45F8DD
:1015D00004AB3F1D0498C01EB84201DD0A29B0DAF1
:1015E0000498C01EB8423FF775AF384650E7000078
:1015F000A469030854690308AC69030801B50449E8
:101600000098086000BF024800680028FBD108BDB0
:10161000380000202DE9FF4F87B083469846002010
:10162000009008F00300604901EB801A08F0030005
:101630005E4951F8200002901F20B0EBA80F02DD98
:101640004FEAA80000E01F200746F81C1F2800DA18
:1016500000E01F200546002D01DD284600E00020A7
:10166000054600200390DAF8040028410490DAF8D7
:10167000080028410590DAF80C002841069000BFC8
:101680005BF8040B0190019820F00044042C03DA6D
:1016900003A850F824606FE0102C0BDA5AF824608D
:1016A000002F03DA794206FA01F001E046FA07F06A
:1016B000064661E0402C0BDAA4F110003C4951F8D9
:1016C000206030460299FEF77BFD0646FD1E45E090
:1016D00064040025B4F1006F01DA24012D1DB4F17A
:1016E000005F01DAA400AD1CB4F1804F01DA6400A0
:1016F0006D1C3048844201DA2F4800E02F488146B3
:10170000D9F8006021463046FEF75AFDD9F804109A
:10171000461821463046FEF753FDD9F80810461802
:1017200021463046FEF74CFDD9F80C1046182146EC
:101730003046FEF745FDD9F810104618204850F8FD
:1017400025103046FEF73CFDC60030460299FEF7F4
:1017500037FD06461B4850F825003D1A002D0ADAD1
:101760006D426FF000402841B04202DA6FF000464F
:1017700002E0AE4000E02E41009830430090019816
:10178000002801DA704200E03046089908600898A5
:10179000001D08900998401E099000287FF470AF42
:1017A00000980BB0BDE8F08F884403087844030824
:1017B000884503089A79825A484603085C4603081C
:1017C00090460308704603082DE9F04F89B004469F
:1017D0000F4692461D46002D5BD10AF001000028FD
:1017E00053D08034D4F800B004F580742068089099
:1017F00004F580742068079004F5807420680690D2
:1018000004F580742068059004F5807420680490C5
:1018100004F580742068039004F5807420680290B9
:1018200004F580742068019004F58074A4F51064B8
:10183000CBF10000206004F58074089840422060DD
:1018400004F5807407984042206004F5807406987F
:101850004042206004F5807405984042206004F501
:10186000807404984042206004F5807403984042DC
:10187000206004F5807402984042206004F5807472
:1018800001984042206004F58074002009B0BDE852
:10189000F08F4FF000090AF0010000284AD0C84636
:1018A00044E02668F017C5F11F0146FA01F18142B4
:1018B00006D0C5F11F0201219140491E81EA0006B0
:1018C00006FA05F020602068FEF77DFC40EA090971
:1018D000803420684642F017C5F11F0146FA01F135
:1018E000814206D0C5F11F0201219140491E81EAC3
:1018F000000606FA05F020602068FEF764FC40EA66
:10190000090980343E68F017C5F11F0146FA01F15C
:10191000814206D0C5F11F0201219140491E81EA92
:10192000000606FA05F001C708F10208B8F1120F27
:10193000B7DB49E04FF0000843E02668F017C5F137
:101940001F0146FA01F1814206D0C5F11F020121B3
:101950009140491E81EA000606FA05F020602068E1
:10196000FEF731FC40EA090980342668F017C5F11A
:101970001F0146FA01F1814206D0C5F11F02012183
:101980009140491E81EA000606FA05F020602068B1
:10199000FEF719FC40EA090980343E68F017C5F1EA
:1019A0001F0146FA01F1814206D0C5F11F02012153
:1019B0009140491E81EA000606FA05F001C708F1C8
:1019C0000208B8F1120FB8DB48465FE7F0B50A46E7
:1019D00000210023002400BF3DE0012505FA01F3AA
:1019E000156805EA03049C4234D105684F000326BC
:1019F000BE40B543056015794E00B54006683543D5
:101A000005601579012D02D01579022D16D1856852
:101A10004F000326BE40B543856055794E00B54062
:101A2000866835438560456801268E40B54345602C
:101A3000456896798E40B6B235434560C5684F001B
:101A40000326BE40B543C560D5794E00B540C66893
:101A50003543C560491C1029BFD3F0BDF0B5002344
:101A600000244D07ED0E02FA05F3CE1000F120051B
:101A700055F826504E07F70E0F26BE40B543CF103F
:101A800000F1200646F82750CE1000F1200555F849
:101A9000265045EA0304CE1000F1200545F8264003
:101AA000F0BD0246002013690B400BB1012000E09D
:101AB00000207047418370470183704702A002F005
:101AC0006FFA00BFFEE70000686172646661756CC2
:101AD000742121210A0000002DE9FF4F99B00F4623
:101AE0009046269D4FF00009002424E01C98406990
:101AF00006901C98806920B16869A04201DD002031
:101B00000690E86805902869A04201DD0020059054
:101B1000A869059908EB8402CDE9001402903946C2
:101B2000069B199800F0A8FC40EA0909199848306A
:101B300019902437641C2868A042D7DC17E0E868B5
:101B400005902869A04201DD00200590A86908EBF6
:101B50008402CDE900403946059B199800F096FBB8
:101B600040EA09091998483019902437641C6868BC
:101B7000A042E4DC049449E0E86805902869A042AA
:101B800001DD0020059007A93846059A02F05EF9AC
:101B90004FF0000BE007039000262FE0700007A92C
:101BA00051F820004FEA800A4BEA0A0B08EB0620A6
:101BB00040F824A05046FEF706FB40EA09097000F1
:101BC000401C07A951F820004FEA800A03988AEACE
:101BD000E07004F0010100EB010A4BEA0A0B70000F
:101BE000401C08EBC01040F824A05046FEF7EBFA6A
:101BF00040EA0909002047F82600761C092ECDDBB3
:101C00002437BBF1000F00D00494641CA868A042E4
:101C1000B2DC0AE0002605E0002008EBC61141F81E
:101C20002400761C122EF7DB641C202CF2DB4846C5
:101C300008B9202208E0002101E0491C400000F022
:101C40000042002AF9D00A46521EEA6104981DB0EB
:101C5000BDE8F08F21B1028842F48062028004E086
:101C600002884FF6FF331A400280704770B5024673
:101C70000024002500230020958A138B1B0445EACD
:101C8000030626F07F4404EA01068E4201D10120BA
:101C900000E0002070BD21B1028842F00102028004
:101CA00004E002884FF6FE731A400280704700007D
:101CB0001CB50121480500F0B9FF0121022000F008
:101CC000A5FF0121880300F0D1FF0422082111485B
:101CD000FFF7C4FE042209210E48FFF7BFFE4FF4B0
:101CE0008070009002208DF804008DF8050001201E
:101CF0008DF8060000208DF8070069460548FFF7BB
:101D000065FE4FF40070009069460248FFF75EFEE2
:101D10001CBD00000004024021B1028842F4807220
:101D2000028004E002884FF6FF631A400280704789
:101D300021B1028842F40072028004E002884FF66A
:101D4000FF531A40028070470CB502460020002362
:101D50000193009300920B0F019321F07F41019BAF
:101D60001BB1009B1433009303E0090C009B183354
:101D70000093009B1B680B400BB1012000E000208A
:101D80000CBD00002DE9FF4704460D460026B14674
:101D90000427DFF8CC80A6884FF6C070064068465E
:101DA00000F084FFDDF808802E48B8FBF0F01FFA41
:101DB00080F946EA0906A68020884FF6FE710840A1
:101DC000208000262849286888420CD828684000CE
:101DD000B8FBF0F087B2042F00DA04273E4309F184
:101DE0000100208427E0E8884BF6FF71884206D185
:101DF000286800EB4000B8FBF0F087B209E02868E3
:101E000000EBC00101EB0010B8FBF0F087B247F423
:101E10008047C7F30B0008B947F0010747F40040BB
:101E200006434FF4967009FB00F04FF47A7190FB73
:101E3000F1F0401C2084A683208840F0010020801F
:101E400026884FF6F5300640A8886989084306437E
:101E50002680A889298908432081BDE8FF870000E2
:101E600000127A0040420F00A08601001FB500203A
:101E7000ADF804004BF6FF70ADF806000A20ADF88F
:101E800008004FF48060ADF80A000001ADF80C00C6
:101E90000748009069460748FFF774FF012105488D
:101EA000FFF7F9FE01210348FFF7D4FE1FBD000034
:101EB000801A06000054004012B141F0010101E017
:101EC00001F0FE01018270470182704721B1828BCF
:101ED00042F48062828304E0828B4FF6FF331A4023
:101EE000828370471CB50121062000F08FFE02207E
:101EF0008DF804008DF8050000208DF806008DF89F
:101F000007004FF48050009069461C48FFF75EFDC3
:101F10004FF40050009069461848FFF757FD4FF402
:101F20008040009069461548FFF750FD4FF400408F
:101F3000009069461148FFF749FD4020009069462E
:101F40000F48FFF743FD05220C210C48FFF786FDE3
:101F500005220D210948FFF781FD06220E210748C1
:101F6000FFF77CFD05220F210448FFF777FD0522CE
:101F700006210348FFF772FD1CBD0000000402406B
:101F8000000802402DE9F04F0025022300244FF005
:101F9000010900220026002794469046B0F81CA0B4
:101FA0004FF2400B0AEA0B0AA0F81CA04FF0020AFD
:101FB000A0F820A0858BD1F808A0BAF1020F01D1BA
:101FC00000BF82E0B1F804A0BAF1000F02D14FF0D7
:101FD000010901E04FF00209DFF834A1DAF800A0AE
:101FE0000AF4000ABAF1000F09D0DFF824A1DAF8E8
:101FF00000A02AF4000ADFF818B1CBF800A0DFF83F
:1020000010A10AF17C0ADAF800A0CAF3881CDFF8F4
:1020100000A10AF17C0ADAF800A0CAF30278DFF81E
:10202000F0A0AAF1040ADAF800A00AF03F07DFF8EE
:10203000E0A0AAF1040ADAF800A00AF4800ABAF5CE
:10204000800F08D1DFF8CCA0BAFBF7FA0AFB0CFA34
:10205000BAFBF8F607E0DFF8C0A0BAFBF7FA0AFB14
:102060000CFABAFBF8F6B1F806A0BAF5007F0ED16B
:102070004FEA162A0AEB8A0A4FEA4A0AD1F808B050
:10208000BAFBFBFA0AF1050A1FFA8AF20FE04FEADF
:10209000491AB6FBFAFA0AEB8A0A4FEA4A0AD1F859
:1020A00008B0BAFBFBFA0AF1050A1FFA8AF24FF0F0
:1020B0000A0AB2FBFAF202F00104A2EB040ACAF324
:1020C0004F034FF6FF7A0AEA0424022B01DBFF2BB1
:1020D00001DD02230024B1F806A04AEA040A4AEA14
:1020E000030AA0F820A0B1F804A0B1F80CB04AEAA5
:1020F0000B0AB1F802B04AEA0B0AB1F800B04AEA9A
:102100000B0A4AF4006A4AEA05058583BDE8F08FA8
:102110000838024040787D010024F40010B5012108
:102120000148FEF743FE10BD7060024010B500216B
:102130000448FEF73BFE002102481838FEF736FE41
:1021400010BD0000706002402DE9FF4104460D46BD
:1021500016460027B846002000F03CFE012000F0A3
:102160003FFE00BF08E03B2000F014FE8046B8F1BF
:10217000010F00D103E07F1CB7F5FA7FF3D300BF56
:102180000121880300F052FD0D4801F0F5F84FF4ED
:102190000070ADF80000ADF80240ADF80450ADF8A5
:1021A000060002960020ADF80C0069460448FFF7CF
:1021B000E9FE01210248FFF789FEBDE8FF8100002A
:1021C0000038004070B590B004460E461546012117
:1021D000480500F01BFD2A48FEF7F4FD00BF284823
:1021E000FEF7B3FE0028FAD126492548FEF7C4FDC4
:1021F0000020009024480190029440200390049510
:10220000002005904FF48060069040000790800009
:1022100008904011099040020A9000200B900C9009
:102220000D900E9069461648FEF7EAFE0022214600
:102230001348FEF77EFE4FF4002231461048FEF7A9
:1022400078FE01210E48FEF769FE012210210C489C
:10225000FEF7B8FE012202210B480C3801F082F88B
:102260000F208DF83C0000208DF83D0001208DF8F6
:102270003E008DF83F000FA800F080FC10B070BD4C
:10228000706002403DF000A00C3800402DE9FF4F87
:10229000A5B080460D4617460020249033980728A5
:1022A0001BDA3398C0F107002490002412E058F89C
:1022B00024002499084148F82400601C58F82000A4
:1022C00024990841611C48F8210028682499084194
:1022D00001C5A41C122CEADB243D12A9404603F0E0
:1022E000C5FB18A908F1040003F0C0FB1EA908F102
:1022F000080003F0BBFB69462846289A01F0A6FDBA
:10230000DFF870A10026002490E05DF824004FEA79
:1023100080094846FDF757FF0643600147F82090C3
:10232000E01C5DF820004FEA80094846FDF74BFFAE
:102330000643E01C400147F82090E21C12AB53F822
:1023400022105AF82400FDF73BFFA11D5DF8211073
:1023500000EB81094846FDF736FF0643A01D40010A
:1023600047F82090C4F1050212AB53F82210E21C8A
:102370005AF82200FDF724FF04F109015DF821104D
:1023800000EB81094846FDF71EFF064304F10900F2
:10239000400147F82090C4F1020212AB53F822101A
:1023A000A21D5AF82200FDF70BFF834604F1090233
:1023B00012AB53F822105AF82400FDF701FF0BEB83
:1023C000000104F10C005DF8200001EB8009484693
:1023D000FDF7F9FE064304F10C00400147F8209098
:1023E00012AA52F8241004F109025AF82200FDF74B
:1023F000E7FE8346C4F10B0212AB53F82210E21C35
:102400005AF82200FDF7DCFE0BEB000104F10F008F
:102410005DF8200001EB80094846FDF7D4FE064335
:1024200004F10F00400147F82090641C032CFFF6D4
:102430006CAF062405E012A850F82400801001C5F6
:10244000641C092CF7DB0C2405E012A850F82400CA
:10245000801001C5641C122CF7DB243D2946384648
:10246000249B329AFFF7B0F90643304629B0BDE805
:10247000F08F0000B46B03082DE9FF4FAFB00546A5
:102480000E46934600200746099044353E9807289B
:1024900025DA3E98C0F107002E9008241CE055F87C
:1024A00004092E990841C71B0998381A099055F854
:1024B00004092E990841C71B1CAA04F109010998B7
:1024C00042F821001CA840F8247056F824002E99E8
:1024D000084146F82400641E002CE0DA18E00020D1
:1024E0002E90082412E055F80419CF1B0998381AC9
:1024F000099055F80419CF1B1CAA04F10901099889
:1025000042F821001CA840F82470641E002CEADA6E
:102510002598401025901C9840101C901CA803F092
:10252000B7F925A803F0B4F90DF1900A61480090BD
:102530004FF000093C98002855D13298002852D11C
:10254000DFF8748100244BE0009800680390009845
:10255000001F0090DAF8240005905AF8040904904E
:1025600005990398FDF72CFE0590049880100490BF
:10257000306840420890DDE90410401A0790DDE918
:102580000401084401C6DDE90710401A069058F816
:10259000041B0698FDF714FE0146079800EB810026
:1025A000029058F8041B0698FDF70AFE01460898A9
:1025B00000EB81000190610102984BF82100C4F109
:1025C0001101490101984BF821000298FDF7FBFD2C
:1025D00040EA09090198FDF7F6FD40EA0909641C83
:1025E000092CB1DB59E00AA930463C9A01F02EFCD7
:1025F000329800EBC000314901EB001800244AE09A
:102600000098006803900098001F0090DAF82400FA
:1026100005905AF80409049005990398FDF7D0FD38
:102620000590049880100490DDE90401401A079099
:10263000DDE90401084401C658F824100798FDF7A5
:10264000BFFD0AA951F82410084480000290C4F18B
:10265000110058F820100798FDF7B2FDC4F11101E0
:102660000AAA52F8211008448000019061010298E2
:102670004BF82100C4F11101490101984BF82100E8
:102680000298FDF7A0FD40EA09090198FDF79BFDBE
:1026900040EA0909641C092CB2DB243E3146584645
:1026A0002E9B3D9AFFF790F840EA0909484633B05F
:1026B000BDE8F08FD4690308D8690308946A030859
:1026C00070B504460D4629462046FFF7EAF940B9A1
:1026D00000BF29462046FFF7E4F90028F9D0002082
:1026E00070BD0120FCE710B50A4600B910BD0021FD
:1026F00003E0002322F81130491C00F2C47318CB08
:102700006343D0F8BC4763438B42F2DC00BFEDE784
:102710002DE9FF4F89B00D461646099C24B96FF08C
:1027200004000DB0BDE8F08F2046296806F05CF883
:102730008146B9F1000F02DA6FF00500F1E7286871
:10274000484428602046296806F0DCF98246BAF140
:10275000000F06DA20460C99FFF7C5FF6FF0060060
:10276000DFE728685044286009EB0A013068401A06
:102770003060D4F8B80710B1D4F8B007A8B3D4F8D3
:10278000B00750BB0120C4F8B00732682B68A3EB38
:102790000903A3EB0A01286800F04CF9C4F8B40758
:1027A000D4F8B407002806DA20460C99FFF79BFFFF
:1027B0006FF00200B5E704F2B47420684844504456
:1027C0000690D4E904104143E26806984243D000E1
:1027D00090FBF1F06060A4F2B474204604F003F9B9
:1027E000D4F8B4170844C4F8CC07169808B3306876
:1027F000C4F8CC07D4F8D80718B9D4F8CC07002807
:1028000006DC20460C99FFF76EFF6FF0050088E7A5
:10281000D4F8CC07C4F8DC07286802902868D4F8FC
:10282000CC17084428603068D4F8CC17401A3060C0
:102830005FE0D4F8CC073168884206DD20460C9969
:10284000FFF751FF4FF0FF306BE7D4F8D817D4F8FB
:10285000DC0788422BDB04F11C00D4F8DC37184479
:10286000D4F8D837C11A1A4604F11C00FEF7BBF899
:10287000D4F8CC27296804F11C03D4F8D8C70CEB92
:102880000300FEF7B0F804F2CC742168E068084455
:102890002061286821680844286030682168A4F213
:1028A000CC74401A306004F11C00029021E0D4F88E
:1028B000CC27296804F11C03D4F8DCC70CEB030017
:1028C000FEF791F804F2CC74216820690844206175
:1028D000286821680844286030682168A4F2CC7414
:1028E000401A306020460C99FFF7FDFE6FF00100A2
:1028F00017E700200890D4F8DC07C00007900027F5
:1029000091E04FF0000850E008980590CDE900787C
:1029100008AA2046079B029906F060F883460598AE
:10292000C0EBCB0008990844049004F5FC6000EB70
:10293000C70050F828100498081A039002985844C9
:10294000029007990498081A0790BBF1000F03DB67
:1029500003990798884206DA20460C99FFF7C3FED0
:102960006FF00700DDE608980590CDE9007808AA29
:102970002046DDE9021304F044F88346BBF1000F62
:1029800006DA20460C99FFF7AEFE6FF00800C8E6A5
:102990000298584402900598C0EBCB000899014476
:1029A0000798401A079008F10108D4F8BC07404581
:1029B000AADC3946204604F073FA002806DA2046DD
:1029C0000C99FFF790FE6FF00900AAE64FF000089F
:1029D0000FE042463946204605F063FA002806DA41
:1029E00020460C99FFF77FFE6FF00A0099E608F188
:1029F0000108D4F8BC074045EBDCD4F8C80778439D
:102A0000D4F8BC2750430C9A02EB4001204605F055
:102A10005FFE002806DA20460C99FFF764FE6FF08F
:102A20000B007EE67F1CD4F8C407B8423FF769AFBD
:102A3000002076E62DE9F04106460D4617464FF098
:102A40000008344627E03946204600F025F8804645
:102A50004444B8F1000F03DA4FF0FF30BDE8F081D5
:102A600020782978884212D16078697888420ED11E
:102A7000A07800F0FC00A97801F0FC01884206D1A2
:102A8000A878C0F3400000B1641EA01BE6E7E41C78
:102A900008F103003F1AD6E702460B4600210BE07F
:102AA000505CFF2807D1481C105C00F0E000E028D3
:102AB00001D108467047491C581E8842F0DC4FF08F
:102AC000FF30F7E770B50446254605B970BD2846C6
:102AD00005F0BEF900BFF9E710B50246104618B17F
:102AE000D0F8D037032B08D000230B604B608B60ED
:102AF000CB600B614B618B611CE000F5F7600368F4
:102B00000B6043684B6083688B601023CB60037F4E
:102B100003EB4303084C04EB430483695B1E34F965
:102B20001330446863430B6183694B61037FA0F5F5
:102B3000F7608B6110BD0000D23F030810B503F0B1
:102B4000FFFE0446204610BD0748006F00F4002039
:102B500018B100200549087002E0012003490870FF
:102B600001200349087070470060024031000020D6
:102B70003000002000BFFEE77047000070B5002164
:102B800000230F22C4781CB3174C246804F4E064BB
:102B9000C4F5E064C4F30721C1F10404E3B20A41BF
:102BA00044789C40E1B28478144021430C07210E04
:102BB0000E4C05786155047804F01F050124AC40E3
:102BC00005786D11AD0005F1E025C5F8004109E07B
:102BD000047804F01F050124AC40054D06787611F9
:102BE00045F8264070BD00000CED00E000E400E078
:102BF00080E100E002490143024A11607047000091
:102C00000000FA050CED00E07047000029B1064A0B
:102C100012680243044B1A6004E0034A12688243BC
:102C2000014B1A60704700003038024029B1064A53
:102C300012680243044B1A6004E0034A126882439C
:102C4000014B1A60704700004038024029B1064A23
:102C500012680243044B1A6004E0034A126882437C
:102C6000014B1A60704700002038024029B1064A23
:102C700012680243044B1A6004E0034A126882435C
:102C8000014B1A60704700004438024029B1064ADF
:102C900012680243044B1A6004E0034A126882433C
:102CA000014B1A607047000024380240F0B5002143
:102CB00000220024022500260223324F3F6807F03D
:102CC0000C0121B1042905D0082937D105E02E4F88
:102CD000076036E02D4F076033E02A4F3F1F3F6803
:102CE000C7F38056274F3F1F3F6807F03F036EB181
:102CF000264FB7FBF3F7DFF88CC0ACF1040CDCF81F
:102D000000C0CCF3881C07FB0CF40CE01E4FB7FB93
:102D1000F3F7DFF870C0ACF1040CDCF800C0CCF3C2
:102D2000881C07FB0CF4174F3F1F3F68C7F3014790
:102D30007F1C7D00B4FBF5F7076002E0124F0760CF
:102D400000BF00BF0F4F3F6807F0F0010909104FA7
:102D50007A5C0768D74047600A4F3F6807F4E05144
:102D6000890A0B4F7A5C4768D7408760054F3F68F8
:102D700007F46041490B064F7A5C4768D740C7604B
:102D8000F0BD0000083802400024F40040787D01C6
:102D90001400002010B501460022002300204A1133
:102DA000012A02D10A4C236808E0022A03D1084C08
:102DB0007034236802E0064C7434236801F01F026B
:102DC000012494401C400CB1012000E0002010BD03
:102DD0000038024001490860704700005C0147422A
:102DE000014988667047000000004742C168042915
:102DF00022DB03685A1C02601A78120642600368DC
:102E00005A1C02601A78436843EA0242426003682F
:102E10005A1C02601A78436843EA0222426003683F
:102E20005A1C02601A7843681A434260202282606A
:102E3000C268121FC2601CE00022426009E0036801
:102E40005A1C02601A7843681A43426042681202B0
:102E500042600A00A1F10101F1D1C368C3F103038B
:102E6000DB0042689A404260C268D2008260002261
:102E7000C260704710B508210348FEF71DFEFF2011
:102E800000F0FEFA10BD0000000C024070B50546CF
:102E900001220021092000F0C4F9044624B91021C0
:102EA000284600F055F90446FFF7E4FF0CB1012075
:102EB00070BD0020FCE770B505464FF6FF7401E0D9
:102EC000601E84B2FF2000F0DBFAA84201D0002C83
:102ED000F6D10CB9FF2070BD0020FCE77FB5684635
:102EE000FFF7D4FF10B1002004B070BD9DF80000C2
:102EF00000F0C000402809D19DF809009DF8081095
:102F000000EB0120401C84B2A50220E09DF80500E2
:102F100000F00F009DF80A1000EBD1109DF8091089
:102F200001F0030100EB4100861C9DF808008011B0
:102F30009DF8071000EB81009DF8061001F00301D9
:102F400000EB8120441CA6F1090004FA00F5284694
:102F5000CAE70000F8B500F0C1FA002504E0FF2040
:102F600000F08EFA681C85B20A2DF8DB142600BF2B
:102F700095220021084600F054F90446012C04D0A3
:102F80003000A6F101018EB2F2D100205249087042
:102F9000012C74D187224FF4D571082000F041F93B
:102FA000012847D1002506E0FF2000F069FA0DF85E
:102FB0000500681C85B2042DF6DB9DF8020001288F
:102FC0007AD19DF80300AA2876D14FF6FE7600BF8D
:102FD00001220021372000F024F901229107292045
:102FE00000F01FF9044624B13000A6F101018EB2B1
:102FF000EED1002E60D0012200213A2000F011F91C
:10300000002859D1002506E0FF2000F039FA0DF81C
:103010000500681C85B2042DF6DB9DF8000000F069
:10302000400018B106202C49087045E004202A49C8
:10303000087041E001220021372000F0F2F801225F
:103040000021292000F0EDF80446012C18DC0220B4
:10305000214908704FF6FE7600BF0122002137207B
:1030600000F0DFF801220021292000F0DAF8044600
:10307000C4B13000A6F101018EB2EED112E020E021
:103080000120154908704FF6FE7600BF012200218D
:10309000104600F0C6F8044624B13000A6F1010144
:1030A0008EB2F3D12EB101225102102000F0B9F8F6
:1030B00010B1002008490870FFF7DCFE002000F086
:1030C00063F80548007808B10020F8BD0CB120462F
:1030D000FBE7AA20F9E70000BC0000202DE9F04141
:1030E00006460F46154619480078062800D07F028C
:1030F000012D0CD101223946112000F092F804462E
:10310000FCB96902304600F023F8044619E00122B8
:103110003946122000F085F8044600BF4FF40071D4
:10312000304600F015F8044606F50076681E80B2B9
:10313000050001D0002CF1D0012200210C2000F06C
:1031400070F8FFF797FE2046BDE8F081BC00002034
:1031500070B504460D46FE20FFF7ADFE08B1012014
:1031600070BD04E0FF2000F08BF92070641C280083
:10317000A5F101018DB2F5D1FF2000F081F9FF200A
:1031800000F07EF90020EBE710B504460748008800
:103190004FF6C7710840054908800846008820435B
:1031A00008800121014800F0D1F810BD0030014035
:1031B00010B508210548FEF77DFC00F06EF808B94F
:1031C000002010BDFFF756FE0120FAE7000C024078
:1031D00070B506460D4600F060F808B1012070BDDC
:1031E000284600F04DF9FD2D19D0002404E0305D93
:1031F00000F046F9601C84B2B4F5007FF7DBFF20D5
:1032000000F03EF9FF2000F03BF9FF2000F038F914
:10321000044604F01F00052801D00220DFE700204B
:10322000DDE72DE9F04105460C4617464FF0000852
:10323000FFF720FEFFF7BCFF10B1FF20BDE8F081D3
:1032400045F0400000F01CF9200E00F019F9C4F31D
:10325000074000F015F9C4F3072000F011F9E0B2BF
:1032600000F00EF9384600F00BF90C2D02D1FF20CA
:1032700000F006F94FF01F0800BFFF2000F000F932
:10328000064606F0800030B15FEA0800A8F10101AF
:1032900001F0FF08F1D13046D0E710B5002400BF9F
:1032A000FF2000F0EDF8FF2801D1002010BD641CC4
:1032B0006FF07F408442F3D30120F7E72DE9F0411E
:1032C00006460F46154620480078062800D07F02A3
:1032D000012D0CD1012239461820FFF7A2FF044628
:1032E0006CBBFE213046FFF773FF044627E016480B
:1032F0000078012809D0012200213720FFF791FF33
:10330000012229461720FFF78CFF01223946192098
:10331000FFF787FF044694B900BFFC213046FFF752
:1033200057FF044606F50076681E80B2050001D0FE
:10333000002CF2D0FD210020FFF74AFF0446FFF7E2
:1033400099FD2046BDE8F081BC00002021B1028833
:1033500042F04002028004E002884FF6BF731A4038
:10336000028070471AB183880B43838002E0838810
:103370008B4383807047000010B504462448844284
:1033800008D101218014FFF781FC0021A014FFF770
:103390007DFC3CE01F48844208D101210014FFF766
:1033A00055FC00212014FFF751FC30E01A488442FC
:1033B00008D10121C013FFF749FC0021E013FFF7FA
:1033C00045FC24E01548844208D101214014FFF750
:1033D0005DFC00216014FFF759FC18E0104884429E
:1033E00009D101210805FFF751FC00214FF480109D
:1033F000FFF74CFC0BE00B48844208D10121480543
:10340000FFF744FC00214FF40010FFF73FFC10BD14
:103410000030014000380040003C004000340140D2
:1034200000500140005401400246002013890B4027
:103430000BB1012000E000207047014688897047E9
:103440008181704710B50022028802F441520B8836
:103450004C8823438C882343CC8823430C89234303
:103460004C8923438C892343CC8923431A4302800C
:10347000838B4FF2FF74234083830B8A038210BD3A
:1034800070B50546002407E0601C84B242F20F705C
:10349000844201DD002070BD02210F48FFF7C4FF08
:1034A0000028F1D029460C48FFF7CAFF002407E0A6
:1034B000601C84B242F20F70844201DD0020EAE712
:1034C00001210548FFF7B0FF0028F1D00248FFF7BF
:1034D000B4FFC0B2DFE700000030014000B587B0A4
:1034E00001210803FFF7C2FB01210220FFF78EFB39
:1034F0003820059002208DF8180000208DF81A0061
:1035000003208DF8190001208DF81B0005A927481C
:10351000FEF75CFA01210820FFF778FB08200590F0
:1035200001208DF8180005A92148FEF74FFA08215F
:103530001F48FEF7C1FA052203211C48FEF78EFA48
:10354000052204211948FEF789FA05221146174879
:10355000FEF784FA1748FFF70FFF0020ADF80000D0
:103560004FF48270ADF802000020ADF80400022094
:10357000ADF806000120ADF808004002ADF80A00E1
:103580003820ADF80C000020ADF80E000720ADF893
:10359000100069460748FFF755FF01210548FFF76E
:1035A000D5FEFF20FFF76CFF07B000BD000402400E
:1035B000000C024000300140704700000CB50020B4
:1035C000019000903448006840F48030324908602F
:1035D00000BF3148006800F4003000900198401CA2
:1035E0000190009818B90198B0F5A04FF1D12A4880
:1035F000006800F4003010B10120009001E00020CC
:1036000000900098012846D123484030006840F0DF
:1036100080502149403108602048006840F4404013
:103620001E4908601C48083000681B4908310860C2
:103630000846006840F4004008600846006840F40E
:10364000A05008601648091F0860081F006840F075
:103650008070091F086000BF0F48006800F000700C
:103660000028F9D040F205700E4908600A48083079
:10367000006820F003000849083108600846006827
:1036800040F00200086000BF03480830006800F006
:103690000C000828F8D10CBD003802400070004032
:1036A00019544007003C024010B500F069F810BD05
:1036B00030B515480068154AB0FBF2F1481EB0F16C
:1036C000807F01D301201BE0481E4FF0E0225061B3
:1036D00050170F22002807DA13071D0E0C4B00F0BD
:1036E0000F04241F1D5503E013071C0E094B1C5427
:1036F00000BF00204FF0E022906107201061002001
:1037000008B100BFFEE730BD00000020A086010028
:1037100018ED00E000E400E010B51548006840F442
:103720007000134908601348006840F00100114917
:10373000086000200F49083108600E4800680E49F3
:1037400008400C4908600D48091D0860081F006802
:1037500020F48020091F0860002006490C31086011
:10376000FFF72CFF4FF0006001498039086010BD61
:1037700088ED00E000380240FFFFF6FE1030002424
:103780000448006820B103480068401E01490860F1
:10379000704700003800002021B1828942F40052B5
:1037A000828104E082894DF6FF731A40828170475E
:1037B00002460020B1F5007F00D100BF13880B4006
:1037C0000BB1012000E00020704700002DE9FF4709
:1037D00005460E460024A14600BFA046B08900B1B0
:1037E00000BF2C8A24F44054F08804432C82AC8916
:1037F00041F20C608443B0883189084371890843E1
:103800000443AC81AC8A24F44074B0890443AC8294
:103810006846FFF74BFA2048854202D01F48854290
:1038200002D1DDF80C9001E0DDF80890A88900F4E1
:10383000004040B109EBC90000EB091031684900B4
:10384000B0FBF1F707E009EBC90000EB09103168A4
:103850008900B0FBF1F76420B7FBF0F00401200908
:10386000642101FB1078A88900F4004040B13220A7
:1038700000EBC800B0FBF1F000F00700044308E0E3
:10388000322000EB08106421B0FBF1F000F00F00D3
:1038900004432C81BDE8FF87001001400014014063
:1038A000C1F30802828070472DE9F84F81460E4629
:1038B00015461F46DDE90AA86A49F06811F810B0FC
:1038C000F06801EB400040780090706902285ED1FA
:1038D000B06958B1002405E05946484604F0B9FAE9
:1038E0002855641C082CF7DB032400E0002420E0AA
:1038F0005946484604F0ADFAC1B204EB440205F162
:10390000170081545946484604F0A3FAC1B204EBAB
:10391000440205F11700104441705946484604F02E
:1039200098FAC1B204EB440205F11700104481700B
:10393000641C062CDCDB20E04846009904F089FA80
:10394000C1B204EB440205F11700815448460099C6
:1039500004F07FFAC1B204EB440205F117001044F1
:1039600041704846009904F074FAC1B204EB440275
:1039700005F1170010448170641C0C2CDCDB002165
:1039800085F83D1085F83C1085F83B1068E0BAF1E9
:10399000000F15D1002405E05946484604F059FAB5
:1039A0002855641C0B2CF7DB0B2405E048460099D6
:1039B00004F04FFA2855641C152CF7DBBDE8F88F8E
:1039C0000024386838B103E018F804002855641C56
:1039D000062CF9DB08E005E05946484604F039FAC0
:1039E0002855641C062CF7DB786838B103E018F81A
:1039F00004002855641C0B2CF9DB08E005E059464F
:103A0000484604F026FA2855641C0B2CF7DBB868EE
:103A100038B103E018F804002855641C102CF9DBB9
:103A200008E005E04846009904F013FA2855641CA4
:103A3000102CF7DBF86838B103E018F804002855BB
:103A4000641C152CF9DB08E005E04846009904F0F9
:103A500000FA2855641C152CF7DB00206875A87542
:103A600000BFABE72C6A03082DE9FF4F8DB08946F4
:103A70009046DDF870B0D9F80C400020029001901B
:103A80001B9800F0010010B11A98012849D0B4F534
:103A9000C87F13DA2011052190FBF1F00790201167
:103AA00090FBF1F201FB12000890C4F38100099031
:103AB00004F003000A904FF0000A76E0B4F5FA7FB4
:103AC00014DAA4F5C874A010052190FBF1F007905A
:103AD000A01090FBF1F201FB1200089004F003002B
:103AE000099000200A904FF0010A5EE0A4F5FA74F4
:103AF000032094FBF0F00790032094FBF0F100FB0F
:103B00001140089000200A900990D9F8180018B1C7
:103B10000898099007980890012002904FF0020A37
:103B200043E004F0010001906410B42C1CDA24205E
:103B300094FBF0F00790242094FBF0F100FB11407F
:103B4000062190FBF1F00890242094FBF0F100FB9B
:103B50001140062190FBF1F201FB120009900020B8
:103B60000A904FF0030A20E0F42C0EDAB43CC4F3C0
:103B700001100790C4F38100089004F0030009903D
:103B800000200A904FF0040A0FE0F43C032094FB5D
:103B9000F0F00790032094FBF0F100FB1140089037
:103BA00000200A9009904FF0050A00200C90D9F8E7
:103BB0001400022806D1D9F8180008B1022000E04C
:103BC00001200C9000250CE00AEB4A00584901EB5B
:103BD00080010C9801EB8000405D03A941F82500AD
:103BE0006D1C042DF0DB1B9800F00100C0B11A9889
:103BF000012815D100250EE007A850F825100BF17B
:103C0000040040F8251003A850F825100BF114000B
:103C100040F825106D1C042DEEDB0198CBF8000058
:103C20000298C9F83C00D9F81400022859D1D9F8F3
:103C3000180090B1012007998840401E0B90002782
:103C400006E007990D9804F004F908F807007F1CB6
:103C5000062FF6DB0327012601E00027002636E0C9
:103C600007A810F8261001208840401E0B90002560
:103C700027E007A850F826100D9804F0EAF8C1B222
:103C800007EB470208F11700815407A850F82610E7
:103C90000D9804F0DEF8C1B207EB470208F11700F7
:103CA0001044417007A850F826100D9804F0D1F880
:103CB000C1B207EB470208F11700104481706D1C78
:103CC0007F1C03A850F82600A842D2DC761C032EE5
:103CD000C6DD002188F83D1088F83C1088F83B10BC
:103CE00022E00027002618E007A810F8261001207F
:103CF0008840401E0B90002509E007A850F82610C8
:103D00000D9804F0A6F808F807006D1C7F1C03A8A6
:103D100050F82600A842F0DC761C032EE4DD0020DB
:103D200088F8160088F8150011B0BDE8F08F000083
:103D30004C6A030800BFFEE710B502A000F030F99E
:103D4000002010BD4932432054696D656F757420A1
:103D50006572726F7221000070B505460C46012134
:103D60003548FDF7D9FF4FF480403449086008E03A
:103D700032490868411E314A116010B9FFF7DCFF73
:103D800070BD2F492C48FDF771FF0028F0D00022AC
:103D900034212948FEF790F84FF480402749086005
:103DA00008E026490868411E244A116010B9FFF74F
:103DB000C3FFE5E723492048FDF758FF0028F0D06E
:103DC000FE2000EA4500C4F3002240EA02011A483E
:103DD000FEF77AF84FF480401849086008E0174968
:103DE0000868411E154A116010B9FFF7A5FFC7E723
:103DF0001449891E1048FDF739FF0028EFD0E1B2C1
:103E00000D48FEF761F84FF420300C49086007E0D8
:103E10000A490868411E094A116008B9FFF78CFF7A
:103E200009490548FDF790FF0028F1D0012102481B
:103E3000FDF77EFF0120A3E7005400403C00002076
:103E40000100030082000700040000102DE9F04F7C
:103E500085B006460D4617460396022F6CD107EB38
:103E6000C7004E4901EB0014B168A069FCF7A8F93E
:103E70008346B1692068FCF7A3F95844286071684B
:103E8000E069FCF79DF98346F1696068FCF798F9F1
:103E9000584468603168206AFCF792F98346316AB9
:103EA000A068FCF78DF95844A8603168606AFCF797
:103EB00087F98346316AE068FCF782F95844E86084
:103EC0007168A06AFCF77CF98346F1692069FCF708
:103ED00077F958442861B168E06AFCF771F98346C4
:103EE000B1696069FCF76CF9584468617169A0694F
:103EF000FCF766F9A8613169E069FCF761F9E861EE
:103F0000F168206AFCF75CF92862F168606AFCF7E6
:103F100057F968623169A06AFCF752F9A8627169C1
:103F2000E06AFCF74DF9E862002068642864E86301
:103F3000A863686328632EE007EBC700174901EB0D
:103F4000001000F1480404F144000090A84605F177
:103F5000440A4FF009091BE0039800680490039895
:103F6000001D039001CC0290009800680190009819
:103F7000001F009004990298FCF722F948F8040BFE
:103F800004990198FCF71CF94AF80409A9F1010900
:103F9000B9F1000FE0DC05B0BDE8F08F946A0308CA
:103FA0000FB4054B10B503A9044A029800F018F8A5
:103FB00010BC5DF814FB00000D560008CC0000207A
:103FC00002E008C8121F08C1002AFAD170477047E2
:103FD000002001E001C1121F002AFBD17047000040
:103FE0002DE9FF4F8BB09A460F460546002606E0A6
:103FF00025280BD052460D9990476D1C761C2878C9
:104000000028F5D10FB03046BDE8F08F0024A0465F
:104010000122604900E0044315F8013F203B02FA09
:1040200003F00842F7D128782E2817D115F8010F90
:1040300044F004042A280ED06FF02F022878A0F153
:10404000300109290AD808EB880102EB410100EB95
:1040500001086D1CF2E757F8048B6D1C287869285D
:104060003ED006DC0028CDD063280BD0642804D1D4
:1040700036E0732810D075284BD052460D999047E2
:10408000761C85E017F8040B8DF8000000208DF8F1
:104090000100E946012003E057F8049B4FF0FF3090
:1040A00061074FF0000401D40AE0641C44450DDAB6
:1040B0008442FADB19F804100029F6D106E0641CEA
:1040C0008442FCDB19F804100029F8D1264404E0EE
:1040D00019F8010B52460D999047641EF8D257E02B
:1040E00001CF4FF00A0B002802DA40422D2102E0F6
:1040F000210504D52B218DF82410012103E0E107CF
:1041000005D02021F7E70DF1200908910CE00021EE
:10411000F9E701CF4FF00A0BF9E75946FCF783FCAA
:1041200001F1300209F8012D0028F6D1ADEB0900AC
:1041300000F1200B600701D44FF00108D84502DDE3
:10414000A8EB0B0000E000208046002406E009A850
:104150005246005D0D999047641C761C0898844275
:10416000F5DB04E0302052460D999047761CB8F1FB
:104170000001A8F10108F5DC05E019F8010B524631
:104180000D999047761CBBF10001ABF1010BF4DCFB
:104190006D1C34E70928010070B504460D46002067
:1041A0002071401EE0622946204601F07BFD08B1E7
:1041B000032070BD94F82E1294F82F0241EA0020DB
:1041C0004AF65521884201D00220F2E794F86900AE
:1041D000010694F8680041EA004194F8670041EA5A
:1041E000002094F86610084320F07F400D49884273
:1041F00001D10020DDE794F88500010694F88400E1
:1042000041EA004194F8830041EA002094F88210CA
:10421000084320F07F400349884201D10020C8E7CD
:104220000120C6E746415400024600E0521C1078C7
:1042300010B110788842F9D1107870470246891E73
:104240005069801E884201D8002070479378906A98
:1042500001FB0300F9E700002DE9F04780460C461A
:10426000A17EE07E41EA002010B10020BDE8F08789
:10427000207800F03F00401E00EB800101EBC006FB
:104280004FF00109002524E01A48405D205C1949DF
:10429000495D2144497840EA0127B9F1000F11D066
:1042A000FF2E0BD2384600F00FFF82463146761CB7
:1042B00038F8110000F008FF824501D00020D5E752
:1042C000B94605E04FF6FF70874201D00020CDE7E8
:1042D0006D1C0D2DD8D3207800F0400038B1B9F115
:1042E000000F04D038F8160008B10020BEE7012006
:1042F000BCE70000A48D00082DE9F047044689467C
:10430000B9F1000F06D1E76817B16069B84215D856
:10431000012713E04946204601F0F0F90646022E37
:1043200002D20120BDE8F087701C08B93046F9E7D9
:104330006069B04201D93046F4E74F463D4600BFC0
:104340006D1C6069A84204D80225BD4201D9002035
:10435000E8E72946204601F0D1F9064606B909E00A
:10436000701C08B1012E01D13046DBE7BD42E7D118
:104370000020D7E700BF6FF070422946204601F0C9
:104380007BFF8046B8F1000F08D1B9F1000F05D0CE
:104390002A464946204601F06FFF8046B8F1000FDB
:1043A0000BD1E5602069401C78B12069401E206176
:1043B000607940F00100607107E0B8F1010F02D1AF
:1043C0004FF0FF3000E0012005462846AAE7000034
:1043D0002DE9F34F83B0814604980068019002E014
:1043E0000198401C0190019800782F28F8D001987E
:1043F00000785C28F4D0D9F81CA000252F4600BF17
:1044000038467F1C01990C5C202C03DB2F2C01D03B
:104410005C2C00D132E0FF2D03D3062005B0BDE8AF
:10442000F08FE4B2812C13DBE0B2FE2810DC3846BA
:104430007F1C01990E5C06EB042084B2402E01DB48
:104440007E2E05DD802E01DBFE2E01DD0620E5E758
:104450000121204600F0FAFD04460CB90620DDE7F4
:10446000802C06DA214671A0FFF7DEFE08B1062097
:10447000D4E728466D1C2AF81040C1E700BF019818
:10448000C11904980160202C01DA042000E000200A
:10449000804608E0681E3AF81040202C02D02E2CEE
:1044A00000D002E06D1E002DF4D100BF0DB9062032
:1044B000B4E700202AF815000B222021D9F81800B3
:1044C00001F0E6FB002700E07F1C3AF817002028E7
:1044D000FAD03AF817002E28F6D00FB148F00308AA
:1044E00000E06D1E25B1681E3AF810002E28F8D1A4
:1044F0000020064602904FF0080B00BF38467F1C94
:104500003AF8104004B963E0202C03D02E2C04D1DB
:10451000AF4202D048F00308F0E70298584501D2B4
:10452000AF4214D1BBF10B0F02D148F003084FE0AA
:10453000AF4201D048F00308AF4200D948E02F460F
:10454000082002904FF00B0BB006060ED6E7802C29
:1045500009DB204600F0B8FD0021009000F076FD58
:10456000044648F00208FF2C11DDABF1010002996E
:10457000884204D848F00308CDF808B0BEE72212FC
:10458000D9F818300298411C02911A5419E024B14C
:10459000214629A0FFF748FE18B15F2448F0030820
:1045A0000FE0412C04DB5A2C02DC46F0020608E046
:1045B000612C06DB7A2C04DC46F00106A4F1200015
:1045C00084B2D9F818300298411C02911C5495E726
:1045D00000BFD9F818000078E52803D10520D9F8E4
:1045E00018100870BBF1080F01D1B006060E06F0D6
:1045F0000C000C2803D006F00300032801D148F07A
:10460000020808F0020058B906F00300012801D1A1
:1046100048F0100806F00C00042801D148F0080802
:10462000D9F8180080F80B800020F7E6222A3A3CDF
:104630003E3F7C7F000000002B2C3B3D5B5D00007B
:104640002DE9F04104460E460021204600F0CDF948
:104650000546EDB9002700BF2169206801F022FB63
:10466000054605B113E060690078E52802D060696D
:10467000007820B9781C0746B04201D107E0002736
:104680000121204600F07FF80546002DE4D000BF50
:10469000042D00D107252846BDE8F0812DE9F0471B
:1046A00004460021204600F0A0F9074617B138461D
:1046B000BDE8F0874FF0FF09CA464FF6FF7020842F
:1046C00000BF2169206801F0EDFA074607B157E005
:1046D00065692E780EB9042752E0E87A00F03F08A9
:1046E000E52E05D008F0080040B1B8F10F0F05D055
:1046F0004FF0FF094FF6FF7020843AE0B8F10F0F3A
:104700001CD1E06978B306F0400030B195F80DA0F7
:1047100026F04006B146E08820844E450AD1687BE9
:10472000504507D12946E069FFF796FD10B1A9F180
:10473000010000E0FF2000F0FF091AE0B9F1000FCE
:1047400005D1284601F09AFE504500D118E0A06935
:10475000C07A00F0010038B90B222846A16901F0A7
:1047600077FA08B90CE004E04FF0FF094FF6FF704C
:1047700020840021204600F006F80746002FA0D034
:1047800000BF384694E72DE9F04104468846E088AA
:10479000461CB0B208B1206910B90420BDE8F08110
:1047A00021684889C11700EBD1614911B6FBF1F2CC
:1047B00001FB1261002971D12069401C2061E06871
:1047C00028B920680089B04268D80420E6E721684B
:1047D0004889C11700EBD1614911B6FBF1F122689C
:1047E0009278521E1140002958D1E168206800F0EB
:1047F00085FF0546012D01D80220CFE7681C08B9C6
:104800000120CBE720684069A84241D8B8F1000FE9
:1048100001D10420C2E7E1682068FFF76DFD05467D
:104820000DB90720BAE7012D01D10220B6E7681CB7
:1048300008B90120B2E7206801F094FE08B1012018
:10484000ACE721684A8901F13000002101F020FA2B
:1048500029462068FFF7F2FC2168C86200270EE0B5
:10486000012021680871206801F07CFE08B1012058
:1048700094E72068C06A401C2168C8627F1C2068D9
:104880008078B842ECD82068C06AC01B2168C86232
:10489000E56029462068FFF7D1FC2061E6802168A9
:1048A0004889C11700EBD1614911B6FBF1F201FB58
:1048B00012612268303202EB4111616100206DE724
:1048C0002DE9FE4F0446D4F81880D4F81C900C2231
:1048D0004146684601F0CFF900BF9DF80B0000F09B
:1048E000010020B3002088F80B00E06101260CE0F5
:1048F00033464A466946404600F09AFE2046FFF796
:10490000CDFE054605B102E0761C642EF0D300BF53
:10491000642E02D10720BDE8FE8F042D01D0284669
:10492000F9E79DF80B0088F80B00C4F81C909DF87F
:104930000B0000F0020060B1002600E0761C39F8A0
:1049400016000028FAD106F119000D21B0FBF1F78D
:1049500000E0012739462046FFF772FE054645BBB9
:10496000781E070025D0E088C11B204600F03DF8E6
:104970000546F5B9A06901F081FD824600BF2169B5
:10498000206801F08FF9054605B111E0FAB25346EF
:104990006169E06900F0B2FD012021680871002121
:1049A0002046FFF7F0FE054615B9781E0700E6D150
:1049B00000BFC5B92169206801F074F9054695B9B1
:1049C00020220021606901F063F90B22D4E905017E
:1049D00001F051F9A069C07A00F01800616908730C
:1049E000012021680871284695E72DE9F041044629
:1049F0000E46E680A568012D03D020684069A842D4
:104A000002D80220BDE8F0812DB920680078032883
:104A100001D12068456A45B920680089B04201D8B3
:104A20000220EFE72068476A24E021684889C1171F
:104A300000EBD16149112268927811FB02F812E073
:104A40002946206800F05AFE0546681C08B9012076
:104A5000D8E7022D03D320684069A84201D802207C
:104A6000D0E7A6EB08064645EAD229462068FFF7BC
:104A7000E5FB0746E5600FB90220C3E721684889D6
:104A8000C11700EBD1614911B6FBF1F13944216145
:104A900021684889C11700EBD1614911B6FBF1F2D9
:104AA00001FB12612268303202EB4111616100208A
:104AB000A8E770B50446012514B1012C09D107E01F
:104AC000FEF748FA10B925F0010500E0012502E0E3
:104AD00001E0012500BF00BF284670BD2DE9F0416F
:104AE00005460E461446042715B1012D18D116E0CF
:104AF0008EB1012E0BD0022E02D0032E0CD103E07A
:104B00004FF40070208007E00120206004E0FEF7F1
:104B1000E5F9206000E000BF00BF002702E001E0EF
:104B2000042700BF00BF3846BDE8F0812DE9F04101
:104B300004460D4616461F464FF0040814B1012CDA
:104B40000DD10BE0BAB231462846FEF7C7FA10B1D4
:104B50004FF0040801E04FF0000803E002E04FF0DE
:104B6000040800BF00BF4046BDE8F08101460120B7
:104B700011B1012904D102E020F0010002E001E0BE
:104B8000012000BF00BF70472DE9F04105460E46E9
:104B900017461C464FF0040814B90420BDE8F08104
:104BA00015B1012D0DD10BE0A2B239463046FEF70A
:104BB00085FB10B14FF0040801E04FF0000803E05E
:104BC00002E04FF0040800BF00BF4046E6E770B5C2
:104BD0000546284600F0E1F9044634B9284601F0BC
:104BE000EAFC04460CB900202860204670BD000095
:104BF000F7B582B016460398019001A800F022FE96
:104C00000546002D02DA0B2005B0F0BD0E4850F825
:104C100025400CB100202070029810B100200299AC
:104C200008700949029841F82500029808B1012E40
:104C300001D00020E8E7002203A902A800F072FAE0
:104C400007463846E0E70000C00000202DE9F743A2
:104C5000ADF50C7D0546164625B909200DF50F7DED
:104C6000BDE8F0830020286006F01F0626F0010250
:104C70008DA983A800F056FA0746002F74D180A8AA
:104C80008990CDF828D283A88D9900F077FC07464B
:104C9000889C0FB904B9062706F01C0000285CD0D8
:104CA0004FB1042F03D183A8FFF70AFE074646F051
:104CB0000806889C09E0E07A00F0110008B1072797
:104CC00003E006F0040000B10827002F55D106F0DC
:104CD0000800002851D000F0B1FD804684F80E8015
:104CE0004FEA1821E1734FEA184121744FEA186125
:104CF000617484F816804FEA1821E1754FEA184173
:104D000021764FEA186161760020E0722077002159
:104D10006177A177E1772146839800F021FF8146F2
:104D20000021204601F0A2FB012083990871B9F10E
:104D3000000F22D08398D0F82C804946839801F048
:104D40005FFB0746CFB9A9F101008399C8604146CE
:104D5000839800F0A7FF07460FE077B9E07A00F0EC
:104D6000100010B1042708E02DE006F0020020B189
:104D7000E07A00F0010000B1072747B906F008000B
:104D800008B146F020068398C06AE8612C62D7B962
:104D9000AE710020E8712146839800F0E1FE2861A1
:104DA000E07F0106A07F41EA0041607F41EA0020E8
:104DB000217F0843E8600020A860A86183982860EC
:104DC0002868C088A880384648E72DE9FF4F85B09D
:104DD000044615469A46DDF818B00020CAF80000CF
:104DE000204601F0E8FB0490049818B1049809B03B
:104DF000BDE8F08FE07908B1E079F8E7A07900F03C
:104E0000010008B90720F2E7D4E90210401A029025
:104E10000298854200D9029DBAE021684989A068BC
:104E2000B0FBF1F201FB1200002877D1216849891B
:104E3000A068B0FBF1F021688978491E084000F0B5
:104E4000FF09B9F1000F17D1A06810B920690390CC
:104E500004E06169206800F051FC03900398022887
:104E600002D20220E071C2E70398401C10B9012071
:104E7000E071BCE70398606161692068FFF7DEF9C3
:104E8000064616B90220E071B1E74E442068408919
:104E9000B5FBF0F8B8F1000F2DD009EB0800216840
:104EA0008978884203D920688078A0EB09082168B6
:104EB0004878434632465946FFF738FE10B1012084
:104EC000E07194E7A07900F0400078B1A069801B00
:104ED00040450BD2A169891B23685B8901FB03B0A4
:104EE00021684A8904F1240100F0C5FE2068408948
:104EF00000FB08F742E0A069B04220D0A07900F0A2
:104F0000400080B121684878012304F12401A2699E
:104F1000FFF73AFE18B10120E07168E710E0A079D0
:104F200020F04000A071216848780123324604F146
:104F30002401FFF7FBFD10B10120E07157E7A661E6
:104F400021684989A068B0FBF1F201FB12002168D9
:104F500049890F1AAF4200D92F4621684989A068B4
:104F6000B0FBF1F201FB120104F1240008443A46BF
:104F700001460190584600F07EFE00BFBB44A06889
:104F80003844A060DAF800003844CAF80000ED1B8D
:104F9000002D7FF442AF002029E72DE9F0410446BF
:104FA000204601F008FB0746002F4CD1A07900F005
:104FB0002000002847D0A07900F0400078B1216897
:104FC0004878012304F12401A269FFF7DDFD10B147
:104FD0000120BDE8F081A07920F04000A071E169D6
:104FE000206800F05FFE0746002F2CD1256AE87A82
:104FF00040F02000E872207B2877A089010A6977B9
:10500000E068010CA977E068010EE977284621697C
:1050100001F02CFA00F012FC0646AE75310AE97573
:10502000310C2976310E69760020A8740021E974CC
:10503000A07920F02000A07101202168087120686B
:1050400001F02CFA07463846C3E700002DE9F0418D
:1050500002460F46802A01DA10462FE01FB1184B96
:1050600045F2205602E0174B45F220560025102449
:1050700016E0A6EB050C0CEBDC7805EB68014FEABB
:10508000410C33F81CC0944500D10BE04FEA410CB1
:1050900033F81CC0944501DA0D4600E00E46641E4C
:1050A000002CE6D100BF34B14FF0010C0CEB410CE9
:1050B00033F81CC001E04FF0000C6046BDE8F08101
:1050C00062E20108DE8D000830B5802807DA612829
:1050D00023DB7A2821DCA0F12005A8B21DE00C22F8
:1050E00000234FF4F77400BFE51A03EB55010B4D95
:1050F00035F81150854200D10AE0084D35F81150BD
:10510000854201DA0B4600E00C46551E2A00EBD121
:1051100000BF12B1024D35F8110030BDE63603086C
:10512000C23A03082DE9F74F8AB000210A980160BE
:105130000B9800F087FB09900998002803DA0B20F0
:105140000DB0BDE8F08FE949099851F820400CB93D
:105150000C20F5E70A980460207878B16078FFF7B2
:1051600005FD814609F0010040B90C9820B109F015
:10517000040008B10A20E3E70020E1E700202070E6
:10518000099860706078FFF794FC814609F001008F
:1051900008B10320D4E70C9820B109F0040008B14D
:1051A0000A20CDE7607804F10A020221FFF796FC9D
:1051B00038B96089B0F5007F03DB6089B0F5805FA6
:1051C00001DD0120BCE7002739462046FEF7E4FF59
:1051D0000546012D01D09DBB32E000261AE004F502
:1051E000F77000EB061898F8040070B198F80B00FF
:1051F000010698F80A0041EA004198F8090041EADE
:10520000002098F80810084300E0002002A941F8A7
:105210002600761C042EE2D3002606B1761E00BFBF
:1052200002A850F8267027B139462046FEF7B4FF91
:1052300000E0022005461DB1701C06460428EFD38D
:10524000032D01D101207BE70DB10D2078E73B2034
:10525000015D94F83C0041EA00206189884201D058
:105260000D206DE74620015D94F8470041EA002AD1
:10527000BAF1000F0ED194F85700010694F85600C9
:1052800041EA004194F8550041EA002094F8541096
:1052900040EA010AC4F818A04020005DE070E07800
:1052A000012804D0E078022801D00D2048E7E078FA
:1052B0000AFB00FA3D20005DA070A07818B1A0782C
:1052C000411E084008B10D203AE74120015D94F8E5
:1052D000420041EA002020816089C11700EBD161C2
:1052E0004911228992FBF1F301FB132109B10D2031
:1052F00026E74320015D94F8440041EA002008902D
:10530000089870B994F85300010694F8520041EAE5
:10531000004194F8510041EA002094F850100843ED
:1053200008903E20015D94F83F0041EA0020019082
:10533000019808B90D2003E76089C11700EBD1611E
:105340004911228992FBF1F20199514411440791CC
:10535000DDE90710884201D20D20F1E6DDE90710F2
:10536000401AA178B0FBF1FBBBF1000F01D10D2079
:10537000E6E6012540F6F670834500D302254FF698
:10538000F670834500D303250BF102006061E761ED
:1053900001983844206207983844A062032D16D142
:1053A000208908B10D20CBE694F85F00010694F83F
:1053B0005E0041EA004194F85D0041EA002094F863
:1053C0005C100843606260698000069014E02089E8
:1053D00008B90D20B4E6206A50446062022D02D163
:1053E0006069400007E0207D00F00100616901EB89
:1053F000410100EB510006906089401E0699084467
:105400006189B0FBF1F0A169884201D90D2097E6CE
:105410004FF0FF302061E06080206071032D5AD191
:1054200094F8601094F8610041EA0020012852D1FC
:10543000791C204600F036FCE8BB0020607194F82F
:105440002E1294F82F0241EA00204AF65521884294
:1054500041D13320005D01063220005D41EA004168
:105460003120005D41EA002094F8301008432049C3
:10547000884230D194F81702010694F8160241EAE6
:10548000004194F8150241EA002094F814120843F0
:10549000184988421FD194F81B02010694F81A0299
:1054A00041EA004194F8190241EA002094F81812E8
:1054B0000843206100E00EE094F81F02010694F812
:1054C0001E0241EA004194F81D0241EA002094F8CE
:1054D0001C120843E060257007480088401C80B219
:1054E00005490880E08000202AE60000C000002076
:1054F0005252614172724161C8000020F0B5044609
:105500001D464D730F27CF7200270F738F76BC4651
:1055100081F81BC0571E07EB870C0CEBC706002752
:1055200038463B4600BF4FF6FF77B84203D03746B8
:10553000761C34F81700DFF840C01CF803C001F8EF
:105540000C000712DFF830C01CF803C08C448CF844
:10555000017008B94FF6FF705F1C3B460D2FE2D378
:105560004FF6FF77B84202D034F816700FB942F008
:1055700040020A70F0BD0000A48D00082DE9F3413F
:105580000446019800782F2803D0019800785C2801
:1055900002D10198401C01900020A0600198007881
:1055A000202807D200212046FFF71FFA05460020D9
:1055B000606128E000BF01A92046FEF709FF05460B
:1055C00005B11FE02046FFF769F80546A069C67AD5
:1055D0003DB1042D04D100BF06F0040000B905253B
:1055E00010E006F0040000B10CE06769F87A00F002
:1055F000100008B9052505E03946206800F0B0FA2A
:10560000A060D8E700BF2846BDE8FC8170B504461D
:105610000D46E1B20548FEF743F900BF802103487B
:10562000FEF7C6F80028F9D0204670BD00100140F2
:105630002DE9FF4F83B0074691461E460B223846A0
:10564000049900F018FB052E19D9B04612E039F87C
:1056500002BB00250CE0584668F35F0080464FEA25
:105660006B0B08F4803010B1234888EA00086D1CE9
:10567000102DF0D3B9F800000028E8D146460725E0
:1056800000BF06F00F0000F1300ABAF1390F03DD58
:105690000AF1070000F0FF0A28466D1E01A901F873
:1056A00000A03609002EECD17E20485500240BE0E6
:1056B000385D812807DB385DFE2804DC681EA042C7
:1056C00000D106E0641C641CAC4202D2385D202884
:1056D000EED100BF00BF082D04D228466D1C01A9E1
:1056E000095C00E020212046641C3954082CF2D3C8
:1056F00007B0BDE8F08F0000211001002DE9F05F38
:1057000004460D46022D02D36069A84202D84FF02C
:1057100001098FE04FF0FF392078012804D00228DA
:105720003CD003287ED157E02F4607EB570760890E
:10573000B7FBF0F0216A00EB010A5146204600F069
:10574000B1FA00B175E038467F1C6189B0FBF1F217
:1057500001FB120104F1300010F801806089B7FBF1
:10576000F0F0216A00EB010A5146204600F09AFA57
:1057700000B15EE06089B7FBF0F100FB117104F14C
:105780003000405C48EA002805F0010010B14FEA03
:10579000181001E0C8F30B0081464AE0B4F80AA0F3
:1057A0000AEBDA704010B5FBF0F0216A00EB010B58
:1057B0005946204600F076FA00B13AE06800618967
:1057C000B0FBF1F201FB120104F130000E18307849
:1057D000717840EA01292CE0B4F80AA04FEAEA7097
:1057E0000AEB90708010B5FBF0F0216A00EB010B22
:1057F0005946204600F056FA00B11AE0A800618927
:10580000B0FBF1F201FB120104F130000E18F07848
:105810000006B17840EA0140717840EA0120317811
:10582000084300E002E020F0704902E04FF0010977
:1058300000BF00BF4846BDE8F09F00000048704729
:105840000000214670B502464FF0FF301568E5B103
:10585000116800E0491C0D78202D02D30D783A2DF7
:10586000F8D10D783A2D0FD1146814F8015BA5F129
:1058700030030A2B07D28C4205D1022B03D21846E3
:105880004D1C2946156070BD002000BFFBE70000DD
:105890002DE9F04FA7B00446206806906568A66819
:1058A000E06805902069049060690390A069029007
:1058B000E0690190206A009002990698401A2690AB
:1058C0000398281A25900398284424900498301AA5
:1058D00023900498304422900098304421900198FD
:1058E00028442090DDE92101401A1F902099249836
:1058F000401A1E9001992598401A1D9000992398EE
:10590000401A1C9054480599FAF75AFC10905248D6
:105910001D99FAF755FC0F9050482299FAF750FC60
:105920000E904F482199FAF74BFC0D904B481F9968
:10593000FAF746FC0C904A482299FAF741FC0B9082
:1059400048481E99FAF73CFC0A9047482099FAF714
:1059500037FC099043482499FAF732FC08904248F2
:105960001E99FAF72DFC0790A169206800EB6100F1
:105970001B9010991B9800EB410710991B98A0EB06
:1059800041081C99269800EB61001A900E9841007E
:105990000D9801EB40090C9841000B98A1EB400ACF
:1059A00009EB0A0019900A984100099801EB400B95
:1059B000089841000798A1EB400018901898A0EBB8
:1059C0000B00179007EB0900169008EB09001590E3
:1059D00008EB0A00149007EB0A0013901998A8EB43
:1059E000000012901998381A119016985844069091
:1059F000069820600F991A9800EB41056560189988
:105A000014984618A66017991298401A05900598A0
:105A1000E0601C992698401A049004982061179918
:105A20001198084403900398606118991398401ADC
:105A300002900298A0610F991A98A0EB4100019082
:105A40000198E0611598A0EB0B000090009820628F
:105A500027B0BDE8F08F0000A1EBD96E8BBE0D62C0
:105A60007E1A3A1649DD4652322E0E7E2DE9FE4F41
:105A700004460D46D4F800800C3426680C34D4F863
:105A800000B00C3427680C34D4F800900C34D4F8EF
:105A900000A00C34A9EB0A09A7EB0907ABEB070B35
:105AA000A7EB0A07A6EB0B06A8EB0608F61B4FEAC6
:105AB0006808761059462848FAF782FB40000290A1
:105AC00008EB69000190A8EB09000090DDE90101F5
:105AD00000EB0108DDF800B0DDE90101A0EB0109F0
