:020000040800F2
:10000000988000209D01000847040008170400089C
:1000100045040008970200085D0F0008000000007A
:10002000000000000000000000000000570D000864
:10003000C90200080000000049040008110E000871
:10004000B7010008B7010008B7010008B7010008B0
:10005000B7010008B7010008B7010008B7010008A0
:10006000B7010008B7010008B7010008B701000890
:10007000B7010008B7010008B7010008B701000880
:10008000B7010008B7010008B7010008B701000870
:10009000B7010008B7010008B7010008B701000860
:1000A000B7010008B7010008B7010008B701000850
:1000B000B7010008B7010008B7010008B701000840
:1000C000B7010008B7010008B7010008B701000830
:1000D000B7010008B7010008B7010008B701000820
:1000E000B7010008B7010008B7010008B701000810
:1000F000B7010008B7010008B7010008B701000800
:10010000B701000881050008B7010008B701000821
:10011000B7010008B7010008B7010008B7010008DF
:10012000B7010008B7010008B701000899020008EC
:10013000B7010008B7010008B7010008B7010008BF
:10014000B7010008B7010008B7010008B7010008AF
:10015000B7010008B7010008B7010008B70100089F
:10016000B7010008B7010008B7010008B70100088F
:10017000B7010008B7010008B7010008B70100087F
:10018000B7010008B7010008DFF80CD000F046F80E
:1001900000480047753C00089880002006488047CA
:1001A00006480047FEE7FEE7FEE7FEE7FEE7FEE75C
:1001B000FEE7FEE7FEE7FEE7150E000889010008EE
:1001C000421C10F8011B0029FBD1801A704702461F
:1001D000C9B200E0401C0378002BFBD102E0037899
:1001E0008B4203D0401E9042F9D20020704730B5B8
:1001F0000B46014600202022012409E021FA02F5E5
:100200009D4205D303FA02F5491B04FA02F528447E
:10021000151EA2F10102F1DC30BD0000064C074DB5
:1002200006E0E06840F0010394E8070098471034C6
:10023000AC42F6D3FFF7ACFFC0F00208E0F00208D2
:1002400070B58C1810F8015B15F0070301D110F898
:10025000013B2A1106D110F8012B03E010F8016BC5
:1002600001F8016B5B1EF9D12B0705D40023521E48
:100270000DD401F8013BFAE710F8013BCB1A921CB0
:1002800003E013F8015B01F8015B521EF9D5A142AE
:10029000D8D3002070BDFEE700F0B2BA074A904202
:1002A00001D2074801E005481038064A8B0001EAF0
:1002B000020101D5C160704781607047106402403F
:1002C000006002407D0F7D0F7047000070B586B062
:1002D0000121084600F0BAF80121102000F0D2F800
:1002E0001E4E07220A21304600F07AF80722092123
:1002F000304600F075F800248DF8164001208DF886
:10030000170002258DF81450410204918DF8155004
:1003100004A9304600F026F88DF8145068020490C5
:1003200004A9304600F01EF84FF4E1300090ADF81B
:100330000440ADF80640ADF80840ADF80C400C2084
:10034000ADF80A00064C6946204600F0A5FD0121E3
:10035000204600F08DFD06B070BD00000000024098
:10036000001001402DE9F041002201274FF0030C5D
:1003700007FA02F50B682B40AB422CD106685300FC
:100380000CFA03F4A64306600E79D0F800809E4074
:1003900046EA080606600E79012E01D0022E12D11F
:1003A0008668A64386604E79D0F808809E4046EA6B
:1003B000080686604668AE43466045688E7996407A
:1003C000B6B235434560C568A543C560CC799C404D
:1003D000C3681C43C460521C102AC9D3BDE8F08115
:1003E00010B54B07DB0E9A40C90800EB8100016A8B
:1003F0000F249C40A1430162016A1143016210BDB8
:100400000246002012690A4200D001207047418351
:10041000704701837047FEE71CB50121042000F0FE
:1004200015F80820009000208DF804008DF80700D2
:100430008DF8050069460248FFF794FF1CBD0000D7
:1004400000080240FEE7704770470000054A002997
:1004500003D0116801431160704711688143116036
:100460007047000030380240054A002903D0116867
:1004700001431160704711688143116070470000AB
:1004800020380240054A002903D011680143116059
:100490007047116881431160704700004438024082
:1004A000054A002903D011680143116070471168A3
:1004B00081431160704700002438024070B5244B1E
:1004C000196801F00C01234C00291ED0224E04298A
:1004D0001DD008291DD00460196801F0F001090938
:1004E0001E4A545C0168E14041601C6804F4E05419
:1004F000A40A145D21FA04F484601B6803F46043C9
:100500005B0BD25CD140C16070BD0460E4E7066063
:10051000E2E70F4A121F1168C1F38055116801F01C
:100520003F0135B1B6FBF1F11468C4F3881461439F
:1005300005E0B4FBF1F11468C4F388146143126858
:10054000C2F30142521C5200B1FBF2F10160C3E759
:10055000083802400024F40040787D0100000020AB
:100560000149086070470000382C01400146002016
:10057000024A12680A4200D001207047342C014020
:1005800000F052B9054A002903D0116801431160F7
:100590007047116881431160704700003C2C014096
:1005A00010B508210348FFF734FFBDE81040FF20D5
:1005B00000F000BB000C024070B50546012200218E
:1005C000092000F00FFA044624B91021284600F053
:1005D000AFF90446FFF7E4FF0CB1012070BD002025
:1005E00070BD70B505464FF6FF7401E0641EA4B2FD
:1005F000FF2000F0DFFAA84201D0002CF6D10CB1A8
:10060000002070BDFF2070BD1FB56846FFF7D4FF06
:1006100010B1002004B010BD9DF800100120B0EB17
:10062000911F09D19DF808209DF8091000EB0220C8
:10063000084480B28002EDE79DF805009DF80A109D
:1006400000F00F0000EBD1109DF8091001F003013C
:1006500000EB41019DF808009DF80720800900EBA0
:1006600082009DF8062002F0030200EB8220401C6D
:10067000C91F8840CEE700001CB501210820FFF704
:10068000E5FE0820009001208DF80400054C694625
:100690002046FFF767FE08212046FFF7BAFE00F06C
:1006A00025FA1CBD000C02402DE9F843FFF7E4FFDA
:1006B0000024FF2000F07EFA641CA4B20A2CF8D3B8
:1006C000142400219522084600F08CF90546012DDE
:1006D00002D0641EA4B2F4D2484F00263E70012D11
:1006E0007ED187224FF4D571082000F07BF94FF6B8
:1006F000FE7401281ED001220021372000F072F97B
:1007000001220021292000F06DF9012850D8022093
:10071000387001220021372000F064F90122002105
:10072000292000F05FF9054628004ED0641EA4B2CF
:10073000EFD24AE00026E846FF2000F03BFA08F836
:100740000600761CB6B2042EF6D39DF802000128EE
:1007500043D19DF80300AA283FD14607012200217A
:10076000372000F03FF901223146292000F03AF904
:10077000054615B1641EA4B2F0D274B30122002163
:100780003A2000F02FF940BB0024FF2000F012FABD
:1007900008F80400641CA4B2042CF6D39DF80000F1
:1007A000400602D50620387017E00420387014E0A7
:1007B0000120387001220021104600F013F905468F
:1007C000280002D0641EA4B2F4D22CB1012251023E
:1007D000102000F007F900B13E70FFF7E1FE00E0E5
:1007E00002E0002000F014FA387810B10020BDE8D3
:1007F000F8830DB12846FAE7AA20F8E78C04002018
:100800000748006810F0C05F08D006490120486121
:1008100003484FF0C2515830FFF740BD7047000009
:10082000006402409804002070B54FF4807528469B
:10083000FFF79CFE214C38B1002020702846FFF7BE
:100840008FFE0120206132E00220FFF78FFE28B1E9
:100850000220FFF785FE0220207028E00820FFF725
:1008600085FE28B10820FFF77BFE042020701EE0E3
:100870002020FFF77BFE28B12020FFF771FE062025
:10088000207014E01020FFF771FE28B11020FFF750
:1008900067FE052020700AE04FF400752846FFF738
:1008A00065FE20B12846FFF75BFE0720207000217F
:1008B0004CF23A30FFF766FE207870BD98040020B5
:1008C0002DE9F0410646154618480078062800D064
:1008D00049024FF40077012D1AD00122122000F0B6
:1008E00081F83946304600F023F8044606F50076D4
:1008F0006D1E2D042D0C01D0002CF2D00122002100
:100900000C2000F06FF8FFF74BFE2046BDE8F081A9
:100910000122112000F066F804462000F3D1394688
:10092000304600F005F80446EDE700008C04002096
:1009300070B504460D46FE20FFF753FE30B101208E
:1009400070BDFF2000F036F904F8010B6D1EADB24A
:10095000F7D2FF2000F02EF9FF2000F02BF9002045
:1009600070BD000010B509480078002801D100F0E2
:100970004FF908210648FFF74AFD00F062F818B168
:10098000FFF70EFE012010BD002010BD8C040020DA
:10099000000C024070B505460C4600F052F808B154
:1009A000012070BD204600F005F9FD2C18D0002470
:1009B0004FF40076285D00F0FDF8641CA4B2B44248
:1009C000F8D3FF2000F0F6F8FF2000F0F3F8FF2046
:1009D00000F0F0F800F01F00052801D0022070BDE3
:1009E000002070BD70B505460C461646FFF7D8FDD1
:1009F000FFF7B8FF08B1FF2070BD45F0400000F0E0
:100A0000D9F8200E00F0D6F8C4F3074000F0D2F871
:100A1000C4F3072000F0CEF8E0B200F0CBF8304687
:100A200000F0C8F80C2D02D1FF2000F0C3F81F24FD
:100A3000FF2000F0BFF80106DED5641EE4B2F7D255
:100A400070BD70B500246FF07F45FF2000F0B2F854
:100A5000FF2804D0641CAC42F7D3012070BD0020F5
:100A600070BD000070B506460C4615461E4800785D
:100A7000062800D06402012D13D0012809D00122DC
:100A800000213720FFF7AEFF012229461720FFF78C
:100A9000A9FF012221461920FFF7A4FF04466CB1EB
:100AA0001DE0012221461820FFF79CFF0446B4B93F
:100AB000FE213046FFF76EFF044610E0FC21304671
:100AC000FFF768FF06F500766D1E2D042D0C01D092
:100AD0000028F3D0FD210020FFF75CFF0446FFF75C
:100AE0005FFD204670BD00008C040020F0B587B08B
:100AF00001210803FFF7C6FC01210220FFF7A6FC35
:100B00000820059002258DF8185000248DF81A4011
:100B100003208DF8190001268DF81B60234F05A9CD
:100B20003846FFF71FFC1021059105A93846FFF74D
:100B300019FC2021059105A93846FFF713FC052271
:100B400003213846FFF74CFC052204213846FFF705
:100B500047FC052211463846FFF742FC144F384641
:100B600000F070F8ADF800404FF48270ADF802006C
:100B7000ADF80440ADF80650ADF808602802ADF8B5
:100B80000A003820ADF80C00ADF80E400720ADF893
:100B900010006946384600F0C2F80121384600F0DE
:100BA00045F8FF2000F006F807B0F0BD0004024051
:100BB000003001402DE9F041074600244FF4FA656A
:100BC000124E06E0641CA4B2AC4202D30020BDE881
:100BD000F0810221304600F097F80028F2D0394623
:100BE000304600F09AF8002405E0641CA4B2AC4240
:100BF00001D30020EBE70121304600F085F8002802
:100C0000F3D0304600F087F8C0B2E0E70030014092
:100C100001460548028822F03802028002880A4311
:100C20000280012100F002B800300140002904D008
:100C3000018841F0400101807047018821F04001A6
:100C40000180704710B52A4988420AD184140121D5
:100C50002046FFF725FC2046BDE810400021FFF7A5
:100C60001FBC244988420AD1041401212046FFF701
:100C7000FBFB2046BDE810400021FFF7F5BB1E49F5
:100C800088420AD1C41301212046FFF7EDFB20461C
:100C9000BDE810400021FFF7E7BB184988420AD1A0
:100CA000441401212046FFF7FBFB2046BDE810401D
:100CB0000021FFF7F5BB124988420AD101210C053A
:100CC0002046FFF7EDFB2046BDE810400021FFF76E
:100CD000E7BB0C4988420AD101214C052046FFF7A9
:100CE000DFFB2046BDE810400021FFF7D9BB10BD57
:100CF0000030014000380040003C0040003401401A
:100D000000500140005401400246002012890A426E
:100D100000D001207047808970478181704730B5CD
:100D2000028802F441530A884C88CD8822438C887B
:100D30002C4322430C8922434C8922438C89224331
:100D4000CC8922431A430280828B22F40062828380
:100D5000098A018230BD70470CB5002201920092D1
:100D60002749086840F4803008604FF4A0430868C1
:100D700000F4003000900198401C0190009810B9D8
:100D800001989842F3D10868800302D501200090B1
:100D900000E000920098012831D1194840300268E3
:100DA00042F0805202601748026842F440420260FA
:100DB0001348083002680260026842F40042026090
:100DC000026842F4A0520260021F0F4B13600A68CF
:100DD00042F080720A600A689201FCD50B4A40F228
:100DE00005711160016821F003010160016841F0A3
:100DF000020101600168C1F381010229FAD10CBD31
:100E0000003802400070004010544007003C02408F
:100E10007047000010B51248016841F4700101608C
:100E20001048016841F0010101600E4A00210832BA
:100E3000116002680C4B1A400260031D0B4A1A60D5
:100E4000026822F48022026006480C300160FFF73D
:100E500083FF03494FF000608039086010BD000037
:100E600088ED00E000380240FFFFF6FE103000245D
:100E7000002904D0818941F4005181817047818922
:100E800021F40051818170470246002012880A42F5
:100E900000D00120704700007FB504460D46208A2F
:100EA00020F44051E88808432082A08941F20C6177
:100EB0008843A9882A8911436A8902431143A18181
:100EC000A08A20F44071A8890843A0826846FFF7F1
:100ED000F5FA1E48844202D01D48844201D103988D
:100EE00000E00298A189090408D500EBC00101EBDC
:100EF000001029684900B0FBF1F007E000EBC001E9
:100F000001EB001029688900B0FBF1F06422B0FB0E
:100F1000F2F109010B096FF018056B4300EB830038
:100F2000A3891D044FF0320307D503EBC000B0FBCB
:100F3000F2F000F00700084306E003EB0010B0FBFE
:100F4000F2F000F00F00084320817FBD0010014047
:100F500000140140C1F3080181807047FEE70000E2
:100F600010B5040300F0F8F800F098F800F04CF920
:100F70002020FFF71FFEC4F30740FFF71BFEC4F35A
:100F80000720FFF717FEE0B2FFF714FE03494FF406
:100F900000400883BDE8104000F080B80000024027
:100FA0007CB501210846FFF751FA4FF40045009542
:100FB00001208DF8040000218DF8061003218DF822
:100FC00005108DF80700084C69462046FFF7CAF95E
:100FD0002583FFF78BFD0020FFF71AFE00F02EF8A7
:100FE000024908807CBD00000000024090040020FF
:100FF00070B506460C46154600F006F90320FFF7CB
:10100000D9FDC4F30740FFF7D5FDC4F30720FFF770
:10101000D1FDE0B2FFF7CEFD002405E0FF20FFF791
:10102000C9FD3055641CA4B2AC42F7D302494FF459
:101030000040088370BD00000000024010B500248D
:1010400000F0E2F89020FFF7B5FD0020FFF7B2FDB9
:101050000020FFF7AFFD0020FFF7ACFDFF20FFF7FA
:10106000A9FD44EA0024FF20FFF7A4FD2043024A23
:101070004FF40041118310BD0000024010B500F094
:10108000C3F80520FFF796FDFF20FFF793FD024A06
:101090004FF40041118310BD0000024010B5FFF76E
:1010A000EDFFC007FBD110BD2DE9F05F80468A46F9
:1010B0001546DFF898904FEA1A37CAF30B06C6F5C3
:1010C0008054A54236D82C4634E0311819F8011066
:1010D000FF2903D1401C80B2A042F6D3A04214D213
:1010E0003846FFF73DFF002006E0821918F800108F
:1010F00009F80210401C80B2A042F6D359464FF4C2
:101100008052484600F036F804E0A2B2514640460C
:1011100000F030F8A54217D07F1C0026A044A2445E
:101120002D1B0B480B49401B48604FF48054A542CF
:1011300000D82C464FEA073B4FF4805259464846A8
:10114000FFF756FF0020C7E7BDE8F09F946C002032
:10115000785004009004002010B500F055F80620E7
:10116000FFF728FD02494FF40040088310BD00003E
:10117000000002402DE9F04107460E461546F0B248
:10118000C0F58074A54200D82C464FF4807807E063
:1011900027442644281B85B24446A54200D82C4645
:1011A00022463146384600F005F8A542F0D1BDE8A8
:1011B000F081000070B505460C461646FFF7CCFFDF
:1011C00000F022F80220FFF7F5FCC4F30740FFF718
:1011D000F1FCC4F30720FFF7EDFCE0B2FFF7EAFCF7
:1011E000002404E0285DFFF7E5FC641CA4B2B442CF
:1011F000F8D304494FF400400883BDE87040FFF77E
:101200004DBF00000000024010B50020FFF700FDB8
:1012100002494FF40040488310BD00000000024026
:101220000FB4054B10B503A9044A029800F02CF83E
:1012300010BC5DF814FB000069390008BC040020F4
:101240000FB4084B10B504A902AA039800F01CF8CB
:10125000044602A9002000F0F3F8204610BC5DF817
:1012600014FB00004114000802E008C8121F08C166
:10127000002AFAD170477047002001E001C1121F17
:10128000002AFBD1704700002DE9FF4F8BB09A4632
:101290000F460546002606E025280BD052460D993C
:1012A00090476D1C761C28780028F5D10FB0304689
:1012B000BDE8F08F0024A0460122604900E004430D
:1012C00015F8013F203B02FA03F00842F7D12878D5
:1012D0002E2817D115F8010F44F004042A280ED047
:1012E0006FF02F022878A0F1300109290AD808EB05
:1012F000880102EB410100EB01086D1CF2E757F891
:10130000048B6D1C287869283ED006DC0028CDD0DF
:1013100063280BD0642804D136E0732810D07528D8
:101320004BD052460D999047761C85E017F8040B78
:101330008DF8000000208DF80100E946012003E04F
:1013400057F8049B4FF0FF3061074FF0000401D4C1
:101350000AE0641C44450DDA8442FADB19F80410F3
:101360000029F6D106E0641C8442FCDB19F8041065
:101370000029F8D1264404E019F8010B52460D99D2
:101380009047641EF8D257E001CF4FF00A0B0028B7
:1013900002DA40422D2102E0210504D52B218DF8EF
:1013A0002410012103E0E10705D02021F7E70DF12A
:1013B000200908910CE00021F9E701CF4FF00A0B5A
:1013C000F9E75946FEF713FF01F1300209F8012D44
:1013D0000028F6D1ADEB090000F1200B600701D425
:1013E0004FF00108D84502DDA8EB0B0000E000201B
:1013F0008046002406E009A85246005D0D999047FA
:10140000641C761C08988442F5DB04E030205246C8
:101410000D999047761CB8F10001A8F10108F5DCA0
:1014200005E019F8010B52460D999047761CBBF167
:101430000001ABF1010BF4DC6D1C34E7092801005D
:101440000A68531C0B601070704700002DE9F04FC4
:10145000ADF5037D80468A4658A00068819058A06B
:10146000FFF7DEFE02224FF4E83181A8FFF71CFEF1
:10147000002598E005EB850908EB8907387C0128F1
:1014800074D056A0FFF7CCFE62A07968FFF7C8FEC3
:1014900058F829100122684801F00AFD044620008E
:1014A00007D066A0FFF7BCFE20460DF5037DBDE822
:1014B000F08F6BA0FFF7B4FEB8684FEA103B002630
:1014C00004E00BEB0600FFF74BFD761CF868B6EB6B
:1014D000103FF6D36EA0FFF7A3FED7F808B04FF485
:1014E000807617E082AB324641A9534801F0C6FD31
:1014F0000446200004D071A0FFF792FE2046D4E7F6
:101500003246594641A8FFF755FE0BF5807B82987D
:10151000B04201D1002CE5D071A0FFF781FEBF6879
:101520000021454801F076F82BE082AB324641A914
:10153000414801F0A3FD0446200004D05FA0FFF75E
:101540006FFE2046B1E78298394682B201A8FFF7C4
:101550004FFD82990F44002041AB01AA0DE013F822
:1015600005C012F805B0DC4506D000E019E068A01F
:10157000FFF756FE022098E7401C8842EFD3B142A5
:1015800001D1002CD1D06BA0FFF74AFE58F82910EA
:1015900071A0FFF745FE11A0FFF742FE264801F0BB
:1015A0002AF86D1CEDB25545FFF464AF73A0FFF748
:1015B00037FE80A0FFF734FE002076E7A00A000087
:1015C000D0B4C8EBB1EAD6BED7D6BDDA3078413058
:1015D0002C307830412E2E2E0D0A00003C3C2D423E
:1015E00055524E2D494E464F2D3E3E202D2D2D2D30
:1015F0002D2D2D2D2D2D2D2D2D2D2D2D2D2D2D2D1B
:101600002D2D2D2D2D2D2D2D2D2D2D2D2D2D2D2D0A
:101610002D0D0A003C3C2D4255524E2D494E464F51
:101620002D3E3E20D7BCB1B8C9D5C2BCC4DAC8DD96
:10163000A3BA25730D0A0000F42800203C3C2D427B
:1016400055524E2D4552524F522D3E3E20B4F2BFC0
:10165000AACEC4BCFECAA7B0DCA3A10D0A0000003C
:101660003C3C2D4255524E2D494E464F2D3E3E207C
:10167000D5FDD4DAB2C1B3FDD2AACAB9D3C3B5C4B9
:10168000464C415348BFD5BCE42E2E2E0D0A000017
:101690003C3C2D4255524E2D494E464F2D3E3E204C
:1016A000D5FDD4DACFF2464C415348D0B4C8EBC490
:1016B000DAC8DD2E2E2E0D0A000000003C3C2D4223
:1016C00055524E2D4552524F522D3E3E20B6C1C866
:1016D000A1CEC4BCFECAA7B0DCA3A10D0A000000C5
:1016E0003C3C2D4255524E2D494E464F2D3E3E20FC
:1016F000C4DAC8DDD0B4C8EBCDEAB1CF2CBFAACADA
:10170000BCD0A3D1E9CAFDBEDD2E2E2E0D0A0000ED
:101710003C3C2D4255524E2D4552524F522D3E3E8D
:1017200020CAFDBEDDD0A3D1E9CAA7B0DCA3A10DBC
:101730000A0000003C3C2D4255524E2D494E464F6A
:101740002D3E3E20CAFDBEDDD0A3D1E9B3C9B9A666
:10175000A3A10D0A000000003C3C2D4255524E2D25
:10176000494E464F2D3E3E20CEC4BCFEA3BA257343
:1017700020D0B4C8EBCDEAB3C90D0A003C3C2D42E1
:1017800055524E2D494E464F2D3E3E202A2A2A2A9A
:101790002A2A2A2A2A2A2A2A2A2A2A2A2A2A2A2AA9
:1017A0002A2A2A2A2A2A2A2A2A2A2A2A2A2A2A2A99
:1017B0000D0A00003C3C2D4255524E2D494E464FDD
:1017C0002D3E3E20CBF9D3D0CEC4BCFEBEF9D2D143
:1017D000C9D5C2BCB3C9B9A6A3A1A3A8B7C7CEC473
:1017E000BCFECFB5CDB3B2BFB7D6A3A90D0A0000DA
:1017F00010B5044600202071401E2063204602F0F0
:10180000FBFA08B1032010BD94F8320294F83312A9
:1018100040EA0120A0F52A41553901D0022010BD2F
:1018200014F86A0FE178627840EA0161A0786A3CB6
:10183000000440EA022001430B48B0EB012F01D124
:10184000002010BD14F8861FE278637841EA026137
:10185000A278120442EA03221143B0EB012F01D116
:10186000002010BD012010BD0046415400E0401C86
:1018700002780AB18A42FAD100787047891E8269DB
:10188000921E8A4201D800207047C26A807801FB0C
:10189000002070472DE9F05F81460F46387820F030
:1018A0004000401E00EB800101EBC0040026012532
:1018B000DFF85CA007F101084FF6FF7B1AF806007D
:1018C000395C10F8080041EA00207DB101F01AFEF1
:1018D0000546FF2C07D22046641C39F8100001F0A1
:1018E00011FEA84206D00020BDE8F09F584501D067
:1018F0000020F9E7761C0D2EE0D33878400605D598
:1019000025B139F8140008B10020EDE70120EBE71C
:101910004E4200082DE9F04192B006460F46294894
:10192000109040F2FF101190314601A801F06CFBBD
:10193000002838D13046FEF743FC80463846FEF793
:101940003FFC05460AA901A801F056FC00282AD14F
:101950009DF83110002926D01098007808B1109C0D
:1019600001E00DF1310420782E28EBD09DF83000F5
:10197000C0061BD506EB0800224613A1FFF760FC4A
:101980007819224610A1FFF75BFC3946304600F07B
:1019900023F839463046FFF7BDFF002106F808104E
:1019A00079550028CED012B0BDE8F08123463246EA
:1019B00006A10848FFF744FC3946064800F020F825
:1019C000C0E70000BF1600202F25730025732F25C8
:1019D000730000005F5A002010B50C462F21FEF75F
:1019E000F6FB10B1002048B901E00120FBE72046DA
:1019F00000F0CAFE0446082C00D10024204610BD89
:101A000070B506460D4601223146254801F050FAD0
:101A100004462046002841D12F213046FEF7D7FB4F
:101A200003461BB10020002838D101E00120FAE76D
:101A30002A461CA11D48FFF703FC1C491CA0FFF708
:101A4000EFFB0B221949244801F032FA04462046E4
:101A500020BB224E4FF4805516E0204B20491B1D21
:101A60001D48326801F044FC04462046B0B9306895
:101A7000A84209D00A4800F0BEFD174800F0BBFD9F
:101A800018A0FFF7CDFB09E0144B2A46144904487F
:101A900001F0F4FA044620460028DED0204670BD4E
:101AA00018390020257325730000000060590020BC
:101AB0003C3C2D4255524E2D494E464F2D3E3E2028
:101AC000D5FDD4DAB8B4D6C6CEC4BCFE202573206A
:101AD0002E2E2E0D0A0000003C4900201000002090
:101AE000C00400203C3C2D4255524E2D494E464FDD
:101AF0002D3E3E20B8B4D6C6B3C9B9A6A3A10D0ADF
:101B00000000000010B529A0FFF78AFB35A0FFF701
:101B100087FB012241A1424801F0A4F941A0FFF74F
:101B20007FFB002211463DA000F0E6FE01223BA112
:101B3000002001F097F9012238A1394801F092F90B
:101B4000044624B141A0FFF76BFB204610BD4DA019
:101B5000FFF766FB5AA0FFF763FB654802F068FADF
:101B600048A0FFF75DFB63A0FFF75AFB6A49A1F1AC
:101B7000FF00FFF7CFFE04462CB1214667A0FFF718
:101B80004FFB204610BD3FA0FFF74AFB70A0FFF7B8
:101B900047FB5748FF3802F04BFA3AA0FFF740FBEB
:101BA0007AA0FFF73DFB204610BD00003C3C2D42D3
:101BB00055524E2D494E464F2D3E3E202D2D2D2D5A
:101BC0002D2D2D2D2D2D2D2D2D2D2D2D2D2D2D2D45
:101BD0002D2D2D2D2D2D2D2D2D2D2D2D2D2D2D2D35
:101BE0002D0D0A003C3C2D4255524E2D494E464F7C
:101BF0002D3E3E20BCB4BDABBFBDB1B4CEC4BCFE17
:101C0000B5BD464C415348B5C4CEC4BCFECFB5CDDE
:101C1000B3C7F8D3F22E2E2E0D0A0000313A000081
:101C2000C01800203C3C2D4255524E2D494E464F87
:101C30002D3E3E20D5FDD4DAB8F1CABDBBAF464C2F
:101C40004153482E2E2E0D0A000000003C3C2D4230
:101C500055524E2D4552524F522D3E3E20464C413C
:101C60005348CEC4BCFECFB5CDB3B9D2D4D8CAA7E1
:101C7000B0DCA3ACC7EBB8B4CEBBD6D8CAD4A3A152
:101C80000D0A00003C3C2D4255524E2D494E464F08
:101C90002D3E3E202A2A2A2A2A2A2A2A2A2A2A2A83
:101CA0002A2A2A2A2A2A2A2A2A2A2A2A2A2A2A2A94
:101CB0002A2A2A2A2A2A2A2A2A2A2A2A2A0D0A00EB
:101CC0003C3C2D4255524E2D494E464F2D3E3E2016
:101CD0000D0A20BCB4BDABD2AAB8B4D6C6B5C453A5
:101CE00044BFA8CEC4BCFEA3BA200D0A0D0A000052
:101CF000150300203C3C2D4255524E2D494E464F77
:101D00002D3E3E200D0A20BFAACABCB8B4D6C6A339
:101D1000BA200D0A0D0A0000170100203C3C2D429C
:101D200055524E2D4552524F522D3E3E20B8B4D6FC
:101D3000C6CEC4BCFEB5BD464C415348CAA7B0DCB4
:101D4000A3ACB4EDCEF3C2EBA3BA25640D0A000038
:101D50003C3C2D4255524E2D494E464F2D3E3E2085
:101D60000D0A20B8B4D6C6BAF3B5C4464C415348A0
:101D7000CEC4BCFE28CEC4BCFECFB5CDB3B2BFB777
:101D8000D629A3BA200D0A0D0A0000003C3C2D42C2
:101D900055524E2D494E464F2D3E3E20CBF9D3D0C5
:101DA000CEC4BCFEBEF9D2D1B8B4D6C6B3C9B9A6AA
:101DB000A3A1A3A8CEC4BCFECFB5CDB3B2BFB7D646
:101DC000A3A90D0A000000002DE9F04106460F46C8
:101DD000002F08D03946304601F024FE022809D2EF
:101DE0000120BDE8F081F56815B1B069A84207D8B7
:101DF000012505E0411CF4D0B1698142F1D83D468E
:101E00002C46641CB069A04204D80224022D01D2E1
:101E10000020E6E72146304601F004FE38B1411CBF
:101E2000DFD00128DDD0AC42EBD10020D9E76FF044
:101E300070422146304602F031F828B927B12246D7
:101E40003946304602F02AF820B101280DD001248D
:101E50002046C6E7F4603069411CF9D0401E30616D
:101E6000707940F001007071F2E74FF0FF34EFE756
:101E70002DE9F35F8846D8F8006000E0761C3078E2
:101E80002F28FBD05C28F9D00098D0F81CA00024A3
:101E9000254628466D1C305C202808D32F2806D004
:101EA0005C2804D0FF2C09D30620BDE8FC9F7119E3
:101EB000C8F8001020282AD2042529E0C0B2A0F1D9
:101EC00081017D290ED829466D1C715CA1F140026B
:101ED0003F2A04D3403A7F2A01D30620E5E701EBED
:101EE000002080B2012101F0E1FA074647B1802FBE
:101EF00008D2394677A0FFF7B9FC18B10620D4E71D
:101F00000620D2E72046641C2AF81070C1E700259D
:101F10000021012C03D1BAF800002E2809D0022C90
:101F200024D1BAF802002E2820D1BAF800002E28B9
:101F30001CD12AF814100020A04201D22E2100E06A
:101F40002021009A92691154401C0B28F4D3009967
:101F500045F0200289690A540020A6E7601E3AF87D
:101F60001000202801D02E2802D1641E002CF5D1AB
:101F70004CB12AF8141000980B222021806901F03E
:101F800033FF002702E006208FE77F1C3AF8170096
:101F90002028FAD02E28F8D01FB145F0030500E024
:101FA000641E24B1601E3AF810002E28F8D14FF0BC
:101FB0000008C1464FF0080B38467F1C3AF8106005
:101FC00006B3202E03D02E2E04D1A74202D045F016
:101FD0000305F1E7D84501D2A74219D1BBF10B0F98
:101FE0000ED0A74201D045F003050BD827464FF08D
:101FF00008084FF00B0B4FEA89604FEA1069DBE7E6
:1020000045F00305009880690178E5293DD03EE060
:10201000802E08D3304601F075FA002101F046FA0F
:10202000064645F00205FF2E0FD9ABF101008045B1
:1020300003D345F00305D846BEE70098310A82690C
:10204000404608F10108115418E026B1314624A099
:10205000FFF70CFC18B15F2645F003050EE0A6F172
:102060004100192802D849F0020907E0A6F16100F1
:10207000192803D849F00109203EB6B200988169B9
:10208000404608F101080E5496E705210170BBF1A6
:10209000080F03D14FEA89604FEA1069C9F3810044
:1020A000032803D06FEA0901890701D145F0020531
:1020B000A90709D409F00301012901D145F0100550
:1020C000012801D145F0080500988069C5720020FB
:1020D000EBE60000222A3A3C3E3F7C7F00000000F5
:1020E0002B2C3B3D5B5D000070B505460E46002184
:1020F000284600F0E6F988B900242969286801F02B
:102100007BFE58B969690978E5290BD051B10024E3
:102110000121284600F06DF80028EED0042800D1F7
:10212000072070BD641CB442F8D0F1E72DE9F047F8
:1021300004460021204600F0C4F9002857D1FF26AC
:10214000B1464FF6FF7AA4F820A02169206801F07B
:1021500053FE80465FEA080048D167693D7865B163
:10216000F87A00F03F00E52D03D0010708D50F28CD
:1021700006D0FF26A4F820A030E04FF0040835E098
:102180000F2801D0CEB11DE0E06938B3690606D54D
:1021900097F80D9025F040052E46E1882184B54240
:1021A00008D1797B494505D13946FFF773FB08B162
:1021B000761E00E0FF26F6B210E0384601F0A0FFE0
:1021C000484513D0A169C87AC00704D10B2238460C
:1021D00001F0F4FD50B1FF26A4F820A00021204614
:1021E00000F007F880465FEA0800AED04046BDE840
:1021F000F0872DE9F04104460E46E7887F1C38043D
:10220000000C0AD0216941B1206842895209B7FB0C
:10221000F2F302FB13721AB166E00420BDE8F0810C
:10222000491C2161E16871B1428983785209B7FB89
:10223000F2F25B1E1A4257D101F0F4FB0546012D64
:1022400006D80220EAE70089B8424DD80420E5E725
:10225000681C14D020688169A9423FD88EB1E1681A
:10226000FFF7B2FD054628000DD0012D0DD0681CEA
:102270000DD0206801F0ABFF58B10120CEE701205E
:10228000CCE70420CAE70720C8E70220C6E7012000
:10229000C4E7206800214289343001F0A5FD2946B9
:1022A0002068FFF7EBFA2168086300264FF0010869
:1022B0000CE080F80480206801F089FF08B101205B
:1022C000ACE72068016B491C0163761C20688178AB
:1022D000B142EED82168096B891B0163E56029468C
:1022E0002068FFF7CBFA2061E7802068418949091F
:1022F000B7FBF1F201FB1271342202EB41110844E9
:10230000606100208AE72DE9F04705468946FF26EF
:10231000B046042746E0286801F06EFD0746380005
:1023200043D1686904786CB1C17A01F03F01E52CB2
:1023300006D021F02002082A06D000224A4505D006
:10234000FF261FE0042730E00122F7E70F2901D024
:1023500026BB1FE0610606D590F80D8024F04004EE
:102360002646E9882984B4420AD1417B414507D1F8
:10237000EA690146104601F059FD08B1761E00E0F9
:10238000FF26F6B200212846FFF733FF0746380044
:1023900008D00AE001F0B4FE404506D04FF6FF70C9
:1023A000288402E029690029B5D10FB100202861F5
:1023B0003846BDE8F0872DE9FE430446A769E66983
:1023C0000C223946684601F006FD9DF80B00810697
:1023D00002D50620BDE8FE83C00718D00020F872A1
:1023E000E06101252B4632466946384601F0CEFAB7
:1023F0002046FFF79BFE10B96D1C642DF2D3642DAF
:102400000BD00428E6D19DF80B00F872E6619DF828
:102410000B0080070DD5002002E00720DAE7401C02
:1024200036F810100029FAD119300D21B0FBF1F661
:1024300000E0012631462046FFF756FE05460127FB
:102440001DBB761E21D0E088811B204600F039F8A4
:102450000546280019D1A06901F052FE8046216985
:10246000206801F0C9FC05467DB9F2B243466169B6
:10247000E06901F001FA2068077100212046FFF7AA
:10248000B8FE05460DB9761EE9D1C5B921692068A7
:1024900001F0B2FC0546280011D12022002160691C
:1024A00001F0A2FCD4E905010B2201F094FCA06923
:1024B0006169C07A00F01800087320680771284627
:1024C00088E770B504460D46E580A368012B03D06C
:1024D00020688169994201D8022070BD1BB901783A
:1024E000032900D1836A2BB141898078490911FB06
:1024F00000F618E00189A94201D8022070BD806A67
:1025000017E01946206801F08DFA0346581C07D0E1
:10251000022B03D320688069984203D8022070BD43
:10252000012070BDAD1BB542EBD219462068FFF704
:10253000A5F9E36098B121684A895209B5FBF2F226
:102540001044206148894009B5FBF0F200FB1250AD
:10255000342202EB401008446061002070BD02206C
:1025600070BD10B50124002803D1FEF79DF800B915
:102570000024204610BD10B5034614460420002B4D
:1025800012D181B101290BD0022902D003290AD12D
:1025900003E04FF40070208005E00120206002E09D
:1025A000FEF732F82060002010BD70B50D461146D0
:1025B0000424002805D19AB22846FEF781F900B913
:1025C0000024204670BD01460120002900D10020D2
:1025D000704770B50D4611460424002B01D040B958
:1025E00001E0042070BD9AB22846FEF73BFA00B91C
:1025F0000024204670BD10B50446204600F02BFE96
:10260000002806D1204601F00CFE002801D100214F
:10261000216010BD2DE9F04704460D46204601F02B
:1026200000FE80465FEA080001D0BDE8F087E0794F
:102630000028FAD1E068A84203D2A179890700D422
:102640000546A1680027A7604FF00109002D61D061
:1026500020688678428956434FF0020A69B16A1EA3
:10266000491EB2FBF6F2B1FBF6F39A4205D3701E97
:102670008143A1606D1A61690BE0216941B90021B4
:10268000FFF7A2FB0146012905D0481C07D02161B4
:10269000616159BB3EE084F807A00220C5E784F8D9
:1026A00007900120C1E7A079800706D52068FFF7D1
:1026B0008BFB014629B935461AE0206801F0B2F9D2
:1026C0000146481C09D0012903D920688069884245
:1026D00007D884F807A00220A7E784F80790012014
:1026E000A3E76161A0683044A060AD1BB542DAD8B1
:1026F000A0682844A06020684289B5FBF2F302FB81
:1027000013523AB1FFF7BAF8F0B121684989B5FB25
:10271000F1F10F182068A1684289B1FBF2F302FBC6
:10272000131131B3A269BA4223D0A17904F124056F
:10273000490611D5407801232946FFF74AFF38B1F1
:1027400084F80790012070E784F807A002206CE766
:10275000A07920F04000A071206801233A4640781B
:102760002946FFF722FF18B184F8079001205CE7A3
:10277000A761D4E90201884204D9E060A07940F061
:102780002000A071404650E72DE9F14FADF50E7DD8
:1027900001F0C8F9064601228EA984A800F0C8FEFF
:1027A000044620006BD181A88A9001A88B9084A850
:1027B0008E9901F097F80446200000D10824042CDB
:1027C00004D18A98C07A800600D50624042C56D1FC
:1027D00000218498FFF7F8FA80460024B8F1000F32
:1027E00000D10724B8F1010F00D10224B8F1FF3F56
:1027F00000D101241CB9849801F0E9FC04464FF093
:10280000100A4FF00109CCBB41468498FFF736F817
:102810008346849D3435849800214289284601F0FE
:10282000E3FA0B222021284601F0DEFA2E272F7032
:1028300085F80BA0AE75300AE875300C2876300E9E
:1028400068764146284601F053FC05F1200020221D
:1028500029468D9001F0BFFA85F8217086998498F9
:102860000078032804D18498806A884200D100212E
:102870008D9801F03DFC8498877817E018E036E0E9
:102880008498C0F830B00BF1010B849880F8049064
:10289000849801F09CFC0446200009D18498002112
:1028A0004289284601F0A0FA7F1EFFB2002FE7D12F
:1028B0001CB984A8FFF77FFD044624B141468498E3
:1028C00001F082FB13E0899880F80BA08675310A2D
:1028D000C175310C0176310E4176414601F008FC9C
:1028E000849880F80490849801F017FC04460DF554
:1028F0000F7D2046BDE8F08F2DE9F74F88B0904658
:102900000998012803D913200BB0BDE8F08F08A85F
:1029100001F07CF9002801DA0B20F5E7FE4951F8B7
:10292000206056B100213170C0B205900598FFF7C4
:1029300018FEC10703D00320E6E70C20E4E74007B8
:1029400001D50A20E0E706F10A0202210598FFF707
:1029500012FE30B97089B0F5805F02D8B0F5007F03
:1029600001D20120D0E702AA01210598FFF703FE5A
:1029700010B90298802801D20120C5E7099911B148
:102980004FF0000A01E04FF03F0AA0EB0A0102916C
:10299000A8F1010018EA000F01D04FF00008B8F1CB
:1029A000000F13D170894FF4FA62400AB2FBF0F0C5
:1029B000B1FBF0F20020D94B00E0401C33F810507E
:1029C0009542FAD8D54A163232F81080B8F5007F11
:1029D00002D37089B8FBF0F8B8F1000F01D14FF0C5
:1029E0000108B8F1800F01D94FF08008B1FBF8F071
:1029F000012740F6F672904200D302274FF6F67296
:102A0000904200D30327032F1BD0012F24D0420074
:102A1000121D7089521E0244B2FBF0F90125AA036F
:102A2000B2FBF0F001900AEB050B0BEB0900019AE9
:102A3000841804EB0800A0EB0A00884212D90E208B
:102A400062E77289072303EB80001044B0FBF2F9C0
:102A5000202500200190E6E700EB4000401C4208E2
:102A6000D21CD6E703AA03210598FFF784FD20B9FD
:102A7000039810B1B0F5004F01D9012003900398DD
:102A80002118491E401E8143081B0390032F0CD0C0
:102A900081440298411BA1EB09020199511AB1FB33
:102AA000F8F10491022F03D007E005448344F0E7D6
:102AB000049940F6F672914206D3032F06D1049989
:102AC0004FF6F672914201D20E201DE7032F02D07D
:102AD000012F02D006E00C240AE0B0F5803F01D2BD
:102AE000012405E0B0F5803F01D2042400E0062473
:102AF000099810B1F020069039E0728906F134008F
:102B00000021079001F070F906F5F970012141707C
:102B100081700022C2700471FE214171029943F656
:102B2000C1635144B1FBF3F103913F2343EA9104A4
:102B30008471C171037242728272C272029901730E
:102B40000A0A42730A0C8273090EC173552086F873
:102B50003202AA2086F83302012300220799059841
:102B6000FFF737FD08B10120CEE6F820069006F108
:102B7000340472890021204601F036F90B2268A145
:102B8000204601F028F97089E072000A207384F869
:102B90000D80A573280AE07301202074032F0BD049
:102BA00040026074000AA0740298B0F5803F05D21C
:102BB000E074000A20750AE00020F2E704F8200F14
:102BC000010A6170010CA170000EE070203C0698B3
:102BD00060753F20207600206076FF21A176E076A8
:102BE00084F81CA04FEA1A2060774FEA1A40A077B9
:102BF0004FEA1A60E07700F095FF039080222921C8
:102C0000032F24D016346074030AA374030CE374F6
:102C1000000E207584F800904FEA19206070A273AE
:102C20002174163C132241A104F12B0001F0D3F8CA
:102C3000552084F8FE01AA2084F8FF0101235246A2
:102C400021460598FFF7C5FC60B301205CE62534FA
:102C5000A077030AE377030C84F82030000E84F891
:102C6000210004F8019C4FEA192020704FEA194016
:102C700060704FEA1960A0700220E071002020729D
:102C80006072A0720123E372207306236373A07342
:102C9000E2766177253C132229A104F1470001F077
:102CA0009AF8C5E7032F06D101230AF1060221464F
:102CB0000598FFF78EFC5D464FF0000B72890021EE
:102CC000204601F091F806980390032F12D0012FAF
:102CD0000ED06FF0FF010143039121700398000AA9
:102CE00060700398000CA0700398000EE07039E04B
:102CF0001849F0E760F0FF00039020700398000A85
:102D000060700398000CA0700398000EE070FF2024
:102D100020716071A0711FE0B40400205C420008C3
:102D2000EBFE904D53444F53352E30004E4F204E06
:102D3000414D4520202020464154202020202000C5
:102D40004E4F204E414D45202020204641543332E5
:102D50002020200000FFFF00E07120726072A0724E
:102D60000F20E0722A466D1C012321460598FFF7CB
:102D700030FC08B10120C7E572890021204601F02E
:102D800033F8012003900CE02A466D1C01232146F4
:102D90000598FFF71EFC08B10120B5E50398401C1B
:102DA000039003984845EFD30BF1010BBBF1000FE3
:102DB00084D0032F01D0DDF804802A466D1C012346
:102DC00021460598FFF705FC08B101209CE5B8F104
:102DD0000108F2D1032F3AD1522020706070612097
:102DE000A0704121E170722284F8E42184F8E52189
:102DF00084F8E61184F8E7010498401E84F8E8019D
:102E0000010A84F8E911010C84F8EA11000E84F833
:102E1000EB01022084F8EC01002084F8ED0184F835
:102E2000EE0184F8EF01552084F8FE01AA2084F811
:102E3000FF0101230AF1010221460598FFF7C9FBB2
:102E400001230AF1070221460598FFF7C2FB002281
:102E500011460598FFF78FFB08B1012054E50020CB
:102E600052E5000017B581B01446029800906846FC
:102E700000F0CCFE002802DA0B2004B010BD0B4B92
:102E800053F82010002201B10A700199002900D0E6
:102E90000A7043F8201001D0012C01D00020ECE78B
:102EA000002202A901A800F043FBE6E7B4040020D9
:102EB0002DE9F747ADF50D7D0646002E0FD04FF0FA
:102EC0000008C6F8008002F01F0727F001028EA953
:102ED00084A800F02DFB0546280005D092E00920CB
:102EE0000DF5107DBDE8F08781A88A9001A88B9030
:102EF00084A88E9900F0F6FC0546899C0DB904B9AA
:102F0000062517F01C0F4DD04DB1042D03D184A818
:102F1000FFF751FA054647F00807899C08E0E07A78
:102F200010F0110F01D0072502E0780700D5082521
:102F3000BDBB380741D500F0F5FDA073010AE17370
:102F4000010C2174000E607484F80B8084F81C80DE
:102F500084F81D8084F81E8084F81F8021468498A0
:102F600000F078FE81460021204601F0C1F88499E6
:102F700001200871B9F1000F1FD08498D0F830A05B
:102F80004946849801F020F80546280015D1849818
:102F9000A9F10109C0F80C905146849800F02CFF6B
:102FA00005460AE04DB9E07AC10601D5042504E0E2
:102FB000B90702D5C00700D007253DB9380701D5AC
:102FC00047F020078498006BF0613462D5B9B7717F
:102FD00086F807802146849800F03CFE3061207F0F
:102FE000E17F627F40EA0160A17F090441EA02219A
:102FF0000843F060C6F80880C6F8188084983060EE
:10300000C088B08028466BE733B5ADF5057D054631
:10301000002D07D0002286A984A800F089FA044672
:1030200024B126E009200DF5077D30BD8498286085
:1030300081A8A86101A8E8612846869900F052FCA1
:1030400004469CB9696941B1C87AC00604D5849820
:1030500000F000FEA86000E005243CB98498C08818
:10306000A88000212846FFF72CFA0446042C00D142
:1030700005240CB1002028602046D4E72DE9F84F44
:1030800004468846164699460020C9F800002046A6
:1030900001F0C7F8002812D1E07900280FD1A079FB
:1030A000C0070BD0D4E90210401A864200D9064668
:1030B00004F124004FF0010A009098E00720BDE8D9
:1030C000F88F2268A0685189B0FBF1F301FB13036C
:1030D000002B6DD1B0FBF1F193785B1E1940CDB29E
:1030E00075B940B11046616900F09CFC022804D219
:1030F0000220E071E3E72069F8E7411C1CD0606121
:1031000061692068FEF7BAFBD0B100EB050B2068BF
:103110004189B6FBF1F74FB38178EA198A4200D9A9
:103120004F1B40783B465A464146FFF73EFA50B1A6
:1031300084F807A00120C2E784F807A00120BEE7B9
:103140000220E071BBE7A07940060BD5A069A0EB97
:103150000B00B84206D221684A89009900FB028020
:1031600000F039FE206845897D4336E0A2695A4562
:103170001CD0A17949060DD5407801230099FFF7AD
:1031800028FA18B184F807A0012098E7A07920F068
:103190004000A071206801235A4640780099FFF74B
:1031A00004FA18B184F807A0012088E7C4F818B021
:1031B0002068A1684089B1FBF0F200FB1212851A69
:1031C000B54200D93546B1FBF0F200FB12100119EF
:1031D00024312A46404600F0FEFDA844A068284459
:1031E000A060D9F800002844C9F80000761B002E22
:1031F0007FF467AF002062E770B5ADF5047D04464B
:103200000E46204601F00DF8002810D15EB181A8CD
:10321000A06101A8E06100212046FFF774F80025B5
:10322000042807D008E000212046FFF74AF90DF5F1
:10323000047D70BD256100200028F8D1314620466C
:1032400000F074FC00212046FEF7D3FF0428EED1E5
:1032500025610020EBE770B50446204600F0E1FF51
:1032600000280ED1A1798A060BD548060ED5206814
:10327000012304F124014078A269FFF7AAF908B1FB
:10328000012070BDA07920F04000A071E1692068A4
:1032900000F0B2FD0028F4D1256AE87A40F0200061
:1032A000E872207B2877A089000A6877E068000C24
:1032B000A877E068000EE8772846216900F018FF3B
:1032C00000F030FCA875010AE975010C2976000EA2
:1032D00068760020A874E874A07920F02000A0711E
:1032E0002168012008712068BDE8704000F015BF1A
:1032F0002DE9F84F04468846164699460020C9F83D
:103300000000204600F08DFF002806D1E07900285B
:1033100003D1A079800702D40720BDE8F88FA06808
:10332000811900D3002604F124004FF0010A009017
:10333000ADE02268A0685189B0FBF1F301FB1303F3
:10334000002B7DD1B0FBF1F193785B1E1940CDB21B
:10335000F5B968B110466169FEF736FD002870D0F6
:1033600001280DD0411C0ED06061216979B10FE0B8
:1033700020690028F2D100211046FEF725FDEDE777
:103380000220E071C9E784F807A00120C5E72061A9
:10339000A07940060FD520680123A26940780099E2
:1033A000FFF717F918B184F807A00120B5E7A07955
:1033B00020F04000A07161692068FEF75FFAB0B1AB
:1033C00000EB050B20684189B6FBF1F737B3817834
:1033D000EA198A4200D94F1B40783B465A4641467B
:1033E000FFF7F7F830B184F807A0012095E7022035
:1033F000E07192E7A069A0EB0B00B8420AD2216805
:103400004A8900FB0281009800F0E5FCA07920F0D9
:103410004000A071206845897D432EE0A16959458F
:1034200010D0D4E9021291420CD2407801235A46BE
:103430000099FFF7BAF828B184F807A001206CE7DB
:1034400002E027E0C4F818B02068A1684089B1FB09
:10345000F0F200FB1212851AB54200D93546B1FBD5
:10346000F0F200FB1210204424302A46414600F0BE
:10347000B2FCA07940F04000A071A844A0682844A4
:10348000A060D9F800002844C9F80000761B002E7F
:103490007FF44FAFD4E90201884200D9E060A079FF
:1034A00040F02000A071002037E7000070B58028B0
:1034B0001FD345F2205409B1104D00E0104D0023F8
:1034C0001022E11A01EBD17103EB610135F82160A3
:1034D000864207D001D20B4600E00C46A2F1010261
:1034E000002AEED132B14FF0010000EB410035F877
:1034F000100070BD4FF0000070BD00000C97010877
:10350000884200080021084B00E0491C33F81120D4
:103510000AB18242F9D133F81120002A02D00348BF
:1035200030F811007047000090EB020870ED0208BF
:103530002DE9FF478046084616460027C8F8007068
:1035400000F064FB0546002D03DA0B2004B0BDE853
:10355000F087C64850F825408CB1C8F80040207864
:1035600020B16078FFF72FF8C1070AD02770E8B2C2
:103570006070FEF7F6FFC1070AD00320E6E70C20D3
:10358000E4E71EB1400701D50A20DFE70020DDE7B0
:103590001EB1400701D50A20D8E7607804F10A027D
:1035A0000221FEF7E8FF30B96089B0F5007F02D351
:1035B000B0F5805F01D90120C8E7002529462046E3
:1035C000FEF716F9012826D10021E84604EB011088
:1035D00000F5F970027952B1027AC37A42EA0362C5
:1035E000837A407A1B0443EA0020024300E0002271
:1035F00048F82120491C0429E8D3002658F8265011
:1036000025B129462046FEF7F3F800E0022010B16C
:10361000761C042EF2D3032802D018B10D2095E7B2
:10362000012093E794F83F0094F84010B4F80AC0E2
:1036300040EA0120604501D00D2087E794F84A0058
:1036400094F84B1040EA012058B914F8580FE1786B
:10365000627840EA0160A1780904583C41EA0221FD
:103660000843E06194F844A084F803A0BAF1010F84
:1036700004D0BAF1020F01D00D2067E70AFB00FA6F
:1036800094F84120A27012B1511E0A4201D00D20BF
:103690005CE794F8451094F8463041EA032323810F
:1036A0004FEA5C16B3FBF6F106FB113109B10D20B0
:1036B0004CE794F8471094F8488041EA082179B91A
:1036C00094F8541094F8578094F8559041EA0861A2
:1036D00094F856804FEA084848EA092841EA080168
:1036E00094F8428094F8439048EA0929B9F1000F10
:1036F00008D0B3FBF6F609EB0A08B044414503D203
:103700000D2023E70D2021E7A1EB0801B1FBF2F129
:1037100041B3012640F6F672914200D302264FF6DD
:10372000F672914200D30326891CA161256205EB44
:1037300009026262A844C4F82C80032E14D03BB363
:103740005244A262022E25D001F0010201EB410198
:1037500002EB5101491E6144B1FBFCF181421BD9CE
:103760000D20F3E60D20F1E60BB10D20EEE694F806
:10377000602094F8633094F8618042EA036294F820
:1037800062301B0443EA08231A43A2628900E1E77E
:103790000D20DBE64900DDE74FF0FF302061E060FF
:1037A00080206071032E57D194F8640094F865105E
:1037B00040EA012001284FD1691C204600F01CFB83
:1037C000F0BB677194F8320294F8331240EA01209A
:1037D000A0F52A4155393FD114F8340FE1786278C9
:1037E00040EA0160A178343C090441EA022108431F
:1037F0001F49884230D194F8180294F81B1294F8AB
:10380000192240EA016094F81A12090441EA0221DF
:103810000843184988421FD194F81C0294F81F12DB
:1038200094F81D2240EA016094F81E12090441EA4E
:1038300002210843206194F8200294F8231200E04A
:103840000AE040EA016094F8221294F82122090467
:1038500041EA02210843E06026700449091F4888B4
:10386000401C4880E080676100206FE6B4040020BF
:1038700052526141727241612DE9F0434B730F2343
:10388000CB7200230B738B76CB76531E03EB830432
:1038900004EBC30500231C46114E01F1010C4FF649
:1038A000FF77BB4203D02B466D1C30F8133016F85F
:1038B000048001F8083016F804904FEA132809F83C
:1038C0000C8003B93B46641C0D2CEAD3BB4202D0EA
:1038D00030F8150008B942F040020A70BDE8F083E4
:1038E0004E42000873B504460199002508782F2838
:1038F0000ED05C280CD020684069A0600198007848
:10390000202809D200212046FEF7DBFD65617CBD41
:10391000491C0191A560F1E701A92046FEF7A8FA2C
:103920000028F4D12046FEF701FCA169C97A68B1EC
:103930000428ECD18A0605D5A56065614807EBD55A
:1039400000207CBD4907FCD405207CBD4907FCD480
:103950006169C87AC00601D405207CBD206800F0EA
:1039600079F9A060D8E7000070B50446064DE1B2D1
:103970002846FDF7EFFA80212846FDF785FA002852
:10398000F9D0204670BD0000001001407CB505460E
:1039900016461C460B22284600F01DFA052C11D9AC
:1039A0001F480CE0B61C002322460C4662F35F045D
:1039B0004908E20300D544405B1C102BF4D3318846
:1039C0000029EFD107226B4604F00F01303139296D
:1039D00001D9C91DC9B21046521E19542409002C20
:1039E000F2D17E2098540021541E06E081387D28B3
:1039F00002D8A14206D0491C491C914202D2685CFF
:103A00002028F3D1082A03D21046521C185C00E08B
:103A100020200C46491C28550829F3D37CBD000002
:103A2000211001002DE9F04104460D46022D02D37C
:103A3000A069A84201D8012609E04FF0FF3620789E
:103A4000012807D0022835D003284BD00126304664
:103A5000BDE8F08105EB55076089616AB7FBF0F0BE
:103A60000144204600F0C8F90028F0D160893946A9
:103A7000B1FBF0F200FB121121447F1C91F834805D
:103A8000B7FBF0F0616A0144204600F0B5F9002868
:103A9000DDD16089B7FBF0F100FB1170204490F894
:103AA000340048EA0020E90701D00609CFE7C0F357
:103AB0000B06CCE76089616A4008B5FBF0F0014471
:103AC000204600F099F90028C1D161896800B0FB57
:103AD000F1F201FB1200204434300178407841EAD1
:103AE0000026B4E76089616A8008B5FBF0F0014404
:103AF000204600F081F90028A9D16189A800B0FB17
:103B0000F1F201FB1200204434300178C27841EA1E
:103B1000026182784078120442EA0020014321F0D9
:103B2000704694E700487047000021462DE9F041B7
:103B30000E4606F109050169002937D043690024C2
:103B40002146641C5A5C202A17D0052A00D1E522A0
:103B5000092C02D12E2105F8011BA2F141011929DE
:103B600009D81F7B092C01D3102100E008210F4246
:103B700001D02032D2B205F8012B0B2CE0D3D97A38
:103B80003172197FDA7F5C7F41EA02619A7F120409
:103B900042EA042211433160197E5A7E41EA022131
:103BA000B180997DDA7D41EA0221F1804FF0000871
:103BB00085F80080B769002F26D00024016909B379
:103BC000F169F9B1018CA1F57F42FF3A1AD0C569BC
:103BD00014E00021FFF76AFC58B1FF2803D9020A5C
:103BE0002146641C7A54F169491EA14203D800247D
:103BF00008E0002406E02146641C785435F8020BE6
:103C00000028E6D107F80480BDE8F08110B504462D
:103C10004FF0FF302368002B0CD0194600E0491C00
:103C20000A78202A01D33A2AF9D10A783A2A02D00E
:103C30000748007810BD13F8012B303A0A2AF9D250
:103C40008B42F7D1022AF5D21046491C216010BDE3
:103C5000B00400200246887ECB7E40EA0320127822
:103C6000032A05D10A7D497D42EA012140EA01404B
:103C700070470000FCF7D0FBFCF728FBFDF790F93C
:103C8000012216A11648FFF7EDF818B11548FDF707
:103C9000C7FAFEE714A0FDF7C3FA1FA0FDF7C0FAAC
:103CA000294C08212046FCF7ABFB0128F9D008215C
:103CB0002046FCF7A5FB0028F9D006212348FDF794
:103CC000C5FB18B122A0FDF7ABFAFEE72F4930483B
:103CD000FDF718FF2FA0FDF7A3FAF6E7303A000032
:103CE000605C002050EF02080D0A20B0B4D2BBB4D3
:103CF000CE4B455931BFAACABCC9D5D0B4D7D6BF5F
:103D0000E2B2A2B8B4D6C6CEC4BCFEB5BD464C41E4
:103D10005348A1A3200D0A000D0A20D7A2D2E2B871
:103D2000C3B2D9D7F7BBE1B0D1464C415348B5C473
:103D3000D4ADC4DAC8DDBBE1B1BBC9BEB3FDA3A13C
:103D4000A3A1200D0A000000000802401404002076
:103D50000D0A20BFBDB1B4CAFDBEDDB5BD464C41A4
:103D60005348CAA7B0DC28B7C7CEC4BCFECFB5CD78
:103D7000B3B2BFB7D629A3ACC7EBB8B4CEBBD6D8C5
:103D8000CAD4A3A1A3A1200D0A000000170100209E
:103D9000180000200D0A20CBF9D3D0CAFDBEDDD219
:103DA000D1B3C9B9A6B8B4D6C6B5BD464C4153487F
:103DB000A3A1A3A1A3A1200D0A00000010B5002318
:103DC000521E541C05D010F8013B11F8014B1B1B6F
:103DD000F6D0184610BD03E011F8013B00F8013B96
:103DE000521E531CF8D17047C9B201E000F8011B04
:103DF000521E531CFAD1704770B504460E4600257A
:103E0000206BB04210D0204600F0E1F905465DB9C4
:103E100060780123324604F13401FEF7C6FB10B18D
:103E20004FF0FF3601252663284670BD2DE9F0418D
:103E30000A7802F03F02521E02EB820303EBC20239
:103E400000230125144F4E1C4FF6FF7CFC5C11F83B
:103E50000480A45D48EA042455B1FF2A02D300205F
:103E6000BDE8F08190462546521C20F8184003E03A
:103E7000644501D00020F3E75B1C0D2BE6D30978E5
:103E8000490606D5FF2A01D30020E9E7002120F8E2
:103E900012100120E4E700004E4200082DE9F0472F
:103EA00004460D461646022D02D3A069A84202D848
:103EB0000220BDE8F087207806F0FF094FF00108E6
:103EC000012805D0022842D003285AD00220F0E76A
:103ED00005EB55076089616AB7FBF0F001442046A5
:103EE000FFF78AFF0028E4D1384661897F1CB0FBC8
:103EF000F1F201FB120020443430E90703D00178CD
:103F000069F31F1100E03146017084F80480608974
:103F1000616AB7FBF0F001442046FFF76DFF00280F
:103F2000C7D16189B7FBF1F201FB12712144343131
:103F3000EA0702D0C6F3071205E00A78C6F30323A6
:103F400002F0F0021A430A7084F80480B1E7608935
:103F5000616A4008B5FBF0F001442046FFF74CFFD2
:103F60000028A6D162896900B1FBF2F302FB1311AC
:103F7000214481F83490320A81F8352084F8048095
:103F800097E76089616A8008B5FBF0F0014420463C
:103F9000FFF732FF00288CD16289A900B1FBF2F350
:103FA00002FB1311214434314FF07043CA7803EA05
:103FB000026232430A70130A4B70130C8B70120E9C
:103FC000CA7084F8048074E72DE9F04104460F4676
:103FD000022F02D3A069B84201D8022624E00026AD
:103FE0001FE039462046FFF71DFD0546E5B1012DCE
:103FF00009D0681C09D0002239462046FFF74EFF41
:1040000006468EB903E002260EE001260CE0206988
:10401000411C05D0401C2061607940F001006071B6
:104020002F46A069B842DCD83046BDE8F0810000D8
:1040300030B591B005461E480F9040F2FF10109029
:1040400029466846FEF7E0FF00282AD12846FCF7FB
:10405000B7F8044609A96846FFF7CEF8002820D132
:104060009DF82D1000291CD00F98007808B10F9AE8
:1040700001E00DF12D0210782E28EBD09DF82C00D8
:10408000C00610D528190BA1FDF7DAF829460AA0B9
:10409000FDF7C6F82846FFF7CBFF00212955002879
:1040A000D8D011B030BD29460BA0FDF7B9F8D1E743
:1040B000C01400202F2573003C3C2D4255524E2D3C
:1040C000494E464F2D3E3E20CEC4BCFEBCD0A3BAC6
:1040D00025730D0A000000003C3C2D4255524E2D28
:1040E000494E464F2D3E3E2025732F25730D0A0065
:1040F00081760A0AC2760A0C0275090E417570476C
:10410000014600200B22430803EBC01011F8013BCD
:104110001844C0B2521EF6D1704770B5044620460E
:1041200000F055F8054628004FD12078032845D1E6
:104130006079012842D104F13400628900210646E9
:10414000FFF752FE552084F83202AA2084F8330289
:10415000522084F8340084F83500612084F8360059
:10416000412184F83710722284F8182284F8192229
:1041700084F81A1284F81B02206984F81C02010AD0
:1041800084F81D12010C84F81E12000E84F81F0220
:10419000E06884F82002010A84F82112010C84F8F6
:1041A0002212000E84F82302226A521C22636078D5
:1041B00001233146FEF70DFA00206071002260787D
:1041C0001146FEF7D8F900B10125284670BD2DE94A
:1041D000F04104460027207900281FD0266B04F107
:1041E00034016078012332468846FEF7F2F908B1BF
:1041F000012713E000202071606AE169301A8842CB
:104200000CD2E57808E0E069064460780123324684
:104210004146FEF7DEF96D1E022DF4D23846BDE8A8
:10422000F08110B5002807D0016829B10A781AB1C9
:10423000CA888088824201D0092010BD4878FEF7E4
:10424000C2F9C00701D0032010BD002010BD01033A
:104250000507090E10121416181C1E000004000297
:10426000000180004000200010000800040002004F
:1042700000000080004000200010000800400020E6
:104280000010000800040002A400E8A1A700ECA1AF
:10429000A800A7A1B000E3A1B100C0A1B700A4A1EC
:1042A000D700C1A1E000A4A8E100A2A8E800A8A846
:1042B000E900A6A8EA00BAA8EC00ACA8ED00AAA8FC
:1042C000F200B0A8F300AEA8F700C2A1F900B4A8AC
:1042D000FA00B2A8FC00B9A80101A1A81301A5A881
:1042E0001B01A7A82B01A9A84401BDA84801BEA88D
:1042F0004D01ADA86B01B1A8CE01A3A8D001ABA818
:10430000D201AFA8D401B3A8D601B5A8D801B6A8E8
:10431000DA01B7A8DC01B8A85102BBA86102C0A8A5
:10432000C702A6A1C902A5A1CA0240A8CB0241A802
:10433000D90242A89103A1A69203A2A69303A3A621
:104340009403A4A69503A5A69603A6A69703A7A6DD
:104350009803A8A69903A9A69A03AAA69B03ABA6AD
:104360009C03ACA69D03ADA69E03AEA69F03AFA67D
:10437000A003B0A6A103B1A6A303B2A6A403B3A64B
:10438000A503B4A6A603B5A6A703B6A6A803B7A619
:10439000A903B8A6B103C1A6B203C2A6B303C3A6BC
:1043A000B403C4A6B503C5A6B603C6A6B703C7A67D
:1043B000B803C8A6B903C9A6BA03CAA6BB03CBA64D
:1043C000BC03CCA6BD03CDA6BE03CEA6BF03CFA61D
:1043D000C003D0A6C103D1A6C303D2A6C403D3A6EB
:1043E000C503D4A6C603D5A6C703D6A6C803D7A6B9
:1043F000C903D8A60104A7A71004A1A71104A2A766
:104400001204A3A71304A4A71404A5A71504A6A720
:104410001604A8A71704A9A71804AAA71904ABA7EC
:104420001A04ACA71B04ADA71C04AEA71D04AFA7BC
:104430001E04B0A71F04B1A72004B2A72104B3A78C
:104440002204B4A72304B5A72404B6A72504B7A75C
:104450002604B8A72704B9A72804BAA72904BBA72C
:104460002A04BCA72B04BDA72C04BEA72D04BFA7FC
:104470002E04C0A72F04C1A73004D1A73104D2A7AE
:104480003204D3A73304D4A73404D5A73504D6A760
:104490003604D8A73704D9A73804DAA73904DBA72C
:1044A0003A04DCA73B04DDA73C04DEA73D04DFA7FC
:1044B0003E04E0A73F04E1A74004E2A74104E3A7CC
:1044C0004204E4A74304E5A74404E6A74504E7A79C
:1044D0004604E8A74704E9A74804EAA74904EBA76C
:1044E0004A04ECA74B04EDA74C04EEA74D04EFA73C
:1044F0004E04F0A74F04F1A75104D7A710205CA9E0
:10450000132043A81420AAA1152044A81620ACA16A
:104510001820AEA11920AFA11C20B0A11D20B1A16F
:10452000252045A82620ADA13020EBA13220E4A112
:104530003320E5A1352046A83B20F9A1AC2080001E
:104540000321E6A1052147A8092148A81621EDA1CC
:10455000212159A96021F1A26121F2A26221F3A2D5
:104560006321F4A26421F5A26521F6A26621F7A2D7
:104570006721F8A26821F9A26921FAA26A21FBA2A7
:104580006B21FCA27021A1A27121A2A27221A3A27F
:104590007321A4A27421A5A27521A6A27621A7A2A7
:1045A0007721A8A27821A9A27921AAA29021FBA112
:1045B0009121FCA19221FAA19321FDA1962149A864
:1045C00097214AA898214BA899214CA80822CAA152
:1045D0000F22C7A11122C6A115224DA81A22CCA1D3
:1045E0001D22D8A11E22DEA11F224EA82022CFA16B
:1045F00023224FA82522CEA12722C4A12822C5A16B
:104600002922C9A12A22C8A12B22D2A12E22D3A1BC
:104610003422E0A13522DFA13622C3A13722CBA16B
:104620003D22D7A14822D6A14C22D5A1522250A882
:104630006022D9A16122D4A16422DCA16522DDA17E
:10464000662251A8672252A86E22DAA16F22DBA14E
:10465000952292A89922D1A1A522CDA1BF2253A82B
:104660001223D0A16024D9A26124DAA26224DBA2A1
:104670006324DCA26424DDA26524DEA26624DFA21A
:104680006724E0A26824E1A26924E2A27424C5A2FE
:104690007524C6A27624C7A27724C8A27824C9A20A
:1046A0007924CAA27A24CBA27B24CCA27C24CDA2DA
:1046B0007D24CEA27E24CFA27F24D0A28024D1A2AA
:1046C0008124D2A28224D3A28324D4A28424D5A27A
:1046D0008524D6A28624D7A28724D8A28824B1A272
:1046E0008924B2A28A24B3A28B24B4A28C24B5A2BA
:1046F0008D24B6A28E24B7A28F24B8A29024B9A28A
:104700009124BAA29224BBA29324BCA29424BDA259
:104710009524BEA29624BFA29724C0A29824C1A229
:104720009924C2A29A24C3A29B24C4A20025A4A9AE
:104730000125A5A90225A6A90325A7A90425A8A99D
:104740000525A9A90625AAA90725ABA90825ACA96D
:104750000925ADA90A25AEA90B25AFA90C25B0A93D
:104760000D25B1A90E25B2A90F25B3A91025B4A90D
:104770001125B5A91225B6A91325B7A91425B8A9DD
:104780001525B9A91625BAA91725BBA91825BCA9AD
:104790001925BDA91A25BEA91B25BFA91C25C0A97D
:1047A0001D25C1A91E25C2A91F25C3A92025C4A94D
:1047B0002125C5A92225C6A92325C7A92425C8A91D
:1047C0002525C9A92625CAA92725CBA92825CCA9ED
:1047D0002925CDA92A25CEA92B25CFA92C25D0A9BD
:1047E0002D25D1A92E25D2A92F25D3A93025D4A98D
:1047F0003125D5A93225D6A93325D7A93425D8A95D
:104800003525D9A93625DAA93725DBA93825DCA92C
:104810003925DDA93A25DEA93B25DFA93C25E0A9FC
:104820003D25E1A93E25E2A93F25E3A94025E4A9CC
:104830004125E5A94225E6A94325E7A94425E8A99C
:104840004525E9A94625EAA94725EBA94825ECA96C
:104850004925EDA94A25EEA94B25EFA9502554A8D5
:10486000512555A8522556A8532557A8542558A870
:10487000552559A856255AA857255BA858255CA840
:1048800059255DA85A255EA85B255FA85C2560A810
:104890005D2561A85E2562A85F2563A8602564A8E0
:1048A000612565A8622566A8632567A8642568A8B0
:1048B000652569A866256AA867256BA868256CA880
:1048C00069256DA86A256EA86B256FA86C2570A850
:1048D0006D2571A86E2572A86F2573A8702574A820
:1048E000712575A8722576A8732577A8812578A8E3
:1048F000822579A883257AA884257BA885257CA88C
:1049000086257DA887257EA8882580A8892581A859
:104910008A2582A88B2583A88C2584A88D2585A827
:104920008E2586A88F2587A8932588A8942589A8F1
:1049300095258AA8A025F6A1A125F5A1B225F8A163
:10494000B325F7A1BC258BA8BD258CA8C625F4A14D
:10495000C725F3A1CB25F0A1CE25F2A1CF25F1A14A
:10496000E2258DA8E3258EA8E4258FA8E52590A84B
:104970000526EFA10626EEA1092691A84026E2A170
:104980004226E1A10030A1A10130A2A10230A3A1E1
:104990000330A8A10530A9A1063065A9073096A962
:1049A0000830B4A10930B5A10A30B6A10B30B7A1C7
:1049B0000C30B8A10D30B9A10E30BAA10F30BBA197
:1049C0001030BEA11130BFA1123093A81330FEA148
:1049D0001430B2A11530B3A11630BCA11730BDA15F
:1049E0001D3094A81E3095A8213040A9223041A93D
:1049F000233042A9243043A9253044A9263045A9B3
:104A0000273046A9283047A9293048A94130A1A418
:104A10004230A2A44330A3A44430A4A44530A5A4AA
:104A20004630A6A44730A7A44830A8A44930A9A47A
:104A30004A30AAA44B30ABA44C30ACA44D30ADA44A
:104A40004E30AEA44F30AFA45030B0A45130B1A41A
:104A50005230B2A45330B3A45430B4A45530B5A4EA
:104A60005630B6A45730B7A45830B8A45930B9A4BA
:104A70005A30BAA45B30BBA45C30BCA45D30BDA48A
:104A80005E30BEA45F30BFA46030C0A46130C1A45A
:104A90006230C2A46330C3A46430C4A46530C5A42A
:104AA0006630C6A46730C7A46830C8A46930C9A4FA
:104AB0006A30CAA46B30CBA46C30CCA46D30CDA4CA
:104AC0006E30CEA46F30CFA47030D0A47130D1A49A
:104AD0007230D2A47330D3A47430D4A47530D5A46A
:104AE0007630D6A47730D7A47830D8A47930D9A43A
:104AF0007A30DAA47B30DBA47C30DCA47D30DDA40A
:104B00007E30DEA47F30DFA48030E0A48130E1A4D9
:104B10008230E2A48330E3A48430E4A48530E5A4A9
:104B20008630E6A48730E7A48830E8A48930E9A479
:104B30008A30EAA48B30EBA48C30ECA48D30EDA449
:104B40008E30EEA48F30EFA49030F0A49130F1A419
:104B50009230F2A49330F3A49B3061A99C3062A9F7
:104B60009D3066A99E3067A9A130A1A5A230A2A55B
:104B7000A330A3A5A430A4A5A530A5A5A630A6A5BD
:104B8000A730A7A5A830A8A5A930A9A5AA30AAA58D
:104B9000AB30ABA5AC30ACA5AD30ADA5AE30AEA55D
:104BA000AF30AFA5B030B0A5B130B1A5B230B2A52D
:104BB000B330B3A5B430B4A5B530B5A5B630B6A5FD
:104BC000B730B7A5B830B8A5B930B9A5BA30BAA5CD
:104BD000BB30BBA5BC30BCA5BD30BDA5BE30BEA59D
:104BE000BF30BFA5C030C0A5C130C1A5C230C2A56D
:104BF000C330C3A5C430C4A5C530C5A5C630C6A53D
:104C0000C730C7A5C830C8A5C930C9A5CA30CAA50C
:104C1000CB30CBA5CC30CCA5CD30CDA5CE30CEA5DC
:104C2000CF30CFA5D030D0A5D130D1A5D230D2A5AC
:104C3000D330D3A5D430D4A5D530D5A5D630D6A57C
:104C4000D730D7A5D830D8A5D930D9A5DA30DAA54C
:104C5000DB30DBA5DC30DCA5DD30DDA5DE30DEA51C
:104C6000DF30DFA5E030E0A5E130E1A5E230E2A5EC
:104C7000E330E3A5E430E4A5E530E5A5E630E6A5BC
:104C8000E730E7A5E830E8A5E930E9A5EA30EAA58C
:104C9000EB30EBA5EC30ECA5ED30EDA5EE30EEA55C
:104CA000EF30EFA5F030F0A5F130F1A5F230F2A52C
:104CB000F330F3A5F430F4A5F530F5A5F630F6A5FC
:104CC000FC3060A9FD3063A9FE3064A90531C5A898
:104CD0000631C6A80731C7A80831C8A80931C9A834
:104CE0000A31CAA80B31CBA80C31CCA80D31CDA804
:104CF0000E31CEA80F31CFA81031D0A81131D1A8D4
:104D00001231D2A81331D3A81431D4A81531D5A8A3
:104D10001631D6A81731D7A81831D8A81931D9A873
:104D20001A31DAA81B31DBA81C31DCA81D31DDA843
:104D30001E31DEA81F31DFA82031E0A82131E1A813
:104D40002231E2A82331E3A82431E4A82531E5A8E3
:104D50002631E6A82731E7A82831E8A82931E9A8B3
:104D60002032E5A22132E6A22232E7A22332E8A2D3
:104D70002432E9A22532EAA22632EBA22732ECA2A3
:104D80002832EDA22932EEA231325AA9A33249A922
:104D90008E334AA98F334BA99C334CA99D334DA91F
:104DA0009E334EA9A1334FA9C43350A9CE3351A984
:104DB000D13352A9D23353A9D53354A9004EBBD213
:104DC000014EA1B6024E4081034EDFC6044E418122
:104DD000054E4281064E4381074EF2CD084EC9D59D
:104DE000094EFDC80A4ECFC90B4EC2CF0C4EA2D8F9
:104DF0000D4EBBB20E4EEBD30F4E4481104EA4D8D5
:104E0000114EF3B3124E4581134EA8D7144ED2C79C
:104E1000154EA7D8164EC0CA174E4681184EF0C779
:104E2000194EFBB11A4EB5D21B4ED4B41C4EABB6C4
:104E30001D4EBFCB1E4EA9D81F4E4781204E488124
:104E4000214E4981224EAAB6234E4A81244EBDC12D
:104E5000254ECFD1264E4B81274EA5C9284EADD821
:104E6000294E4C812A4EF6B82B4EBED12C4EDCE397
:104E70002D4ED0D62E4E4D812F4E4E81304EE1B765
:104E8000314E4F81324EAEB4334E5081344ED9C183
:104E9000354E5181364EBCD8374E5281384EE8CD12
:104EA000394EA4B53A4EAACE3B4EF7D63C4E53816E
:104EB0003D4EF6C03E4ED9BE3F4EAFD8404E548117
:104EC000414E5581424E5681434ECBC4444E57818C
:104ED000454EC3BE464E5881474EB1D8484EB4C326
:104EE000494EE5D24A4E59814B4EAED64C4EDACEA3
:104EF0004D4EA7D54E4EF5BA4F4EA6B7504ED6C022
:104F0000514E5A81524EB9C6534ED2C5544EC7C7A0
:104F1000554E5B81564ED4B9574E5C81584ECBB33B
:104F2000594ED2D25A4E5D815B4E5E815C4EBFD8E7
:104F30005D4EC5BE5E4EF2C65F4EB2D2604EB0CF81
:104F4000614EE7CF624E5F81634E6081644E618146
:104F5000654E6281664EE9CA674E6381684E648120
:104F6000694EC0D86A4E65816B4E66816C4E678112
:104F70006D4E68816E4E69816F4E6A81704EF2C2CD
:104F8000714ED2C2724E6B81734EE9C8744E6C8101
:104F9000754E6D81764E6E81774E6F81784E708141
:104FA000794E71817A4E72817B4E73817C4E748111
:104FB0007D4E75817E4EACC77F4E7681804E778167
:104FC000814E7881824E7981834E7A81844E7B81B5
:104FD000854E7C81864ECBC1874E7D81884EE8D33D
:104FE000894EF9D58A4E7E818B4EC2CA8C4EFEB652
:104FF0008D4EA1D88E4EDAD38F4EF7BF904E808162
:10500000914EC6D4924EA5BB934EC1D8944EE5CED8
:10501000954EAEBE964E8181974E8281984EA8D80D
:10502000994E83819A4EC7D19B4EA9D09C4E8481C4
:105030009D4E85819E4E86819F4EBDD8A04EEFD954
:10504000A14EF6CDA24EBABFA34E8781A44EBBBDE2
:10505000A54EA5BAA64EE0D2A74EFAB2A84EE0BA27
:10506000A94EB6C4AA4E8881AB4EEDCFAC4EA9BEB8
:10507000AD4EA4CDAE4EC1C1AF4E8981B04E8A8136
:10508000B14E8B81B24ED7C7B34EF1D9B44E8C819D
:10509000B54EF4D9B64E8D81B74E8E81B84E8F8104
:1050A000B94E9081BA4ECBC8BB4EE9D8BC4E918167
:1050B000BD4E9281BE4E9381BF4EDAD2C04EB2CA6F
:1050C000C14ECAC8C24EECD8C34EEAD8C44EC6D8E8
:1050D000C54EF6BDC64ECDC6C74EF0B3C84E948180
:1050E000C94EEBD8CA4EF1BDCB4EE9BDCC4E958131
:1050F000CD4ED4C8CE4ED3B4CF4E9681D04E9781EC
:10510000D14ED8C2D24E9881D34ED6B2D44ED0D73B
:10511000D54ECBCAD64EFBCBD74ECCD5D84EB6B893
:10512000D94EC9CFDA4E9981DB4E9A81DC4E9B81F4
:10513000DD4EDAD9DE4EF0D8DF4EAAC7E04E9C81B4
:10514000E14EEED8E24E9D81E34EFAB4E44EEEC15C
:10515000E54ED4D2E64E9E81E74E9F81E84EEDD8D3
:10516000E94EA081EA4EC7D2EB4EEFD8EC4EC7C352
:10517000ED4EA181EE4EA281EF4EA381F04EF6D10D
:10518000F14EA481F24ED9D6F34EF2D8F44EA58159
:10519000F54EF5D8F64EFEBCF74EDBBCF84EA681B8
:1051A000F94EA781FA4EA881FB4ECEC8FC4EA981CC
:1051B000FD4EDDB7FE4EAA81FF4EC2B7004FAB8158
:1051C000014FF3C6024FAC81034FAD81044FAE8156
:1051D000054FAF81064FB081074FB181084FB281B3
:1051E000094FF8D80A4FC1D20B4FB3810C4FB4818D
:1051F0000D4FE9CE0E4FBFBC0F4FFCB7104FA5B7F8
:10520000114FDDD0124FB581134FB681144FB781C6
:10521000154FB881164FB981174FDAD6184FC5D33D
:10522000194FEFBB1A4FE1BB1B4FF1D81C4FBA818E
:105230001D4FBB811E4FA1C91F4FB0CE204FABB435
:10524000214FBC81224FF3D8234FBD81244FCBC9BE
:10525000254FF6D8264FD7C2274FF7D8284FBE8103
:10526000294FBF812A4FB1CE2B4FF9D82C4FC08187
:105270002D4FC1812E4FC2812F4FAEB2304FC0B9DA
:10528000314FC381324FA3D9334FC481344FE9B07A
:10529000354FC581364FE6C1374FC681384FECC90F
:1052A000394FC7813A4FC5CB3B4FC8813C4FC6CB26
:1052B0003D4FA4D93E4FC9813F4FCA81404FCB815A
:1052C000414FCC81424FCD81434FE8B5444FCE8111
:1052D000454FCF81464FABB5474FD081484FD18125
:1052E000494FD2814A4FD3814B4FD4814C4FD58106
:1052F0004D4FBBCE4E4FCDB54F4FA1D7504FF4D7EA
:10530000514FD3D3524FD681534FE5CC544FD78111
:10531000554FCEBA564FD881574FA2D9584FDCD9E6
:10532000594FE0D35A4FFDD85B4FF0B75C4FF7D7DA
:105330005D4FFED85E4FFAD85F4FA1D9604FE3C4EE
:10534000614FD981624FDA81634FB6D3644FF4D88D
:10535000654FDDD9664FDB81674FFBD8684FDC8135
:10536000694FE5C56A4FDD816B4FDE816C4FD0C060
:105370006D4FDF816E4FE0816F4FF0D1704FDBB02A
:10538000714FE181724FE281734FD1BC744FA6D946
:10539000754FE381764FA5D9774FE481784FE5814A
:1053A000794FE6817A4FE7817B4FACD97C4FAED9FC
:1053B0007D4FE8817E4FABD97F4FB9CA804FE981DD
:1053C000814FEA81824FEB81834FA9D9844FB6D6B2
:1053D000854FEC81864FED81874FEE81884FDEB39C
:1053E000894FA8D98A4FEF818B4FFDC08C4FF08138
:1053F0008D4FCCCA8E4FF1818F4FAAD9904FF28139
:10540000914FA7D9924FF381934FF481944FB0D924
:10541000954FF581964FF681974FB1B6984FF7812A
:10542000994FF8819A4FF9819B4FA9B99C4FFA8106
:105430009D4FC0D29E4FFB819F4FFC81A04FC0CF9C
:10544000A14FFD81A24FFE81A34FC2C2A44F408253
:10545000A54FC4BDA64FECD5A74FE0B2A84FC8C713
:10546000A94FEBBFAA4FADD9AB4F4182AC4FAFD9DB
:10547000AD4F4282AE4FEACEAF4FEEBAB04F43824D
:10548000B14F4482B24F4582B34F4682B44F4782F8
:10549000B54FD6C7B64F4882B74F4982B84F4A82F8
:1054A000B94F4B82BA4F4C82BB4F4D82BC4F4E829C
:1054B000BD4F4F82BE4F5082BF4FE3B1C04F5182AC
:1054C000C14F5282C24F5382C34FD9B4C44FEDB6BD
:1054D000C54FB4D9C64F5482C74F5582C84F568264
:1054E000C94F5782CA4FA1BFCB4F5882CC4F598268
:1054F000CD4F5A82CE4FDED9CF4FCEC7D04FFEC050
:10550000D14FB8D9D24F5B82D34F5C82D44F5D82EA
:10551000D54F5E82D64F5F82D74FD7CBD84FFDB7DE
:10552000D94F6082DA4FB5D9DB4F6182DC4FB7D9F2
:10553000DD4FA3B1DE4FE1D3DF4FB9D9E04F628237
:10554000E14FC5D0E24F6382E34FB6D9E44F6482A6
:10555000E54F6582E64FB1D9E74F6682E84FB2D991
:10556000E94FA9C1EA4FB3D9EB4F6782EC4F68828C
:10557000ED4FF3BCEE4FDED0EF4FA9B8F04F69828C
:10558000F14FE3BEF24F6A82F34FBDD9F44F6B8205
:10559000F54F6C82F64F6D82F74F6E82F84FBAD995
:1055A000F94F6F82FA4FB3B0FB4F7082FC4F71829C
:1055B000FD4F7282FE4FC2D9FF4F7382005074823A
:1055C00001507582025076820350778204507882AF
:1055D0000550798206507A8207507B8208507C827F
:1055E00009507D820A507E820B5080820C50C4D9B3
:1055F0000D50B6B10E5081820F50BFD9105082822B
:10560000115083821250B9B5135084821450F3BEE6
:105610001550858216508682175087821850C8CC44
:105620001950F2BA1A50D0D21B5088821C50C3D9DC
:105630001D5089821E508A821F50E8BD20508B82E7
:105640002150ABB322508C8223508D8224508E8205
:105650002550C5D92650EBBE27508F822850C6D979
:105660002950BBD92A50DFC42B5090822C50BED970
:105670002D50C1D92E50C0D92F50918230509282D6
:1056800031509382325094823350958234509682B6
:1056900035509782365098823750998238509A8286
:1056A00039509B823A50AED53B509C823C50B5D687
:1056B0003D509D823E50E3C73F509E8240509F82A6
:1056C0004150A0824250A1824350C8D94450A28286
:1056D0004550A3824650A4824750D9BC4850CAD9ED
:1056E0004950A5824A50A6824B50A7824C50BCD943
:1056F0004D50A8824E50CBD94F50ABC65050A982C6
:105700005150AA825250AB825350AC825450AD8259
:105710005550C9D95650AE825750AF825850B082BA
:105720005950B1825A50F6D75B50B2825C50A3CD2B
:105730005D50B3825E50B4825F50B5826050B682D5
:105740006150B7826250B8826350B9826450BA82A5
:105750006550A1BD6650BB826750BC826850BD8257
:105760006950BE826A50BF826B50C0826C50CCD9E7
:105770006D50C1826E50C2826F50C3827050C4821D
:105780007150C5827250C6827350C7827450C882ED
:105790007550C9827650BCC57750B5CD7850CA8255
:1057A0007950CB827A50CC827B50CDD97C50CD823F
:1057B0007D50CE827E50C7D97F50A5B38050FEBFAA
:1057C0008150CF828250D0828350D1828450D28245
:1057D0008550B5B88650D3828750D4828850FCC09B
:1057E0008950D5828A50D6828B50D7828C50D882ED
:1057F0008D50F8B08E50D9828F50DA829050DB8273
:105800009150DC829250DD829350DE829450DF8290
:105810009550E0829650E1829750E2829850E38260
:105820009950E4829A50E5829B50E6829C50E78230
:105830009D50E8829E50E9829F50EA82A050EB8200
:10584000A150EC82A250ED82A350F6B4A450EE8297
:10585000A550CED9A650EF82A750CFD9A850A2B458
:10586000A950D0D9AA50F082AB50F182AC50DFB42D
:10587000AD50F282AE50F382AF50F482B050F58258
:10588000B150F682B250C1B0B350F782B450F88232
:10589000B550F982B650FA82B750FB82B850FC82FC
:1058A000B950FD82BA50D1D9BB50B5C9BC50FE82A7
:1058B000BD504083BE504183BF504283C05043839C
:1058C000C1504483C2504583C3504683C45047836C
:1058D000C5504883C6504983C7504A83C8504B833C
:1058E000C9504C83CA504D83CB504E83CC504F830C
:1058F000CD505083CE505183CF50F1CFD0505283F2
:10590000D1505383D2505483D3505583D4505683AF
:10591000D5505783D650D2D9D7505883D8505983B1
:10592000D9505A83DA50C5C1DB505B83DC505C83AD
:10593000DD505D83DE505E83DF505F83E050608327
:10594000E1506183E2506283E3506383E4506483F7
:10595000E5506583E650D6D9E750AEC9E850668376
:10596000E9506783EA506883EB506983EC50D5D9DE
:10597000ED50D4D9EE50D7D9EF506A83F0506B83F5
:10598000F1506C83F2506D83F350DBCBF4506E8397
:10599000F550A9BDF6506F83F7507083F8507183AE
:1059A000F9507283FA507383FB50A7C6FC5074837E
:1059B000FD507583FE507683FF50778300517883C6
:1059C0000151798302517A8303517B8304517C8393
:1059D00005517D830651D3D90751D8D908517E830B
:1059E000095180830A5181830B51D9D90C5182838B
:1059F0000D5183830E5184830F518583105186830B
:105A0000115187831251E5C813518883145189833A
:105A100015518A8316518B8317518C8318518D83AE
:105A200019518E831A518F831B5190831C5191837E
:105A30001D5192831E5193831F519483205195834E
:105A40002151DCC02251968323519783245198839E
:105A50002551998326519A8327519B8328519C83F2
:105A600029519D832A519E832B519F832C51A083C2
:105A70002D51A1832E51A2832F51A3833051A48392
:105A80003151A5833251A6833351A7833451A88362
:105A90003551A9833651AA833751AB833851AC8332
:105AA0003951AD833A51AE833B51AF833C51B08302
:105AB0003D51B1833E51B2833F51F9B64051A3D815
:105AC0004151CAD44251B3834351AAD44451D6D090
:105AD0004551E4B34651D7D54751B4834851C8CF57
